:020000040800F2
:10000000684F0020F1020008032300080F210008B8
:100010000123000847070008D92A00080000000053
:100020000000000000000000000000003102000895
:1000300005080008000000008D020008D124000817
:100040000B0300080B0300080B0300080B03000858
:100050000B0300080B0300080B0300080B03000848
:100060000B0300080B0300080B0300080B03000838
:10007000490700080B030008550700080B03000898
:100080000B0300080B0300080B0300080B03000818
:100090000B0300080B0300080B0300080B03000808
:1000A0000B0300080B0300080B0300080B030008F8
:1000B0000B0300080B0300080B0300080B030008E8
:1000C0000B0300080B0300080B0300080B030008D8
:1000D0000B0300080B0300080B030008C12A0008EB
:1000E0000B0300080B0300080B0300080B030008B8
:1000F0000B0300080B0300080B0300080B030008A8
:100100000B0300080B0300080B0300080B03000897
:100110000B0300080B030008A52500080B030008CB
:100120000B0300080B0300080B0300080B03000877
:100130000B0300080B0300080B0300080B03000867
:100140000B0300080B0300080B0300080B03000857
:100150000B0300080B0300080B0300080B03000847
:100160000B0300080B0300080B0300080B03000837
:100170000B0300080B0300080B030008000000003D
:100180000B0300080B03000800F002F800F041F830
:100190000AA090E8000C82448344AAF10107DA45E2
:1001A00001D100F036F8AFF2090EBAE80F0013F0F3
:1001B000010F18BFFB1A43F0010318475C3500001C
:1001C0007C350000103A24BF78C878C1FAD85207AD
:1001D00024BF30C830C144BF04680C6070470000C1
:1001E0000023002400250026103A28BF78C1FBD840
:1001F000520728BF30C148BF0B607047642900F028
:100200005981002070471FB503F048FA1FBD10B593
:1002100010BD00F05EFA1146FFF7F5FF02F0C0FCDA
:1002200000F07CFA03B4FFF7F2FF03BC00F084FA9D
:100230002C4B19680868B0E8F04F80F30988BFF3C9
:100240006F8F4FF0000080F31188704700000000AE
:1002500008480068006880F308884FF0000080F3C9
:10026000148862B661B6BFF34F8FBFF36F8F00DFA4
:1002700000BF00BF08ED00E0DFF80C00016841F4AA
:1002800070010160704700BF88ED00E0EFF3098066
:10029000BFF36F8F134B1A681EF0100F08BF20EDCD
:1002A000108A20E9F04F106009B44FF0500080F33D
:1002B0001188BFF34F8FBFF36F8F03F027F84FF014
:1002C000000080F3118809BC19680868B0E8F04F95
:1002D0001EF0100F08BFB0EC108A80F30988BFF33E
:1002E0006F8F704734000020EFF3058070470000E7
:1002F0000948804709480047FEE7FEE7FEE7FEE7BA
:10030000FEE7FEE7FEE7FEE7FEE7FEE704480549F5
:10031000054A064B70470000952500088901000832
:1003200068470020684F0020684B0020684B002081
:1003300053EA020C00F069802DE9F04B4FF0000603
:10034000002B1FBFB3FA83F503FA05F424FA05F670
:100350005E4012BF1643B2FA82F502FA05F4C5F107
:1003600020051EBF22FA05FC44EA0C04203556EA9B
:10037000044C4FEA144418BF641C4FF000084FF0BF
:100380000009904271EB030C39D3002919BFB1FA6F
:1003900081F701FA07F6B0FA80F700FA07F6C7F11D
:1003A00020071EBF20FA07FC46EA0C062037B6FBE2
:1003B000F4FCA7EB0507103F07F01F0BCBF120065D
:1003C0000CFA0BFB2CFA06F644BFB3460026202F8E
:1003D000A4BF5E464FF0000B5BEA060C08BF4FF06F
:1003E000010B19EB0B09ABFB027C48EB0608C01BA9
:1003F00006FB02CC0BFB03CC71EB0C01C1E70B46F7
:10040000024641464846BDE8F08B13B54FF0000068
:100410004FF00001AFF30080BDE81C4070470000C2
:100420000FB41CB5084B06AA7B446946009005989A
:1004300000F037F904460020694600F045F92046EF
:100440001CBC5DF814FB00009D0200002DE9F0418A
:100450000E460446002020622046E168884730B3FB
:10046000252805D0D4E901219047206A401CF2E7F5
:10047000E168204600278847050018D0A5F1410013
:10048000192802D820354FF4006732462946204605
:100490002760FFF7B3FE40B1012804D0F61D26F017
:1004A00007060836D8E7361DD6E72846DAE7206A79
:1004B000BDE8F0812DE9F041064600241068752959
:1004C000314616A510D0AFF30080002802DA404272
:1004D00013A507E031688A0701D512A502E0490794
:1004E00004D511A5012401E0AFF3008000210A2208
:1004F00006F1240709E0B0FBF2FCB0FBF2F302FBCB
:100500001C00303078541846491C0028F3D123468B
:100510002A463046BDE8F04100F064B80000000013
:100520002D0000002B0000002000000010B5203A34
:10053000C0F00B80B1E81850203AA0E81850B1E89C
:100540001850A0E81850BFF4F5AF5FEA027C24BF52
:10055000B1E81850A0E8185044BF18C918C0BDE849
:1005600010405FEA827C24BF51F8043B40F8043B12
:1005700008BF7047D20728BF31F8023B48BF11F8C7
:10058000012B28BF20F8023B48BF00F8012B704721
:100590004FF0000200B5134694469646203922BF1C
:1005A000A0E80C50A0E80C50B1F12001BFF4F7AF67
:1005B000090728BFA0E80C5048BF0CC05DF804EB49
:1005C000890028BF40F8042B08BF704748BF20F8B7
:1005D000022B11F0804F18BF00F8012B70477047B5
:1005E000704770472DE9F0470D46994692460446FC
:1005F00000F124080168880604D5E06921F01001A3
:10060000216000E00120A84201DD471B00E0002737
:10061000A1697A1902EB0900081AA0612078C006C6
:1006200002D42046AFF30080002608E0D4E901217F
:100630001AF806009047206A401C761C20624E453E
:10064000F4DB2078C0060AD52046AFF3008006E030
:10065000D4E9012130209047206A401C2062381ED6
:10066000A7F10107F4DC07E0D4E9012118F805003F
:100670009047206A401C2062281EA5F10105F3DC8A
:100680002046AFF300802078000602D50220BDE8A6
:10069000F0870120FBE7000001694A1C026108782D
:1006A000704700B58FB0CDE90131002105910549B2
:1006B0007944CDE9031011466846FFF7C7FE0FB035
:1006C00000BD0000E5FFFFFF0A6802F8010B0A60A9
:1006D0007047754600F02CF8AE4605006946534653
:1006E00020F00700854618B020B5FFF70FFEBDE8E3
:1006F00020404FF000064FF000074FF000084FF089
:10070000000B21F00701AC46ACE8C009ACE8C00919
:10071000ACE8C009ACE8C0098D46704710B5044686
:10072000AFF300802046BDE81040FFF77BBD00001E
:10073000004870470447002001491820ABBEFEE77F
:10074000260002007047FEE7014800F0B9B800003B
:100750000C080020014800F0B3B800006C0800202D
:1007600001681823CAB2103AB2FBF3F2054B6FF3DB
:100770000901032A9B5CC36500D9091D81650846F0
:1007800070470000E036000810B5014600208B6974
:100790008A6A4FF0C07453B1B3F5005F15D072B1DF
:1007A000012A0CD0022A0AD0032A09D104E01AB186
:1007B000012A06D0022A03D1C96AC90100D5012045
:1007C00010BDC96AA142FAD010BD002AF7D0012A93
:1007D000F2D0022AF3D0032AF3D010BD30B504685A
:1007E000256825F480252560046863608368402BB4
:1007F000036803D099600068C26030BD9A600068E9
:10080000C16030BD704772B6FEE72DE9F041044685
:10081000876D00F0CDFA064694F8350000250228D1
:1008200006D08020606584F834500120BDE8F08156
:100830002068016821F0160101602068416921F0FB
:1008400080014161206C08B9A06C20B1206801686A
:1008500021F0080101602068016821F001010160B8
:100860000CE000F0A5FA801B052807D92020606560
:10087000032084F8350084F83450D7E720680068F6
:10088000C007EED194F85C103F208840B86001208A
:1008900084F8350084F834500020C7E790F835100C
:1008A000022903D08021416501207047052180F88D
:1008B00035100068016821F00101016000207047D7
:1008C0002DE9F84304464FF00009CDF80090634845
:1008D0004FF41651A56D0068B0FBF1F72E6894F83F
:1008E0005C10082000FA01F131420FD021680A683B
:1008F00052070BD50A6822F004020A6094F85C10D3
:100900008840A860606D40F00100606594F85C105C
:100910004FF0010808FA01F0304208D02168496917
:10092000090604D5A860606D40F00200606594F887
:100930005C1004208840304208D02168096889078B
:1009400004D5A860606D40F00400606594F85C1008
:1009500010208840304218D021680968090714D552
:10096000A86020680168490304D50068000308D521
:10097000A16C07E00168C90503D4016821F00801F2
:100980000160216C09B12046884794F85C10202052
:100990008840304231D021680968C9062DD5A86049
:1009A00094F8350005282068016806D0490347D52A
:1009B000006800031DD4616C1CE021F01601016089
:1009C0002068416921F080014161206C08B9A06C68
:1009D00020B12068016821F00801016094F85C10E2
:1009E0003F208840A86084F8358084F83490216DD9
:1009F0001FE0E16B09B120468847606D00282BD0CD
:100A0000606DC00714D0052084F8350020680168A7
:100A100021F0010101600098401C0090B84203D809
:100A200020680068C007F6D184F8358084F83490D7
:100A3000E16C002910D001B02046BDE8F043084722
:100A40000168C905D5D4016821F01001016084F85E
:100A5000358084F83490CCE7BDE8F883300000207E
:100A60002DE9F041044600F0A3F906465CB10220EE
:100A700084F83500002584F834502068016821F09E
:100A8000010101600DE00120BDE8F08100F090F966
:100A9000801B052805D920206065032084F83500D7
:100AA000F2E720680068C007F0D12268116820488A
:100AB0000140D4E901031843D4E903363343184312
:100AC00063691843A3691843E3691843236A184309
:100AD0000843616A042903D1D4E90B13194308437D
:100AE000106020684069666A20F0070130460E43B6
:100AF000012704280CD1A06A0643E06A40B12046D1
:100B0000FFF742FE20B14020606584F83570BAE7F7
:100B1000206846612046FFF723FE94F85C203F21C1
:100B200091408160656584F835700020ACE7000075
:100B30003F8010F02DE9F0410446866D90F83400B6
:100B4000002501280DD0012084F8340094F8357078
:100B50000020012F07D084F8340002252846BDE884
:100B6000F0810220FBE7022784F83570606520469B
:100B7000FFF734FE94F85C103F208840B060206896
:100B8000016841F016010160206C20B12068016805
:100B900041F0080101602068016841F00101016035
:100BA000DCE700002DE9F84FDFF8BCA100220125A9
:100BB00003264FF00F090AF1040BAAF1040E00BF3F
:100BC0000B6805FA02F42340A34270D10F7907F0B5
:100BD0000307012F01D0022F16D187684FEA420880
:100BE00006FA08FC27EA0C07D1F80CC00CFA08FC3E
:100BF0004CEA070CC0F808C04768A7430C79C4F357
:100C0000001494403C4344600C79E443A4070AD0A8
:100C1000C4684FEA420C06FA0CF7BC438F6807FA27
:100C20000CF72743C7600C7904F00304022C12D19F
:100C3000D40800EB840CDCF820405707FF0E09FABB
:100C400007F824EA0804D1F8108008FA07F848EAFF
:100C50000408CCF8208004684FEA420C06FA0CF72E
:100C6000BC430F7907F0030707FA0CF72743076027
:100C70004C6814F4403F70D03C4C276847F48047E0
:100C80002760246822F0030704F480440094384C61
:100C900007EB040CDCF8084897074FEA177809FAC5
:100CA00008F7BC43334FB84202D1002724E054E098
:100CB000314FB84201D101271EE0304FB84201D177
:100CC000022719E02E4FB84201D1032714E02D4F1F
:100CD000B84201D104270FE02B4FB84201D10527BC
:100CE0000AE02A4FB84201D1062705E0284FB84252
:100CF00001D1072700E0082707FA08F72743CCF8B7
:100D00000878DAF800405746D1F804C09C435FEAFF
:100D1000CC2C00D51C433C60DBF800405F46D1F88A
:100D200004C09C435FEA8C2C00D51C433C60DEF879
:100D300000407746D1F804C09C435FEA8C3C00D564
:100D40001C433C60084F083F3C68D1F804C09C43FA
:100D50005FEACC3C00D51C433C60521C102AFFF4D7
:100D60002FAFBDE8F88F0000083C01404438024036
:100D70000030014000000240000402400008024030
:100D8000000C024000100240001402400018024013
:100D9000001C0240426921EA02030A4043EA024180
:100DA000816170470AB1816170470904FBE7000067
:100DB00001488068704700002400002002488168D4
:100DC0000278114481607047240000200B4810B560
:100DD000016841F400710160016841F480610160C3
:100DE000016841F480710160032000F09FF80F203A
:100DF00000F006F800F050F8002010BD003C024062
:100E000030B505461F4887B00024016841F0100145
:100E10000160006806A900F01000009001A800F031
:100E200031F90498A8B100F04DF940001649174A6D
:100E3000B0FBF1F11648491E026040F2E732C0E90A
:100E40000324C0E90114846100F024FD040003D0F0
:100E500015E000F037F9E9E70D4800F099FD0400CE
:100E60000DD1362000F034F8102D07D2002229468B
:100E7000362000F03BF80748056000E0012407B089
:100E8000204630BD4038024040420F000010004074
:100E9000CC090020280000200C4882B0016841F4F1
:100EA00080410160006800F4804000900748001F06
:100EB000016841F0805101600068002200F080501C
:100EC00000900F21901E02B000F010B8443802408C
:100ED000002809DB00F01F02012191404009800039
:100EE00000F1E020C0F8001170470000F0B40E4B94
:100EF0001B680C46C3F30223C3F10705042D00D978
:100F00000425191D072901D2002300E0DB1E01265C
:100F100006FA05F1491E214099409E40761E164072
:100F20003143F0BC01F014BE0CED00E0064900F0C6
:100F3000070208684FF6FF03184040EA0220034A00
:100F400010430860704700000CED00E00000FA0557
:100F50002DE9F0470E46050065D0DFF81481D8F87A
:100F60000000F7B200F00700B04207D288F8007026
:100F7000D8F8000000F00700B04254D128683D4C7A
:100F8000810712D5400703D5206840F4E050206067
:100F90002878000703D5206840F46040206020686E
:100FA000A96820F0F000084320602878C0072DD001
:100FB000304968680839012812D0022813D0032864
:100FC00011D00968890700292DDA216821F0030171
:100FD00001432160FFF7ECFE814641F2883A0EE0C2
:100FE00009688903EFE709688901ECE7FFF7E0FE8C
:100FF000A0EB0901514502D90320BDE8F087206824
:10100000696800F00C00B0EB810FEFD1D8F8001048
:10101000404601F00701B14207D90770006800F0AF
:101020000700B04201D00120E7E72878400705D546
:101030002068E96820F4E050084320602878000721
:1010400006D52068296920F4604040EAC10020608C
:1010500000F058F82168084AC1F30311515CC840F8
:101060000649086006480068FFF7CAFE0020C4E78A
:10107000003C024008380240E836000830000020FA
:10108000280000200F2202600C4A136803F00303BB
:101090004360136803F0F0038360136803F4E053C4
:1010A000C36012684FF4E05303EAD20202610448BD
:1010B000006800F007000860704700000838024030
:1010C000003C02400448054900680968044AC1F32D
:1010D0008221515CC840704730000020083802402F
:1010E000F83600080448054900680968044AC1F355
:1010F0004231515CC840704730000020083802403F
:10110000F8360008154810B5006810F00C021448B5
:1011100013D04110042A0FD0082A0ED10F4C241FDF
:101120002268236802F03F025B0207D52068C0F303
:101130008810A0FB010106E0084610BD2168C1F33C
:101140008811A1FB00010023FFF7F2F82168C1F329
:101150000141491C4900B0FBF1F010BD08380240C4
:101160000024F4002DE9F84F04006ED02078DFF859
:101170004C93C007A9F104054AD009F104000168A5
:10118000C1F38101012908D00068C0F38100022861
:101190000AD1D9F80000400206D52868800337D567
:1011A00060680028E1D033E06068B0F5803F10D07F
:1011B000B0F5A02F286810D020F48030286028686F
:1011C00020F4802028606068A8B1FFF7F1FD064692
:1011D0000DE0286840F48030F4E740F48020286077
:1011E000F7E700BFFFF7E4FD801B642873D8286889
:1011F0008003F7D50CE0FFF7DBFD064605E000BFF6
:10120000FFF7D6FD801B6428F0D828688003F7D448
:101210002078DFF8AC8280074FF0000A3ED5A7485F
:10122000001D016811F00C0F08D00068C0F38100A8
:1012300002280BD1D9F80000400207D428688007A3
:1012400016D5E068012800D112E033E1E068B8B1BA
:101250000120C8F80000FFF7ABFD064605E000BF1F
:10126000FFF7A6FD801B0228C0D828688007F7D5A5
:101270002868216920F0F80040EAC10028600DE0EC
:10128000C8F800A0FFF794FD064604E0FFF790FDC4
:10129000801B02281FD828688007F7D42078000711
:1012A00022D5864F87486169703771B1012101608D
:1012B000FFF77EFD064604E0FFF77AFD801B02285B
:1012C00009D838688007F7D50EE0C0F800A0FFF70E
:1012D0006FFD064605E082E0FFF76AFD801B0228ED
:1012E0007DD838688007F7D42078400768D5DFF8C4
:1012F000CCB100270BF13C0BDBF80000C0000BD495
:10130000DBF8001041F08051CBF80010DBF8000052
:10131000012700F0805000906B4E3068C00510D45B
:10132000306840F480703060FFF742FD009005E0C7
:10133000FFF73EFD0099401A022850D83068C005DA
:10134000F6D55E4EA0686C3601280FD005283068AF
:1013500010D020F001003060306820F004003060D0
:10136000A068B8B1FFF724FD00900FE0306840F0AE
:101370000100F4E740F004003060F7E7FFF718FDE4
:101380000099411A41F28830814266D8306880075E
:10139000F4D50EE0FFF70CFD009007E0FFF708FD25
:1013A0000099411A41F28830814256D8306880074E
:1013B000F4D42FB1DBF8001021F08051CBF80010ED
:1013C000A069C8B33D49091D0968C1F3810102291B
:1013D0004AD00228504607D0C8F8600000E03CE040
:1013E000FFF7E6FC04463BE04746C8F86000FFF71D
:1013F000DFFC064605E000BFFFF7DAFC801B022891
:101400002BD828688001F7D4D4E907010843A16AE2
:101410002E4A490802EB0141626A41EA82110843FF
:1014200094F82C1040EA0161C9F8001001203866D8
:10143000FFF7BEFC044606E03EE000BFFFF7B8FC45
:10144000001B022809D828688001F7D534E000BFC6
:10145000FFF7AEFC001B022802D90320BDE8F88F7D
:1014600028688001F4D427E00128F7D0D9F80000DB
:10147000E26900F4800191421CD1226A00F03F0130
:10148000914217D147F6C071626A0140B1EB821FE9
:1014900010D1A26A4FF0FF3300F4403103EB520247
:1014A000B1EB024F06D194F82C1000F07060B0EB55
:1014B000016F01D00120D1E70020CFE704380240BE
:1014C00000004742800E4742007000400000FFFFCE
:1014D00070B5040009D0606A002540B125616561DE
:1014E000A56294F8510040B10CE0012070BD606825
:1014F000B0F5827FF4D0E561F2E784F850502046E1
:1015000000F044F8022084F851002068016821F0BE
:1015100040010160A088218900F4827001F4044137
:101520000843A18901F400610843217C01F0020114
:101530000843217D01F001010843218B01F4007172
:101540000843217F01F03801084394F8201001F08E
:1015500080010843218D01F400510843216808608F
:10156000A069042101EA104094F8241001F0100150
:101570000843216848602068C16921F40061C161A5
:101580006565012084F85100002070BDF0B587B07A
:10159000044614216846FEF7FBFF1C492068884278
:1015A00032D11B480024016841F480410160006889
:1015B00000F48040059016481038016841F004019D
:1015C0000160016801F004010591016841F0020128
:1015D00001600068022500F0020005900C20CDE9B2
:1015E000000502AA0326052782E8D00069460948BB
:1015F000FFF7D8FA6802CDE9000502AA694682E839
:10160000D0000548FFF7CEFA07B0F0BD0038004023
:101610004038024000080240000402402DE9F84F23
:10162000044690F8500000270A9E1D4692468B46BD
:101630004FF0010901280ED0012084F85000FFF777
:10164000B7FB804694F85100616801280CD0B1F5D1
:10165000827F07D102E00220BDE8F88FA16809B9B6
:10166000042801D00227C2E0BBF1000F27D0BAF155
:10167000000F24D01DB394F85100042802D0052097
:1016800084F8510000206065C4F838A0E587A5877C
:10169000C4F830B0E586A5862064606420680168DF
:1016A000490603D4016841F040010160E068B0F5EB
:1016B000006F606805D0E8B3012D46D07FE00127B8
:1016C00095E008B1012D39D1206B21680088C860F0
:1016D000206B801C2063E08E401EE0862EE0206898
:1016E000816889070FD5E18E69B1B9F1010F0AD17F
:1016F000216B0988C160206B801C2063E08E401E36
:10170000E0864FF0000920688168C9070CD0E18F9E
:1017100051B1C068A16B0880A06B801CA063E08FF2
:10172000401EE0874FF00109FFF742FBA0EB0800E5
:10173000B04200E009E001D3701C50D1E08E0028D7
:10174000CDD1E08F0028CAD13FE0206B216800781E
:101750000873206B401C2063E08E401EE0862EE064
:101760002068816889070FD5E18E69B1B9F1010F51
:101770000AD1216B09780173206B401C2063E08E35
:10178000401EE0864FF0000920688168C9070CD030
:10179000E18F51B1C068A16B0870A06B401CA063C1
:1017A000E08F401EE0874FF00109FFF701FBA0EB3F
:1017B0000800B04202D3701C01D010E07EB1E08E70
:1017C0000028CDD1E08F0028CAD1424631462046BC
:1017D00000F098FD28B101272020606507E003276D
:1017E00005E0A06818B92068C168806800900120F1
:1017F00084F85100002084F8500038462CE77047E8
:101800007047000070B590F83C20012A32D00124C6
:1018100080F83C40022280F83D2003685A689D68A9
:1018200022F070060A6832435A60134B02689A42EB
:1018300014D0B2F1804F11D0104B9A420ED0104B01
:101840009A420BD00F4B9A4208D00F4B9A4205D0C8
:101850000E4B9A4202D00E4B9A4204D1496825F0B1
:1018600080031943916080F83D40002180F83C10CE
:10187000084670BD022070BD000001400004004019
:1018800000080040000C00400004014000400140FE
:101890000018004010B5040003D094F83D0010B1CA
:1018A00007E0012010BD002084F83C00204600F035
:1018B0001FF8022084F83D00211D206800F078FE0A
:1018C000012084F8460084F83E0084F83F0084F844
:1018D000400084F8410084F8420084F8430084F812
:1018E000440084F8450084F83D00002010BD00004D
:1018F00008B500680649884208D10648016841F0E9
:1019000020010160006800F02000009008BD000088
:10191000001400404038024090F83D10012901D0E9
:1019200001207047022180F83D100068114988426B
:1019300014D0B0F1804F11D00F4988420ED00F491A
:1019400088420BD00E49884208D00E49884205D003
:101950000D49884202D00D49884204D1816801F0C6
:101960000701062903D0016841F001010160002050
:1019700070470000000001400004004000080040E3
:10198000000C0040000401400040014000180040ED
:1019900090F83D10012901D001207047022180F804
:1019A0003D100168CA6842F00102CA60006811492E
:1019B000884214D0B0F1804F11D00F4988420ED028
:1019C0000E4988420BD00E49884208D00D49884202
:1019D00005D00D49884202D00C49884204D1816863
:1019E00001F00701062903D0016841F001010160FF
:1019F0000020704700000140000400400008004043
:101A0000000C00400004014000400140001800406C
:101A100001680A6A41F211131A4207D10A6A9B103F
:101A20001A4203D10A6822F001020A60012180F8FB
:101A30003D1000207047704770B50446006801698A
:101A40004FF00005C943890715D4C168C943890708
:101A500011D4E91E01610120207720688069800788
:101A6000204602D0FFF7E7FF04E000F098F8204698
:101A700000F096F8257720680169C943490717D413
:101A8000C168C943490713D46FF004010161022002
:101A900020772068806910F4407F204602D0FFF74D
:101AA000CAFF04E000F07BF8204600F079F82577C3
:101AB00020680169C943090716D4C168C9430907E9
:101AC00012D46FF008010161042020772068C069FA
:101AD0008007204602D0FFF7AEFF04E000F05FF879
:101AE000204600F05DF8257720680169C943C906E2
:101AF00017D4C168C943C90613D46FF0100101613E
:101B0000082020772068C06910F4407F204602D06A
:101B1000FFF791FF04E000F042F8204600F040F8A3
:101B2000257720680169C943C90708D1C168C9433D
:101B3000C90704D1891E0161204600F033F82068EE
:101B40000169C943090609D4C168C943090605D416
:101B50006FF0800101612046FFF751FE20680169A6
:101B6000C943490609D4C168C943490605D46FF081
:101B700040010161204600F01FF820680169C94357
:101B800089060BD4C168C943890607D46FF02001C8
:101B900001612046BDE87040FFF732BE70BD70475E
:101BA0007047000000680349884201D1FFF706B979
:101BB00070470000001000407047704710B50446A1
:101BC0000068406994F83D10C0F3C010212911D17C
:101BD00080B12068143050E8001F21F0800140E8F7
:101BE0000012002AF5D1606B08B1FEF70EFE204608
:101BF00000F00AFE2068406994F83E10C0F380109F
:101C0000222911D180B12068143050E8001F21F042
:101C1000400140E80012002AF5D1A06B08B1FEF7A0
:101C2000F4FD204600F0C9FD002010BD7047000003
:101C3000F8B5016804460868CA684B6910F00F0FD0
:101C40004FF000055AD003F0010602F490773743B5
:101C500065D0C10705D0D10503D5216C41F0010144
:101C60002164410705D5D90703D0216C41F0020159
:101C70002164810705D5D90703D0216C41F0040107
:101C80002164010707D502F02001314303D0216C04
:101C900041F008012164216C00293BD0800604D565
:101CA000900602D5204600F0BDFD20684069216CF9
:101CB000C0F3801001F00801014320462BD000F052
:101CC0007CFD20684069400621D52068143050E82A
:101CD000001F21F0400140E80012002AF5D1A06B5E
:101CE000A8B16C490165A06BFEF7D8FD002811D0A2
:101CF000A06B016D01B0BDE8F040084783060ED52A
:101D000093060CD52046BDE8F84000F08BBD204678
:101D1000FFF78CFFF8BDFFF789FF2564F8BD266B40
:101D20002023012E79D1C60677D5D60675D5086849
:101D3000486800904869400640D5A16B0868406833
:101D40000004000CEAD0A28D8242E7D9E085C86980
:101D5000B0F5807F2DD020680C3050E8001F21F4B2
:101D6000807140E80012002AF5D12068143050E854
:101D7000001F21F0010140E80012002AF5D120687F
:101D8000143050E8001F21F0400140E80012002A02
:101D9000F5D184F83E30256320680C3050E8001FF0
:101DA00021F0100140E80012002AF5D1A06BFEF7E7
:101DB0002CFDA08DE18D401A81B229E0A08DE18D2E
:101DC000401A81B2E08D0028A8D00029A6D0206852
:101DD0000C3050E8002F22F4907240E80026002ECC
:101DE000F5D12068143050E8002F22F0010240E8BD
:101DF0000026002EF5D184F83E30256320680C3093
:101E000050E8002F22F0100240E80023002BF5D10B
:101E10002046FFF7D2FEF8BDFFE705062BD51506D5
:101E200029D594F83D002128F5D1A068B0F5805F50
:101E300001D12069B0B1206A411C2162216800787B
:101E40004860E08C401E0004000CE084E3D1206870
:101E5000C16821F08001C1602068C16841F0400183
:101E6000C160D8E7206A0088C0F308004860206A93
:101E7000801C2062E5E74006CDD55006CBD5CA6868
:101E8000204622F04002CA6084F83D3000F028F974
:101E9000C1E700007926000870B5040004D094F86A
:101EA0003D00002510B106E0012070BD84F83C50D3
:101EB000204600F023F8242084F83D002068C16803
:101EC00021F40051C160204600F00CFD206801693A
:101ED00021F4904101612068416921F02A014161AA
:101EE0002068C16841F40051C1602564202084F855
:101EF0003D0084F83E00002070BD00002DE9F04157
:101F000086B0064614216846FEF742FB3049306829
:101F100088425AD12F480024016841F48021016091
:101F2000006800F4802005902A481038016841F0CC
:101F3000080101600068694600F0080005904FF450
:101F4000407000900220CDE9010403200390072097
:101F500004902148FEF726FE214D20484FF00067EF
:101F60002860C5E901744FF48068C5E9034880150D
:101F70006C61C5E906402C6228466C62FEF770FD74
:101F800008B1FEF740FCB563AE63154D13486035EC
:101F90003030E5E802074020A5E81101104845F877
:101FA00014496030AC61EC612C626C62FEF758FD44
:101FB00008B1FEF728FC7563002205212720AE63D7
:101FC000FEF794FF2720FEF783FF06B0BDE8F081FF
:101FD0000048004040380240000C024028600240A7
:101FE0000C08002090F83E30202B0ED159B152B190
:101FF00090F83C30012B08D0012380F83C300023BE
:10200000036300F0F5BC012070470220704790F890
:102010003E30202B0ED159B152B190F83C30012BFB
:1020200008D0012380F83C300023036300F02ABD70
:1020300001207047022070470449884204D10122E0
:1020400034390248FFF7E3BF70470000C80700209B
:102050007047000070B5044690F83D00202836D146
:1020600091B38AB394F83C00012830D0012084F861
:102070003C002162A284E28400252564212084F8AA
:102080003D00636B1348D863636B13481864636B3C
:102090001248D864606B134605652668606B321D74
:1020A000FEF748FD21686FF04000086084F83C505E
:1020B0002068143050E8001F41F0800140E8001211
:1020C000002AF5D1002070BDFFE70120FBE70220C8
:1020D000F9E700006F270008B127000889260008EB
:1020E000416B09680A6822F001020A60054900682C
:1020F0000968884204D10448017821F00201017086
:1021000070470000C8070020900300207047FEE7DA
:102110000D4808B5016841F4001101600068002213
:1021200000F40010009005210C20FEF7DFFE0C20CB
:10213000FEF7CEFE002205210E20FEF7D7FEBDE8F9
:1021400008400E20FEF7C4BE3038024010B58EB0F5
:102150001C220B496846FEF7E9F90021684600F0A9
:1021600055FD084C06491C2220611C3107A8FEF7CA
:10217000DDF9002107A800F049FD60610EB010BD37
:10218000A83600080000002070B586B0142168460B
:10219000FEF7FEF927480024016841F010010160B4
:1021A000016801F010010591016841F080010160B2
:1021B000016801F080010591016841F004010160AE
:1021C000016801F004010591016841F0020101601C
:1021D000016801F002010591016841F00801016008
:1021E000016801F008010591016841F001010160F9
:1021F0000068114E00F001000590002248F208012D
:102200003046FEF7CFFD082000900125CDE90154AE
:10221000694630460394FEF7C5FCE803009001AA26
:10222000112082E8310069463046FEF7BBFC06B05B
:1022300070BD00003038024000100240104810B558
:102240000E4901604FF48271416000218160C160DC
:102250004FF400720161C0E905121822C0E907219C
:10226000416281620A21C162FFF732F9002803D07E
:10227000BDE81040FEF7C7BA10BD000000380040AE
:10228000F00200201CB500240E4800940C49019473
:1022900001605321C0E901144FF6FF718461C160F0
:1022A000FFF7F8FA08B1FEF7AEFA00946946054860
:1022B0000194FFF7A7FA002801D0FEF7A4FA1CBD8D
:1022C00000140040480300200C4810B50A49016082
:1022D0004FF4E1314160002181600C22C160C0E90E
:1022E00004128161C161FFF7D7FD002803D0BDE86A
:1022F0001040FEF788BA10BD00480040C807002013
:10230000FEE7FEE738B504461248134B0068B0FB01
:10231000F3F04FF47A73584300906068B0F5827F11
:102320000DD10B46009200228021204600F022F8B9
:1023300070B1606D40F020006065032038BD0098EA
:1023400030B1401E009020688068C0430006F6D57A
:10235000002038BD3000002000366E0108B5009323
:1023600013460A4601460248FFF758F908BD000027
:10237000F00200202DE9F8431E46914688460446A7
:10238000089DFEF715FD401B351AFEF711FD0746A7
:1023900025480068C0F3CB30684338E0701C37D064
:1023A000FEF706FDC01BA84203D215B1009860B32A
:1023B0002CE02068416821F0E00141606068B0F5E0
:1023C000827F0BD1A068B0F5004F02D0B0F5806FCE
:1023D00004D12068016821F040010160A06AB0F5D5
:1023E000005F09D12068016821F400510160206874
:1023F000016841F400510160012084F8510000207F
:1024000084F850000320BDE8F8830025401E0090AA
:102410002068816838EA010004D000214945BDD117
:102420000020F0E70121F9E7300000200D4C0120E9
:1024300000F0E0FB2078C107F9D020F00100207007
:102440006188201D00F04AFB642000F0D3FB628805
:1024500005A10948FDF7E4FF82B207490748FFF7E5
:10246000F9FDE4E7900300204C656E206973202598
:1024700064200D0A00000000CC080020C8070020DE
:10248000DFF84480114C40F2E73600254FF4004756
:102490002068012807D10D4933461D310522481F08
:1024A0002560FFF75BFF39464046FEF773FC284680
:1024B000656005E0A06800F05BFB6068401C606040
:1024C000E1688842E4D2F5E70010024000000020F5
:1024D00010B5502080F31188BFF34F8FBFF36F8F7B
:1024E00001F014F818B104494FF080500860002042
:1024F00080F3118810BD000004ED00E030B593B00A
:1025000030216846FEF744F814210CA8FEF740F885
:102510001E480025016841F080510160006800F00C
:10252000805011901A48016841F4804101600068B0
:10253000022400F4804011900120009000040190DA
:102540008001CDE90640082008904FF4A870CDE93D
:10255000090404200B906846FEF704FE08B172B629
:10256000FEE70CA90F2081E831004FF4A0500F9036
:102570004FF48050109005210CA8FEF7E9FC0028CC
:1025800001D072B6FEE713B030BD00004038024003
:10259000007000400248016841F47001016070471A
:1025A00088ED00E00148FFF747BA0000CC090020A1
:1025B000F0B50268254C264D264E274F274B4FF08D
:1025C000804CA04209D0604507D0A84205D0B04257
:1025D00003D0B84201D0984204D122F0700E4A686C
:1025E00042EA0E02A0421BD0604519D0A84217D083
:1025F000B04215D0B84213D0984211D0184DA8421D
:102600000ED0184DA8420BD0174DA84208D0174D38
:10261000A84205D0164DA84202D0164DA84203D1BB
:1026200022F44075CA682A434D6922F080022A4389
:1026300002608A68C2620A688262A04201D098423F
:1026400001D10969016301214161F0BD0000014030
:102650000004004000080040000C0040000401405D
:102660000040014000440140004801400018004083
:10267000001C00400020004010B5806B0021C18587
:10268000C184FFF7D3FA10BD70B5846B2068406930
:1026900094F83D10C0F3C0100025212904D118B1D1
:1026A000E584204600F0B0F82068406994F83E10B8
:1026B000C0F38010222904D118B1E585204600F02E
:1026C0007CF8206C40F0100020642046FFF7AEFA42
:1026D00070BD10B50146806B09680968C9052FD423
:1026E0000021C18501680C3151E8002F22F480726D
:1026F00041E80023002BF5D10168143151E8002F87
:1027000022F0010241E80023002BF5D101681431C9
:1027100051E8002F22F0400241E80023002BF5D1C0
:10272000202180F83E10016B012909D101680C318C
:1027300051E8002F22F0100241E80023002BF5D1D0
:10274000016B012902D0FFF777FC10BD818DFFF7E7
:1027500034FA10BD10B5806B016B012902D0FFF770
:1027600077FC10BD818D4908FFF727FA10BD10B521
:102770000146806B09680968C90516D40021C18427
:102780000168143151E8002F22F0800241E8002353
:10279000002BF5D101680C3151E8002F42F04002C6
:1027A00041E80023002BF5D110BDFFF799FC10BDC7
:1027B00010B5806BFFF7AAFC10BD01680C3151E821
:1027C000002F22F4907241E80023002BF5D101681C
:1027D000143151E8002F22F0010241E80023002BC0
:1027E000F5D1016B012909D101680C3151E8002FA5
:1027F00022F0100241E80023002BF5D1202180F8BF
:102800003E1000210163704701680C3151E8002F30
:1028100022F0C00241E80023002BF5D1202180F8EE
:102820003D10704708B590F83E10222901D00220D3
:1028300008BD82684FF480539A4201D1016921B1E9
:10284000816A9A421BD04AB10AE00268816A5268E2
:10285000C2F308020A80816A891C08E0026972B129
:102860000268526802F07F020A70816A491C816224
:10287000C18D491E0904090CC18503D019E0026805
:102880005268F1E70168CA6822F02002CA60016854
:10289000CA6822F48072CA6001684A6922F00102A3
:1028A0004A61202180F83E10016B012903D0FFF717
:1028B000C3FB002008BD0021016301680C3151E811
:1028C000002F22F0100241E80023002BF5D101680F
:1028D0000A68D20602D50A6849680091818DFFF71F
:1028E0006CF9E6E770B5044600680169E26821F416
:1028F0004051114301612169A068E269084361699F
:10290000114308432168CA6849F20C639A430243A1
:10291000CA6020684169A26921F440711143416194
:1029200031492068884202D03049884202D1FEF7FE
:10293000D9FB01E0FEF7C6FBE269002319216425FB
:102940003226B2F5004F626828D0A0FB0101930F38
:102950009200FDF7EDFC0146B0FBF5F06FF01802B8
:10296000504301EB800006EB0010B0FBF5F000F0E7
:10297000F002B1FBF5F002EB0012B1FBF5F06FF0E5
:102980001803584301EB800006EB0010B0FBF5F094
:1029900000F00F0021681044886070BDA0FB0101A9
:1029A00092185B41FDF7C4FC0146B0FBF5F0020153
:1029B000B1FBF5F06FF01803584301EB800006EB14
:1029C000C000B0FBF5F000F0F80002EB4002B1FBF4
:1029D000F5F0584301EB800006EBC000B0FBF5F0CA
:1029E00000F00700D6E7000000100140001401408D
:1029F00038B581628285002513460446056422208D
:102A000084F83E00A26B1C48D063A26B1B48106484
:102A1000A26B1B48D064A06B0A4605652168A06BB9
:102A2000091DFEF787F8206801684068009084F867
:102A30003C50206948B120680C3050E8001F41F438
:102A4000807140E80012002AF5D12068143050E867
:102A5000001F41F0010140E80012002AF5D1206872
:102A6000143050E8001F41F0400140E80012002AF5
:102A7000F5D1002038BD0000D326000855270008F6
:102A80008926000881628285C28500210164222294
:102A900080F83E2080F83C10016921B10168CA68C5
:102AA00042F48072CA6001684A6942F001024A61D8
:102AB0000068C16841F02001C1600020704700003B
:102AC00010B5044800F01CF8BDE810400148FFF7BD
:102AD000AFB80000C8070020FEE70000064B30B486
:102AE0000A4619788C07FDD441F00201197001469D
:102AF00030BC0248FFF7AEBA90030020C8070020A0
:102B000038B5124C0168206881421DD10968C9435B
:102B1000C90619D40168406800902046FFF74EF8B6
:102B2000A06B00684068A4F58761C0F580604880AC
:102B300008784FF4806240F0010001F8040B204651
:102B4000BDE83840FFF74EBA38BD0000C807002086
:102B50000907090E002804DB00F1E02080F80014CA
:102B6000704700F00F0000F1E02080F8141D70475E
:102B700070B54FF6FA75094E281A84B2306844626F
:102B80003046FEF7C9FE306801E0416A8CB2AC42C3
:102B9000FBD3BDE870400148FEF73ABF4803002070
:102BA000FEF714F9FFF7AAFCFFF7EEFAFFF7B0FA09
:102BB000FFF768FBFFF742FBFFF786FB4FF48062ED
:102BC00007490848FFF70EFA06480068C16841F057
:102BD0001001C160FFF7BAFA00F013F8FEE7000039
:102BE00094030020C807002001460020842900D05B
:102BF000C81C704710B500B9012000F023FB00206D
:102C000010BD10B500F044FB002010BD7FB50D468F
:102C100004464169B0F9080081B1A16971B1FFF7BB
:102C2000E3FFD4E905128DE80700D4E900102B4634
:102C3000226900F040FC039004B070BDFFF7D4FFA0
:102C400003A9CDE90001208A2B4682B2D4E9001005
:102C500000F004FC012801D00020EDE70398EBE729
:102C60002DE9F041184C0F460546E6682068001D26
:102C700000F020FA38B9206890F82C100120884024
:102C8000216981432161681C07D137B12168BDE802
:102C9000F0410E48091D00F051BA20683544B54294
:102CA0004560216805D2A06BBDE8F041091D00F028
:102CB0002DBA606B091D00F029FAA06A854200D286
:102CC000A562BDE8F081000034000020F00A002079
:102CD0002DE9F041054600F03DFA2E4CA068401C5D
:102CE000A06020682C4F10B1606940B32DE02560D2
:102CF000A068012829D1002606EB860007EB80009A
:102D000000F0F6F9761C072EF6D323488C3000F03D
:102D1000EFF92148A03000F0EBF91F48B43000F083
:102D2000E7F91D48C83000F0E3F91B48DC3000F03B
:102D3000DFF919488C3060631430A06305E0206827
:102D4000E96AC06A884200D82560606A401C6062F7
:102D5000E96A0120226988401043206101EB81006B
:102D600007EB8000291D00F0E9F900F013FA606913
:102D700000280CD02068E96AC06A884207D2074957
:102D80004FF080500860BFF34F8FBFF36F8FBDE8E7
:102D9000F081000034000020140A002004ED00E05F
:102DA00010B5044690F8510058B101280CD0022803
:102DB0000FD0502080F31188BFF34F8FBFF36F8F78
:102DC000FEE7206B00F0FAF92046BDE8104000F065
:102DD000F5B910BD10484FF47051420706D0C01D20
:102DE0000D4920F00700411AC1F570510B4A00232C
:102DF0000144C2E900030839183A21F007011160C3
:102E00004B600B600B1AC0E9001393604FF0004059
:102E10005360506170470000040B002088000020C0
:102E2000144E154CA6F1C8074FF08058DFF84C90AF
:102E300012E000BF00F08EF9F068C568281D00F0B0
:102E400039F9A068401EA0606068401E606000F014
:102E5000A1F92846FFF7A4FF60680028EAD1386886
:102E60000128F9D9C9F80080BFF34F8FBFF36F8FE6
:102E7000F2E70000DC0A00203400002004ED00E04E
:102E80002DE9F0479A46DDE9098481466FF0030396
:102E9000206B03EB82021044089E20F0070778079E
:102EA00007D0502080F31188BFF34F8FBFF36F8F8F
:102EB000FEE7002561B1002023180A5C83F8342066
:102EC0000A5C12B1401C1028F6D384F8435001E08C
:102ED00084F83450072E00D30626E662C4E9116553
:102EE000201D00F010F904F1180000F00CF9246125
:102EF000C6F107006462A061E56484F85050524650
:102F00004946384600F0C0F82060B8F1000F01D003
:102F1000C8F80040BDE8F08730B5114900E011461F
:102F20000A688242FBD34B685C18844203D1406834
:102F300018444860084643681C18944209D1084C5C
:102F4000183C2468A24209D052681A4442600A68B8
:102F500012680260814200D0086030BD0460F9E769
:102F6000880000200648416B096829B1416BC96897
:102F7000C9684968816270474FF0FF31FAE7000085
:102F80003400002008484068401C4FF0500080F397
:102F9000118804D0BFF34F8FBFF36F8FFEE7BFF3ED
:102FA0004F8FBFF36F8FFEE7900000202DE9F041B7
:102FB0000546002700F0A2F9324E306808B9FFF745
:102FC00009FF706905424ED1C5B3083568070ED0B8
:102FD00005F00700C0F108000544680707D050203D
:102FE00080F31188BFF34F8FBFF36F8FFEE72DB3D0
:102FF0007068854237D82348183001460C6801E0D4
:1030000020460C466168A94202D221680029F7D106
:1030100031688C4227D007682168016060680837F2
:10302000411B10290FD96019420708D0502080F3A6
:103030001188BFF34F8FBFF36F8FFEE713E041603E
:103040006560FFF769FF61687068401A7060B26878
:10305000904200D2B060706901430020C4E90001D1
:10306000F068401CF06000F0B7FA780707D05020F5
:1030700080F31188BFF34F8FBFF36F8FFEE73846A1
:10308000BDE8F0817000002010B5031F4FF0807480
:103090001C601B1F21F001011960191F044B0B60FC
:1030A00014390A60091F6FF0020244380A6010BD2B
:1030B000852F0008D0E9013201699A60D0E9012327
:1030C0005A604A68824201D182684A6000220261E5
:1030D0000868401E0860086870470000034B0360E2
:1030E00003F1540008608020106070479C000020AD
:1030F00000F108014FF0FF32C0E90112C160016127
:1031000000210160704700210161704730B50B68F4
:103110005A1C02D000F1080202E0026904E02246D3
:10312000546825689D42FAD953684B6099608A605B
:10313000516008610168491C016030BD42684A6005
:1031400093688B6093685960916008610168491CBD
:1031500001607047502080F31188BFF34F8FBFF399
:103160006F8F0A494868401C486001280CD1084804
:10317000006810F0FF0F07D0502080F31188BFF3D4
:103180004F8FBFF36F8FFEE7704700009000002065
:1031900004ED00E00849486828B1401E486001D1AC
:1031A00080F311887047502080F31188BFF34F8F50
:1031B000BFF36F8FFEE700009000002070B500287D
:1031C0002AD0164DA0F1080460686969084207D149
:1031D000502080F31188BFF34F8FBFF36F8FFEE74E
:1031E00022683AB1502080F31188BFF34F8FBFF3AC
:1031F0006F8FFEE78843606000F080F86068696860
:10320000084468602046FFF787FE2869401C286153
:10321000BDE8704000F0E0B970BD00007000002013
:103220004FF0E02000210161816105494FF47A727D
:103230000968B1FBF2F1491E416107210161704744
:103240003000002010B5020014D00F48006B38B1D8
:10325000502080F31188BFF34F8FBFF36F8FFEE7CD
:1032600000F04CF800211046FFF7FAFC00F0B4F92A
:10327000002807D105494FF080500860BFF34F8FF9
:10328000BFF36F8F10BD00003400002004ED00E09C
:1032900010B586B00024039405AA04A903A80494D9
:1032A000FFF71CFFDDE903010094CDE901100023C5
:1032B0000EA11048059A00F0FEF80F490028C862D8
:1032C00011D0502080F31188BFF34F8FBFF36F8F61
:1032D0004FF0FF30886201204861CC6006B0BDE845
:1032E000104000F041B806B010BD000049444C4504
:1032F00000000000212E0008340000200248016B6D
:10330000491C016370470000340000201448016B21
:1033100011B10121C16170470021C1610169B1FA98
:1033200081F1C1F11F0101EB81020E4951F82230F8
:103330006BB101EB820101F108034A6852684A60EF
:103340009A4201D152684A60D168016070475020AA
:1033500080F31188BFF34F8FBFF36F8FFEE700003C
:1033600034000020140A00201CB537480168374A91
:10337000914207D1502080F31188BFF34F8FBFF3E4
:103380006F8FFEE700683149491E884207D15020FF
:1033900080F31188BFF34F8FBFF36F8FFEE72C4987
:1033A00008780190FF20087008788DF800009DF8DB
:1033B00000009DF8002000F0F000904207D050205F
:1033C00080F31188BFF34F8FBFF36F8FFEE79DF837
:1033D0000000204C00F0500020700720A06005E0A5
:1033E0009DF8002052008DF80020401E9DF800201E
:1033F0001206F5D4A060032807D0502080F311886E
:10340000BFF34F8FBFF36F8FFEE74FF44070A060A4
:10341000019808700C482030016841F47001016087
:10342000016841F070410160FFF7FAFE0020606022
:10343000FCF722FF0848016841F040410160FCF7B9
:1034400007FF00201CBD000000ED00E071C20F412D
:1034500000E400E09000002034EF00E02DE9FF5F81
:103460008346DDE90E87994616468A469000FFF7A7
:103470009DFD05001CD05420FFF798FD040014D0DA
:103480000020256384F85100CDE90240CDE9008792
:103490004B46324651465846FFF7F2FC2046FFF7AE
:1034A00017FC012004B0BDE8F09F2846FFF786FE18
:1034B0004FF0FF30F6E7F0B585B0DDE90B640A9D0B
:1034C000A6B1DCB1542700972663022684F8516028
:1034D000002604AFCDE90246CDE90057FFF7D0FC46
:1034E0002046FFF7F5FB049805B0F0BD502080F3AF
:1034F0001188BFF34F8FBFF36F8FFEE7502080F32B
:103500001188BFF34F8FBFF36F8FFEE72DE9F041B6
:103510002F4C0026206B28B1A069401CA0613046CA
:10352000BDE8F081E5686D1CE56013D1606B006853
:1035300038B1502080F31188BFF34F8FBFF36F8FE6
:10354000FEE7606BA16B6163A063206A401C206290
:10355000FFF708FDA06ADFF87C80854209D3606B25
:103560000068A0B1606BC068C7687868854211D2F6
:10357000A0622068C06A00EB800158F82100012891
:1035800000D90126E0690028C9D00126C7E74FF01D
:10359000FF30EDE7381DFFF78DFDB86A18B107F170
:1035A0001800FFF787FDF96A01202269884010435F
:1035B000206101EB810108EB8100391DFFF7BEFDA1
:1035C000F86A2168C96A8842C9D30126C7E70000A2
:1035D00034000020140A00202DE9F0472C4D00246F
:1035E0002746286B38B1FFF7B5FD286B401E2863CE
:1035F000286B40B146E0502080F31188BFF34F8F15
:10360000BFF36F8FFEE7A968224E0120D1B3A6F168
:10361000B40980463068E8B1F068C46804F1180065
:10362000FFF748FD201DFFF745FDE06A2A6908FA0B
:1036300000F11143296100EB800109EB8100211D9C
:10364000FFF77CFDE06A2968C96A8842E2D3C5F8C1
:103650001C80DFE70CB1FFF785FCAC6944B146463E
:10366000FFF754FF00B1EE61641EF9D10020A8619C
:10367000E86938B10849012738070860BFF34F8F60
:10368000BFF36F8FFFF786FD3846BDE8F087000077
:1036900034000020C80A002004ED00E04FF0407024
:1036A000E1EE100A704700000C3700082D240008D6
:1036B000000000000000000080000000000000008A
:1036C000000000000037000881240008FDFF000012
:1036D000000000008000000000000000000000006A
:1036E0000006101600061016000000000000000082
:1036F0000102030406070809000000000102030498
:103700006D795461736B303200000000646566614E
:10371000756C745461736B0038370008000000202A
:103720009C000000C4010008D43700089C00002061
:10373000CC4E0000E0010008000000000000000086
:10374000E803000010270000000000000000000057
:103750000000000000000000000000000100000068
:1037600010000000000000000024F4000000000031
:103770000000000000000000000000000000000049
:103780000000000000000000000000000000000039
:103790000000000000000000000000000000000029
:1037A0000000000000000000000000000000000019
:1037B0000000000000000000000000000000000009
:1037C000000000000000000000000000AAAAAAAA51
:0437D00000000000F5
:040000050800018965
:00000001FF
