:020000040800F2
:10000000686A002031030008492D0008171F000806
:100010002D22000825080008FD330008000000001C
:100020000000000000000000000000007102000855
:10003000FD08000800000000CD020008E92D0008BE
:100040004B0300084B0300084B0300084B03000858
:100050004B0300084B0300084B0300084B03000848
:100060004B0300084B0300084B0300084B03000838
:10007000290800084B030008350800084B03000856
:100080004B0300084B0300084B0300084B03000818
:100090004B0300084B0300084B0300084B03000808
:1000A0004B0300084B0300084B0300084B030008F8
:1000B0004B0300084B0300084B0300084B030008E8
:1000C0004B0300084B0300084B0300084B030008D8
:1000D0004B030008D93300084B030008F133000834
:1000E0004B0300084B0300084B0300084B030008B8
:1000F0004B0300084B0300084B0300084B030008A8
:100100004B0300084B0300084B0300084B03000897
:100110004B0300084B030008BD2E00084B030008EA
:100120004B0300084B030008410800084B0300087C
:100130004B0300084B0300084B0300084B03000867
:100140004B0300084B0300084B0300084B03000857
:100150004B0300084B0300084D0800084B03000840
:100160004B0300084B0300084B0300084B03000837
:100170004B0300084B0300084B030008000000007D
:100180004B0300084B03000800F002F800F061F890
:100190000AA090E8000C82448344AAF10107DA45E2
:1001A00001D100F056F8AFF2090EBAE80F0013F0D3
:1001B000010F18BFFB1A43F001031847A476000093
:1001C000C47600000A444FF0000C10F8013B13F015
:1001D000070408BF10F8014B1D1108BF10F8015BA0
:1001E000641E05D010F8016B641E01F8016BF9D193
:1001F00013F0080F1EBF10F8014BAD1C0C1B09D1EA
:100200006D1E58BF01F801CBFAD505E014F8016B5B
:1002100001F8016B6D1EF9D59142D6D370470000ED
:100220000023002400250026103A28BF78C1FBD8FF
:10023000520728BF30C148BF0B607047642900F0E7
:100240005981002070471FB507F084F91FBD10B514
:1002500010BD00F05EFA1146FFF7F5FF04F010F84C
:1002600000F07CFA03B4FFF7F2FF03BC00F084FA5D
:100270002C4B19680868B0E8F04F80F30988BFF389
:100280006F8F4FF0000080F311887047000000006E
:1002900008480068006880F308884FF0000080F389
:1002A000148862B661B6BFF34F8FBFF36F8F00DF64
:1002B00000BF00BF08ED00E0DFF80C00016841F46A
:1002C00070010160704700BF88ED00E0EFF3098026
:1002D000BFF36F8F134B1A681EF0100F08BF20ED8D
:1002E000108A20E9F04F106009B44FF0500080F3FD
:1002F0001188BFF34F8FBFF36F8F06F031FD4FF0C2
:10030000000080F3118809BC19680868B0E8F04F54
:100310001EF0100F08BFB0EC108A80F30988BFF3FD
:100320006F8F704718000020EFF3058070470000C2
:100330000948804709480047FEE7FEE7FEE7FEE779
:10034000FEE7FEE7FEE7FEE7FEE7FEE704480549B5
:10035000054A064B70470000AD2E000889010008D1
:1003600068620020686A00206866002068660020D5
:1003700053EA020C00F069802DE9F04B4FF00006C3
:10038000002B1FBFB3FA83F503FA05F424FA05F630
:100390005E4012BF1643B2FA82F502FA05F4C5F1C7
:1003A00020051EBF22FA05FC44EA0C04203556EA5B
:1003B000044C4FEA144418BF641C4FF000084FF07F
:1003C0000009904271EB030C39D3002919BFB1FA2F
:1003D00081F701FA07F6B0FA80F700FA07F6C7F1DD
:1003E00020071EBF20FA07FC46EA0C062037B6FBA2
:1003F000F4FCA7EB0507103F07F01F0BCBF120061D
:100400000CFA0BFB2CFA06F644BFB3460026202F4D
:10041000A4BF5E464FF0000B5BEA060C08BF4FF02E
:10042000010B19EB0B09ABFB027C48EB0608C01B68
:1004300006FB02CC0BFB03CC71EB0C01C1E70B46B6
:10044000024641464846BDE8F08B13B54FF0000028
:100450004FF00001AFF30080BDE81C407047000082
:100460000FB41CB5084B06AA7B446946009005985A
:1004700000F037F904460020694600F045F92046AF
:100480001CBC5DF814FB00009D0200002DE9F0414A
:100490000E460446002020622046E168884730B3BB
:1004A000252805D0D4E901219047206A401CF2E7B5
:1004B000E168204600278847050018D0A5F14100D3
:1004C000192802D820354FF40067324629462046C5
:1004D0002760FFF7B3FE40B1012804D0F61D26F0D7
:1004E00007060836D8E7361DD6E72846DAE7206A39
:1004F000BDE8F0812DE9F041064600241068752919
:10050000314616A510D0AFF30080002802DA404231
:1005100013A507E031688A0701D512A502E0490753
:1005200004D511A5012401E0AFF3008000210A22C7
:1005300006F1240709E0B0FBF2FCB0FBF2F302FB8A
:100540001C00303078541846491C0028F3D123464B
:100550002A463046BDE8F04100F064B800000000D3
:100560002D0000002B0000002000000010B5203AF4
:10057000C0F00B80B1E81850203AA0E81850B1E85C
:100580001850A0E81850BFF4F5AF5FEA027C24BF12
:10059000B1E81850A0E8185044BF18C918C0BDE809
:1005A00010405FEA827C24BF51F8043B40F8043BD2
:1005B00008BF7047D20728BF31F8023B48BF11F887
:1005C000012B28BF20F8023B48BF00F8012B7047E1
:1005D0004FF0000200B5134694469646203922BFDC
:1005E000A0E80C50A0E80C50B1F12001BFF4F7AF27
:1005F000090728BFA0E80C5048BF0CC05DF804EB09
:10060000890028BF40F8042B08BF704748BF20F876
:10061000022B11F0804F18BF00F8012B7047704774
:10062000704770472DE9F0470D46994692460446BB
:1006300000F124080168880604D5E06921F0100162
:10064000216000E00120A84201DD471B00E00027F7
:10065000A1697A1902EB0900081AA0612078C00686
:1006600002D42046AFF30080002608E0D4E901213F
:100670001AF806009047206A401C761C20624E45FE
:10068000F4DB2078C0060AD52046AFF3008006E0F0
:10069000D4E9012130209047206A401C2062381E96
:1006A000A7F10107F4DC07E0D4E9012118F80500FF
:1006B0009047206A401C2062281EA5F10105F3DC4A
:1006C0002046AFF300802078000602D50220BDE866
:1006D000F0870120FBE7000001694A1C02610878ED
:1006E000704700B58FB0CDE9013100210591054972
:1006F0007944CDE9031011466846FFF7C7FE0FB0F5
:1007000000BD0000E5FFFFFF0A6802F8010B0A6068
:100710007047754600F02CF8AE4605006946534612
:1007200020F00700854618B020B5FFF70FFEBDE8A2
:1007300020404FF000064FF000074FF000084FF048
:10074000000B21F00701AC46ACE8C009ACE8C009D9
:10075000ACE8C009ACE8C0098D46704710B5044646
:10076000AFF300802046BDE81040FFF77BBD0000DE
:10077000004870470462002001491820ABBEFEE724
:100780002600020070470000F0B5002426E0002695
:100790000123171B1CE000BF00EB8305D5ED000A09
:1007A00015ED010AF4EEC00AF1EE10FA0ED245ED95
:1007B000010A85ED000A01EB430631F813C036F853
:1007C000025C26F802CC21F8135001265B1CDBB238
:1007D0009F42E1DC002E03D0641CE4B29442D6D3E5
:1007E000F0BD0000F0B5002319E000250122CE1A6B
:1007F0000FE000BF00EB820750F822C057F8044C0E
:10080000A44504DA47F804CC40F822400125521CE4
:10081000D2B29642EEDC002D03D05B1CDBB28B42E1
:10082000E3D3F0BDFEE70000014800F0DBB80000B4
:1008300084110020014800F0D5B80000E411002028
:10084000014800F0CFB80000C4100020014800F0BB
:10085000C9B800002411002001681823CAB2103A58
:10086000B2FBF3F2054B6FF30901032A9B5CC365EE
:1008700000D9091D8165084670470000A075000871
:1008800010B5014600208B698A6A4FF0C07453B1DD
:10089000B3F5005F15D072B1012A0CD0022A0AD03C
:1008A000032A09D104E01AB1012A06D0022A03D191
:1008B000C96AC90100D5012010BDC96AA142FAD098
:1008C00010BD002AF7D0012AF2D0022AF3D0032A61
:1008D000F3D010BD30B50468256825F48025256067
:1008E000046863608368402B036803D099600068E4
:1008F000C26030BD9A600068C16030BD704772B69A
:10090000FEE700009FED070A074A082909D20228DE
:1009100007D3032805D202EB401000EB810090EDD5
:10092000BB0A704700000000A80000202DE9F0413C
:100930000446876D00F0CAFA064694F83500002593
:10094000022806D08020606584F834500120BDE87C
:10095000F0812068016821F016010160206841697A
:1009600021F080014161206C08B9A06C20B12068A1
:10097000016821F0080101602068016821F001018F
:1009800001600CE000F0A2FA801B052807D92020A6
:100990006065032084F8350084F83450D7E7206878
:1009A0000068C007EED194F85C103F208840B86022
:1009B000012084F8350084F834500020C7E790F80F
:1009C0003510022903D0802141650120704705219F
:1009D00080F835100068016821F0010101600020F5
:1009E000704700002DE9F84304464FF00009CDF8A8
:1009F000009063484FF41651A56D0068B0FBF1F705
:100A00002E6894F85C10082000FA01F131420FD0F2
:100A100021680A6852070BD50A6822F004020A60AE
:100A200094F85C108840A860606D40F0010060653B
:100A300094F85C104FF0010808FA01F0304208D039
:100A400021684969090604D5A860606D40F002007C
:100A5000606594F85C1004208840304208D021681A
:100A60000968890704D5A860606D40F004006065DE
:100A700094F85C1010208840304218D02168096832
:100A8000090714D5A86020680168490304D50068E7
:100A9000000308D5A16C07E00168C90503D401680B
:100AA00021F008010160216C09B12046884794F8C3
:100AB0005C1020208840304231D021680968C90686
:100AC0002DD5A86094F8350005282068016806D067
:100AD000490347D5006800031DD4616C1CE021F078
:100AE000160101602068416921F080014161206C9C
:100AF00008B9A06C20B12068016821F008010160EC
:100B000094F85C103F208840A86084F8358084F811
:100B10003490216D1FE0E16B09B120468847606D7C
:100B200000282BD0606DC00714D0052084F8350054
:100B30002068016821F0010101600098401C0090CC
:100B4000B84203D820680068C007F6D184F8358021
:100B500084F83490E16C002910D001B02046BDE843
:100B6000F04308470168C905D5D4016821F0100198
:100B7000016084F8358084F83490CCE7BDE8F883D0
:100B8000140000202DE9F041044600F09FF90646CC
:100B90005CB1022084F83500002584F834502068C8
:100BA000016821F0010101600DE00120BDE8F08144
:100BB00000F08CF9801B052805D9202060650320F2
:100BC00084F83500F2E720680068C007F0D1226899
:100BD000116820480140D4E901031843D4E90336E1
:100BE0003343184363691843A3691843E3691843FF
:100BF000236A18430843616A042903D1D4E90B131B
:100C000019430843106020684069666A20F00701B4
:100C100030460E43012704280CD1A06A0643E06A3F
:100C200040B12046FFF72CFE20B14020606584F8DB
:100C30003570BAE7206846612046FFF70DFE94F84C
:100C40005C203F2191408160656584F8357000200B
:100C5000ACE700003F8010F02DE9F0410446866DBE
:100C600090F83400002501280DD0012084F83400CC
:100C700094F835700020012F07D084F83400022545
:100C80002846BDE8F0810220FBE7022784F8357092
:100C900060652046FFF71EFE94F85C103F208840F8
:100CA000B0602068016841F016010160206C20B13D
:100CB0002068016841F0080101602068016841F086
:100CC00001010160DCE700002DE9F84FDFF8BCA16D
:100CD0000022012503264FF00F090AF1040BAAF1A7
:100CE000040E00BF0B6805FA02F42340A34270D142
:100CF0000F7907F00307012F01D0022F16D1876863
:100D00004FEA420806FA08FC27EA0C07D1F80CC0A3
:100D10000CFA08FC4CEA070CC0F808C04768A74367
:100D20000C79C4F3001494403C4344600C79E443D0
:100D3000A4070AD0C4684FEA420C06FA0CF7BC4379
:100D40008F6807FA0CF72743C7600C7904F0030497
:100D5000022C12D1D40800EB840CDCF82040570799
:100D6000FF0E09FA07F824EA0804D1F8108008FAFF
:100D700007F848EA0408CCF8208004684FEA420CDF
:100D800006FA0CF7BC430F7907F0030707FA0CF7D4
:100D9000274307604C6814F4403F70D03C4C2768F0
:100DA00047F480472760246822F0030704F4804456
:100DB0000094384C07EB040CDCF8084897074FEA1E
:100DC000177809FA08F7BC43334FB84202D100271D
:100DD00024E054E0314FB84201D101271EE0304FEA
:100DE000B84201D1022719E02E4FB84201D10327A2
:100DF00014E02D4FB84201D104270FE02B4FB84229
:100E000001D105270AE02A4FB84201D1062705E0A3
:100E1000284FB84201D1072700E0082707FA08F752
:100E20002743CCF80878DAF800405746D1F804C0D8
:100E30009C435FEACC2C00D51C433C60DBF80040AF
:100E40005F46D1F804C09C435FEA8C2C00D51C435C
:100E50003C60DEF800407746D1F804C09C435FEA6E
:100E60008C3C00D51C433C60084F083F3C68D1F8DF
:100E700004C09C435FEACC3C00D51C433C60521C40
:100E8000102AFFF42FAFBDE8F88F0000083C0140A6
:100E9000443802400030014000000240000402409B
:100EA00000080240000C0240001002400014024002
:100EB00000180240001C02400069084000D00120D8
:100EC00070470AB1816170470904FBE701488068F7
:100ED0007047000008000020024881680278114431
:100EE00081607047080000200B4810B5016841F48C
:100EF00000710160016841F480610160016841F4A2
:100F000080710160032000F09FF80F2000F006F8C8
:100F100000F050F8002010BD003C024030B50546FE
:100F20001F4887B00024016841F01001016000688B
:100F300006A900F01000009001A800F031F9049813
:100F4000A8B100F04DF940001649174AB0FBF1F185
:100F50001648491E026040F2E732C0E90324C0E9A6
:100F60000114846100F08CFB040003D015E000F054
:100F700037F9E9E70D4800F0C5FB04000DD1362034
:100F800000F034F8102D07D200222946362000F058
:100F90003BF80748056000E0012407B0204630BD5B
:100FA0004038024040420F0000100040441300202F
:100FB0000C0000200C4882B0016841F480410160BF
:100FC000006800F4804000900748001F016841F06D
:100FD000805101600068002200F0805000900F21D5
:100FE000901E02B000F010B844380240002809DB1F
:100FF00000F01F02012191404009800000F1E02033
:10100000C0F8001170470000F0B40E4B1B680C468E
:10101000C3F30223C3F10705042D00D90425191DCC
:10102000072901D2002300E0DB1E012606FA05F1A4
:10103000491E214099409E40761E16403143F0BC27
:1010400002F018BA0CED00E0064900F0070208684B
:101050004FF6FF03184040EA0220034A104308609D
:10106000704700000CED00E00000FA052DE9F047A4
:101070000E46050065D0DFF81481D8F80000F7B2FD
:1010800000F00700B04207D288F80070D8F80000DE
:1010900000F00700B04254D128683D4C810712D5BA
:1010A000400703D5206840F4E0502060287800070E
:1010B00003D5206840F4604020602068A96820F0D3
:1010C000F000084320602878C0072DD030496868B8
:1010D0000839012812D0022813D0032811D009683A
:1010E000890700292DDA216821F0030101432160DD
:1010F000FFF7ECFE814641F2883A0EE00968890369
:10110000EFE709688901ECE7FFF7E0FEA0EB0901D2
:10111000514502D90320BDE8F0872068696800F0D6
:101120000C00B0EB810FEFD1D8F80010404601F071
:101130000701B14207D90770006800F00700B0420C
:1011400001D00120E7E72878400705D52068E96845
:1011500020F4E050084320602878000706D5206876
:10116000296920F4604040EAC100206000F058F88E
:101170002168084AC1F30311515CC8400649086060
:1011800006480068FFF7CAFE0020C4E7003C0240A2
:1011900008380240A8750008140000200C00002048
:1011A0000F2202600C4A136803F0030343601368C4
:1011B00003F0F0038360136803F4E053C360126824
:1011C0004FF4E05303EAD20202610448006800F0E1
:1011D000070008607047000008380240003C0240E9
:1011E0000448054900680968044AC1F38221515C3A
:1011F000C84070471400002008380240B875000845
:101200000448054900680968044AC1F34231515C49
:10121000C84070471400002008380240B875000824
:10122000154810B5006810F00C02144813D0411096
:10123000042A0FD0082A0ED10F4C241F22682368DD
:1012400002F03F025B0207D52068C0F38810A0FBC4
:10125000010106E0084610BD2168C1F38811A1FB19
:1012600000010023FFF784F82168C1F30141491C04
:101270004900B0FBF1F010BD083802400024F40032
:101280002DE9F84F04006ED02078DFF84C93C007AA
:10129000A9F104054AD009F104000168C1F38101F4
:1012A000012908D00068C0F3810002280AD1D9F8CA
:1012B0000000400206D52868800337D56068002802
:1012C000E1D033E06068B0F5803F10D0B0F5A02FDA
:1012D000286810D020F480302860286820F480200E
:1012E00028606068A8B1FFF7F1FD06460DE02868A8
:1012F00040F48030F4E740F480202860F7E700BF36
:10130000FFF7E4FD801B642873D828688003F7D5B5
:101310000CE0FFF7DBFD064605E000BFFFF7D6FD5A
:10132000801B6428F0D828688003F7D42078DFF881
:10133000AC8280074FF0000A3ED5A748001D016827
:1013400011F00C0F08D00068C0F3810002280BD107
:10135000D9F80000400207D42868800716D5E06855
:10136000012800D112E033E1E068B8B10120C8F8EB
:101370000000FFF7ABFD064605E000BFFFF7A6FD46
:10138000801B0228C0D828688007F7D52868216903
:1013900020F0F80040EAC10028600DE0C8F800A085
:1013A000FFF794FD064604E0FFF790FD801B02283E
:1013B0001FD828688007F7D42078000722D5864FE9
:1013C00087486169703771B101210160FFF77EFDC7
:1013D000064604E0FFF77AFD801B022809D838682A
:1013E0008007F7D50EE0C0F800A0FFF76FFD0646B6
:1013F00005E082E0FFF76AFD801B02287DD838688F
:101400008007F7D42078400768D5DFF8CCB10027F3
:101410000BF13C0BDBF80000C0000BD4DBF8001034
:1014200041F08051CBF80010DBF80000012700F0FC
:10143000805000906B4E3068C00510D4306840F486
:1014400080703060FFF742FD009005E0FFF73EFD41
:101450000099401A022850D83068C005F6D55E4E73
:10146000A0686C3601280FD00528306810D020F015
:1014700001003060306820F004003060A068B8B12E
:10148000FFF724FD00900FE0306840F00100F4E722
:1014900040F004003060F7E7FFF718FD0099411AAB
:1014A00041F28830814266D830688007F4D50EE07A
:1014B000FFF70CFD009007E0FFF708FD0099411AC7
:1014C00041F28830814256D830688007F4D42FB179
:1014D000DBF8001021F08051CBF80010A069C8B3F0
:1014E0003D49091D0968C1F3810102294AD002283A
:1014F000504607D0C8F8600000E03CE0FFF7E6FC8B
:1015000004463BE04746C8F86000FFF7DFFC0646AC
:1015100005E000BFFFF7DAFC801B02282BD8286803
:101520008001F7D4D4E907010843A16A2E4A49088B
:1015300002EB0141626A41EA8211084394F82C10DF
:1015400040EA0161C9F8001001203866FFF7BEFCCF
:10155000044606E03EE000BFFFF7B8FC001B02288F
:1015600009D828688001F7D534E000BFFFF7AEFC4A
:10157000001B022802D90320BDE8F88F28688001EB
:10158000F4D427E00128F7D0D9F80000E26900F48C
:10159000800191421CD1226A00F03F01914217D193
:1015A00047F6C071626A0140B1EB821F10D1A26A96
:1015B0004FF0FF3300F4403103EB5202B1EB024F26
:1015C00006D194F82C1000F07060B0EB016F01D0E0
:1015D0000120D1E70020CFE7043802400000474255
:1015E000800E4742007000400000FFFF70477047C8
:1015F00070B590F83C20012A32D0012480F83C409C
:10160000022280F83D2003685A689D6822F0700627
:101610000A6832435A60134B02689A4214D0B2F1FE
:10162000804F11D0104B9A420ED0104B9A420BD0E3
:101630000F4B9A4208D00F4B9A4205D00E4B9A425C
:1016400002D00E4B9A4204D1496825F08003194319
:10165000916080F83D40002180F83C10084670BD44
:10166000022070BD0000014000040040000800405E
:10167000000C004000040140004001400018004000
:1016800010B5040003D094F83D0010B107E001202C
:1016900010BD002084F83C00204600F01FF8022016
:1016A00084F83D00211D206801F00EFC012084F823
:1016B000460084F83E0084F83F0084F8400084F837
:1016C000410084F8420084F8430084F8440084F820
:1016D000450084F83D00002010BD000008B50068FA
:1016E0000649884208D10648016841F0200101609E
:1016F000006800F02000009008BD000000140040C9
:101700004038024090F83D10012901D00120704777
:10171000022180F83D100168CA6842F00102CA60E7
:1017200000681149884214D0B0F1804F11D00F49A0
:1017300088420ED00E4988420BD00E49884208D00C
:101740000D49884205D00D49884202D00C49884293
:1017500004D1816801F00701062903D0016841F036
:1017600001010160002070470000014000040040BA
:1017700000080040000C004000040140004001400F
:1017800000180040704770B50446006801694FF0CA
:101790000005C943890715D4C168C943890711D415
:1017A000E91E0161012020772068806980072046BA
:1017B00002D0FFF7E7FF04E000F098F8204600F0C1
:1017C00096F8257720680169C943490717D4C1688D
:1017D000C943490713D46FF0040101610220207747
:1017E0002068806910F4407F204602D0FFF7CAFFCE
:1017F00004E000F07BF8204600F079F825772068B7
:101800000169C943090716D4C168C943090712D43D
:101810006FF008010161042020772068C06980070B
:10182000204602D0FFF7AEFF04E000F05FF820464C
:1018300000F05DF8257720680169C943C90617D40F
:10184000C168C943C90613D46FF0100101610820B3
:1018500020772068C06910F4407F204602D0FFF74F
:1018600091FF04E000F042F8204600F040F82577B0
:1018700020680169C943C90708D1C168C943C907BC
:1018800004D1891E0161204600F032F82068016908
:10189000C943090609D4C168C943090605D46FF0D4
:1018A000800101612046FFF7A1FE20680169C9435C
:1018B000490609D4C168C943490605D46FF04001FF
:1018C0000161204600F01EF820680169C9438906BD
:1018D0000BD4C168C943890607D46FF020010161A8
:1018E0002046BDE87040FFF782BE70BD704770476C
:1018F00000680349884201D1FFF7EEBA7047000043
:10190000001000407047704710B5044600684069F9
:1019100094F83D10C0F3C010212911D180B1206886
:10192000143050E8001F21F0800140E80012002A26
:10193000F5D1606B08B1FEF7F9FF204601F0F0FB2E
:101940002068406994F83E10C0F38010222911D11C
:1019500080B12068143050E8001F21F0400140E8B9
:101960000012002AF5D1A06B08B1FEF7DFFF204678
:1019700001F0AFFB002010BD70470000F8B5016812
:1019800004460868CA684B6910F00F0F4FF0000555
:101990005AD003F0010602F49077374365D0C107AF
:1019A00005D0D10503D5216C41F001012164410727
:1019B00005D5D90703D0216C41F0020121648107CC
:1019C00005D5D90703D0216C41F00401216401073A
:1019D00007D502F02001314303D0216C41F008010A
:1019E0002164216C00293BD0800604D5900602D5E5
:1019F000204601F0A3FB20684069216CC0F38010F1
:101A000001F00801014320462BD001F062FB206861
:101A10004069400621D52068143050E8001F21F0AD
:101A2000400140E80012002AF5D1A06BA8B16C4932
:101A30000165A06BFEF7C3FF002811D0A06B016DFC
:101A400001B0BDE8F040084783060ED593060CD5DB
:101A50002046BDE8F84001F071BB2046FFF78CFF3F
:101A6000F8BDFFF789FF2564F8BD266B2023012E02
:101A700079D1C60677D5D60675D50868486800902E
:101A80004869400640D5A16B086840680004000C16
:101A9000EAD0A28D8242E7D9E085C869B0F5807F9F
:101AA0002DD020680C3050E8001F21F4807140E8F0
:101AB0000012002AF5D12068143050E8001F21F0F0
:101AC000010140E80012002AF5D12068143050E8E6
:101AD000001F21F0400140E80012002AF5D184F8EF
:101AE0003E30256320680C3050E8001F21F01001C3
:101AF00040E80012002AF5D1A06BFEF717FFA08D79
:101B0000E18D401A81B229E0A08DE18D401A81B2A9
:101B1000E08D0028A8D00029A6D020680C3050E81D
:101B2000002F22F4907240E80026002EF5D12068A4
:101B3000143050E8002F22F0010240E80026002E69
:101B4000F5D184F83E30256320680C3050E8002F32
:101B500022F0100240E80023002BF5D12046FFF7C9
:101B6000D2FEF8BDFFE705062BD5150629D594F85A
:101B70003D002128F5D1A068B0F5805F01D1206932
:101B8000B0B1206A411C2162216800784860E08C75
:101B9000401E0004000CE084E3D12068C16821F0FD
:101BA0008001C1602068C16841F04001C160D8E790
:101BB000206A0088C0F308004860206A801C206208
:101BC000E5E74006CDD55006CBD5CA68204622F0C1
:101BD0004002CA6084F83D3000F086F9C1E7000099
:101BE000912F000870B5040004D094F83D00002542
:101BF00010B106E0012070BD84F83C50204600F092
:101C000023F8242084F83D002068C16821F40051A5
:101C1000C160204601F0F2FA2068016921F4904188
:101C200001612068416921F02A0141612068C16891
:101C300041F40051C1602564202084F83D0084F8FF
:101C40003E00002070BD00002DE9F04F87B0044633
:101C500014216846FEF7BCFCDFF86CC1022126683F
:101C60005A480322072300258F064FF4807A4FF04D
:101C7000400B4FF4806966454DD1544E1436D6F86A
:101C800000C04CF0100CC6F800C0366806F0100614
:101C90000596066846F002060660006800F002003D
:101CA0000590C0208DE8230069464948CDE903230B
:101CB000FFF70AF8484E4748C8463060C6E9017544
:101CC000C6E903597561C6E9065A35623046756240
:101CD000FEF758FF08B1FEF712FEA663B4633E4E4E
:101CE0003C4860367830C6E903587561B561F561E6
:101CF0003562756286E881083046FEF743FF08B119
:101D0000FEF7FDFD6663002205212520B463FFF781
:101D10007BF9252052E0DFF8C4C0664550D12B4E38
:101D20001036D6F800C04CF4802CC6F800C03668D7
:101D300006F480260596066846F0080606600068E8
:101D400000F0080005904FF440708DE823006946CC
:101D50002348CDE90323FEF7B7FF1F4E2148C036C5
:101D6000B8463060C6E90175C6E903597561C6E930
:101D7000065A35624F4630467562FEF703FF08B1DA
:101D8000FEF7BDFDA663B463174E1648C6E90357B8
:101D90007561B561F56135623030756286E80109BB
:101DA0003046FEF7EFFE08B1FEF7A9FD666300229C
:101DB00005212720B463FFF727F92720FFF716F93D
:101DC00007B0BDE8F08F000000100140303802403D
:101DD0000004024040640240C4100020004800405B
:101DE000000C024028600240E411002090F83E30D0
:101DF000202B0ED159B152B190F83C30012B08D0B4
:101E0000012380F83C300023036301F07DBA0120F8
:101E100070470220704790F83E30202B0ED159B108
:101E200052B190F83C30012B08D0012380F83C30AF
:101E30000023036301F0B2BA01207047022070470B
:101E40000449884204D1012234390248FFF7E3BF34
:101E5000704700003C1000207047000070B5044639
:101E600090F83D00202836D191B38AB394F83C0015
:101E7000012830D0012084F83C002162A284E28451
:101E800000252564212084F83D00636B1348D86346
:101E9000636B13481864636B1248D864606B134615
:101EA00005652668606B321DFEF7D6FE21686FF06F
:101EB0004000086084F83C502068143050E8001F4F
:101EC00041F0800140E80012002AF5D1002070BDE9
:101ED000FFE70120FBE70220F9E700008730000858
:101EE000C9300008A12F0008416B09680A6822F078
:101EF00001020A60054900680968884204D1044863
:101F0000017821F002010170704700003C100020B0
:101F1000040C00207047FEE770B5642405460129D3
:101F200011D001F063FC6320401EFDD1284601F072
:101F30006BFC611E491EFDD1284601F057FC641E52
:101F4000641EFDD170BD01F05FFC6320401EFDD119
:101F5000284601F04BFC611E491EFDD1284601F0C8
:101F600053FC641E641EFDD170BD000070B50346B5
:101F700000200246012906D002290AD0032906D0F2
:101F8000042907D101E0012204E0082202E0042232
:101F900000E00222082B15D2C3F1070101EBD17634
:101FA0000B4DC6F34703042BEC5C0BD226F001006B
:101FB000081A10F0FF0F06D004F00F0141EA0210DA
:101FC000E854012070BD04F0F0001043F8E7000071
:101FD00097000020194808B5016841F4001101601C
:101FE000016801F400110091016841F48001016071
:101FF0000068002200F48000009005210C20FFF70B
:1020000003F80C20FEF7F2FF002205210E20FEF758
:10201000FBFF0E20FEF7EAFF002205213A20FEF723
:10202000F3FF3A20FEF7E2FF002205214620FEF7EB
:10203000EBFFBDE808404620FEF7D8BF303802402D
:1020400010B58EB01C220B496846FEF78FFA0021AE
:10205000684602F017FA084C06491C2220601C3121
:1020600007A8FEF783FA002107A802F00BFA6060C8
:102070000EB010BD6875000800000020F0B587B0F4
:1020800014216846FEF7A4FA37480025016841F09C
:1020900010010160016801F010010591016841F033
:1020A00004010160016801F004010591016841F03B
:1020B00080010160016801F080010591016841F033
:1020C00008010160016801F008010591016841F013
:1020D00001010160016801F001010591016841F011
:1020E000020101600068214E00F002004FF67C04FE
:1020F0000590002221463046FEF7E3FE1C4F0022E9
:1021000042F205013846FEF7DCFE009401240194FA
:102110000294694630460394FEF7D6FD6003CDE98C
:10212000000469463846CDE90245FEF7CDFD05209D
:10213000CDE900040294694638460394FEF7C4FDD5
:1021400040F20340CDE90005694602943046FEF7AF
:10215000BBFD9F20CDE90005694602940548FEF7C6
:10216000B3FD07B0F0BD000030380240001002405F
:1021700000080240000C02401CB500240E480094E8
:102180000C49019401605321C0E901144FF6FF711D
:102190008461C160FFF774FA08B1FEF7B0FB0094E8
:1021A000694605480194FFF723FA002801D0FEF79D
:1021B000A6FB1CBD00140040BC0B00200C4810B551
:1021C0000A4901604FF4E1314160002181600C2235
:1021D000C160C0E904128161C161FFF703FD0028FD
:1021E00003D0BDE81040FEF78ABB10BD00100140CF
:1021F0003C1000200C4810B50A4901604FF4E13151
:102200004160002181600C22C160C0E9041281613B
:10221000C161FFF7E7FC002803D0BDE81040FEF7DE
:102220006EBB10BD0048004080100020FEE700009B
:102230000B48D0F80813491CC0F80813094909696C
:1022400000290BD0012907D0022903D00B2903D084
:102250000C2903D100F0ADBA00F024B8704700009B
:10226000A800002044040020D0F80813C822B1FBC5
:10227000F2F302FB131100290ED1B0F84E1341F016
:102280002001A0F84E1306490969012905D00B2940
:1022900002D10C2180F85F1370470221FAE7000099
:1022A0004404002010B5044600F018FA204600F05F
:1022B00050FA01280BD1B4F8041304F20120085C91
:1022C000A52804D12046BDE8104000F01DB910BD7E
:1022D0002DE9F05F0446B0F84E030023C2074FF02B
:1022E00001014FF0060C04F5827510D020F00100BA
:1022F000A4F84E0384F8041194F85F0384F80501F0
:1023000084F8061184F8071184F8081112E0820796
:1023100025D520F00200A4F84E0384F8041194F8A7
:102320005F0384F80501022084F8060184F8071190
:1023300084F8080184F85EC36146284604F5827477
:1023400001F0E4F894F85A12030A4A1C84F85A225D
:102350004B5594F85A124A1C84F85A22CDE047078C
:1023600004F209124FF01E061BD520F00400A4F859
:102370004E0384F8041194F85F0384F805010320E8
:1023800084F80601192184F8071184F808010C214A
:102390001046541F02F0B6FD314684F85A622846B2
:1023A000CEE706074FF0000924D520F00800A4F876
:1023B0004E0384F8041194F85F0384F805010420A7
:1023C00084F806011A2184F8071184F808010C2109
:1023D000104604F5827402F095FD94F85C0204F84E
:1023E0001D0F1F2184F83F9284F83D12284604F205
:1023F0003D2435E05FEAC0684FF03A0A04F5917772
:1024000004F599764FF03F0B35D520F01000A4F875
:102410004E0384F8041194F85F0384F80501052045
:1024200084F8060184F807A184F8080110460C21FD
:1024300004F5827402F066FD94F85C0204F81D0F46
:10244000384684F83F92082104F23D2402F08AFEC7
:102450003046082102F03EFD594684F800B0284677
:1024600001F054F82178030A4A1C22704B55217858
:102470004A1C227041E05FEA806840D520F02000CD
:10248000A4F84E031F480069012802D00B2806D18A
:1024900002E084F8041102E00B2084F8040194F8AF
:1024A0005F0384F8050184F806C184F807A184F865
:1024B00008C110460C2102F025FD94F8600384F851
:1024C000210184F860933846082102F04BFE304623
:1024D000082102F0FFFC594684F85EB3284601F05B
:1024E00015F894F85E13030A4A1C84F85E234B55D2
:1024F00094F85E134A1C84F85E234855012318465D
:10250000BDE8F09F44040020F0B5734C027900212F
:10251000457901232469022A23D00C2A48D10B2DA6
:1025200046D10B2C44D184790222862C40D1C47927
:10253000212C3DD100EB421500EB810405EB81021B
:10254000267A82F8EC62667A82F8ED62A67A82F8E0
:10255000EE62491CE47A89B282F8EF420829EBD393
:10256000B2E0012D24D1012C22D18479813C062CAA
:102570001ED2DFE804F0031E425C7690C379202B64
:1025800016D100EB421400BF00EB810204EB810383
:10259000157A83F8EC52557A83F8ED52957A83F8E0
:1025A000EE52491CD27A89B283F8EF220829EBD384
:1025B000F0BDC379202BFBD1002500EB421600BFF4
:1025C00006EB810200EB8103C2F8EC521C7A491C35
:1025D0002402C2F8EC425F7A89B23C442402C2F879
:1025E000EC429F7A3C442402C2F8EC42DB7A082990
:1025F0002344C2F8EC32E3D3F0BDC379202BFBD1E6
:1026000000EB421400EB810204EB8103157A83F89E
:10261000EC52557A83F8ED52957A83F8EE52491CC4
:10262000D27A89B283F8EF220829EBD3F0BDC479BE
:10263000212CFBD100EB421500EB810205EB81045C
:10264000167A84F8EC62567A84F8ED62967A84F809
:10265000EE62491CD27A89B284F8EF220829EBD3C2
:1026600032E0C479212CE1D100EB421500EB81026C
:1026700005EB8104167A84F8EC62567A84F8ED62F0
:10268000967A84F8EE62491CD27A89B284F8EF22F5
:102690000829EBD318E0C479212CC7D100EB4215EF
:1026A00000EB810405EB8102267A82F8EC62667AFF
:1026B00082F8ED62A67A82F8EE62491CE47A89B269
:1026C00082F8EF420829EBD300EB8101097A012956
:1026D000ACD180F86133F0BD4404002070B50446ED
:1026E000FFF7C2FD94F84C03012128B10025012811
:1026F0000DD002282AD11CE0B4F85203401C80B24D
:10270000A4F852030F2801D384F84C1370BD20465F
:10271000FFF7DEFD0128F9D1206894F85E2304F567
:102720008271436B9847022084F84C03A4F85453F9
:1027300070BDB4F85403421CA4F854233C2801D3C0
:1027400084F84C1394F806030128F1D184F84C5313
:1027500070BD2DE9F0410446002690F80603354689
:10276000012823D1002084F80603B4F80413C81EFE
:10277000FD281BD204F2022004F20322085C8A5CCA
:10278000891E02EB002087B204F5017000F0BEFE46
:10279000B84206D00AE060196D1C90F8041201716D
:1027A000ADB2B4F80403A842F5D801263046BDE81E
:1027B000F08110B5044600F0AFF82046FFF7C9FFDE
:1027C000012804D12046BDE8104000F001B810BD3A
:1027D0002DE9F0414F4B0446027910F8051F0127FF
:1027E0001B6904F11E0604F12E05012A09D00B2AEB
:1027F0007ED10C297CD10C2B7AD1A179062977D1F5
:1028000065E0022974D1022B72D1A17904F1090289
:1028100007297CD2DFE801F07B040F1A293E5B0018
:10282000E079012873D1207A012870D1B4F85803D7
:1028300040F0010069E0E079012868D1207A02289F
:1028400065D1B4F8580340F002005EE0E079192841
:102850005DD1207A03285AD10C21104604F0CCFA1D
:10286000B4F8580340F004004FE0E0791A284ED144
:10287000207A04284BD10C21104604F0BDFA94F8BC
:102880002100012801D184F86173B4F8580340F0A5
:1028900008003AE0E1793A2939D1217A052936D17F
:1028A0000C21001D04F0A8FA94F82100012801D1A0
:1028B00084F86173301D082104F0BCFA281D08213A
:1028C00004F07CFAB4F8580340F010001DE0E17900
:1028D0003A291CD1217A062919D10C21001D04F0B6
:1028E0008BFA94F82100012801D184F8617300E08B
:1028F0000DE0301D082104F09DFA281D082104F088
:102900005DFAB4F8580340F02000A4F85803BDE87D
:10291000F08100004404002070B5044690F856038E
:1029200018B10025012818D10BE0B4F85C03401C55
:1029300080B2A4F85C030F2802D3012084F8560368
:1029400070BD204600F00CF80128F9D1206894F8F9
:102950005E2304F58271436B984784F8565370BD2B
:102960002DE9F05FE84B044641790022B0F85803A6
:10297000D3F810A015465FEAC0784FF001074FF07A
:10298000200C4FF004090AF0FF0304F5827636D0DC
:1029900020F00100A4F8580384F8043184F805718C
:1029A000812084F8060184F807C104EB4117E8B2DE
:1029B00001F04AF907EB85006D1CADB280EDBB0A52
:1029C000082DF4D35FF0000007EB800104EB8002D8
:1029D00091F8EC3282F8083191F8ED3282F8093141
:1029E00091F8EE3282F80A31401C91F8EF1280B271
:1029F00082F80B110828E7D309EB8000C7E05FEAF3
:102A0000807847D520F00200A4F8580384F80431F8
:102A100084F80571822084F8060184F807C104EB6C
:102A20004117E8B201F010F907EB85006D1CADB25B
:102A300080EDBB0A082DF4D35FF0000007EB8001A6
:102A400091EDBB0ABDEEC00A10EE102A130E04EB86
:102A50008002401C82F8083191EDBB0A80B2BDEEC5
:102A6000C00A10EE103A1B0C82F8093191EDBB0A36
:102A7000BDEEC00A10EE103A1B0A82F80A3191ED41
:102A8000BB0A0828BDEEC00A10EE101A82F80B111E
:102A9000D4D3B1E75FEA407833D520F00400A4F83E
:102AA000580384F8043184F80571832084F8060102
:102AB00084F807C104EB4117E8B201F0C5F807EB51
:102AC00085006D1CADB280EDBB0A082DF4D300204B
:102AD00007EB800104EB800291F8EC3282F80831B8
:102AE00091F8ED3282F8093191F8EE3282F80A312C
:102AF000401C91F8EF1280B282F80B110828E7D33E
:102B00007AE75FEA00784FF000094FF0210C4CD5CE
:102B100020F00800A4F8580384F8043184F8057103
:102B2000842084F8060184F807C104EB4117E8B259
:102B300001F08AF807EB85006D1CADB280EDBB0A91
:102B4000082DF4D35FF0000007EB800104EB800256
:102B500091F8EC3282F8083191F8ED3282F80931BF
:102B600091F8EE3282F80A31401C91F8EF1280B2EF
:102B700082F80B110828E7D304EB800294F8601365
:102B800082F80811052184F8609301EB8000C1B23E
:102B900084F85E13304604F25E3400F0B7FC21780E
:102BA000030A4A1C22708B55A5E05FEAC0684FF00B
:102BB000060B42D520F01000A4F8580384F8043125
:102BC00084F80571852084F8060184F807C104EBB8
:102BD0004117E8B201F038F807EB85006D1CADB283
:102BE00080EDBB0A082DF4D35FF0000007EB8002F4
:102BF00004EB800192F8EC3281F8083192F8ED3262
:102C000081F8093192F8EE3281F80A31401C92F8CD
:102C1000EF2280B281F80B210828E7D304EB800172
:102C200094F8602381F8082184F8609394F8622373
:102C300081F809210BEB8000A9E75FEA80685FD586
:102C400020F02000A4F8580384F80431BAF1020FF0
:102C500003D0BAF10C0F07D102E084F8057102E04D
:102C60000B2084F805010221862084F8060184F8EF
:102C700007C104EB4117E8B200F0E6FF07EB85005F
:102C80006D1CADB280EDBB0A082DF4D35FF00000DF
:102C900007EB800204EB800192F8EC3281F80831F6
:102CA00092F8ED3281F8093192F8EE3281F80A316A
:102CB000401C92F8EF2280B281F80B210828E7D35C
:102CC00004EB800194F8602381F8082184F8609374
:102CD00094F8622381F809210BEB8000C1B284F8DB
:102CE0005E13304604F25E3400F010FC2278030AD2
:102CF000511C2170935521784A1C2270885501225D
:102D00001046BDE8F09F0000440400200D480C4927
:102D100000F5417201604A61911C0268916102688C
:102D200000F58271D161026800F501711162002124
:102D3000A0F8041380F806130068816A08470000B1
:102D4000E8080020A8000020FEE700000C4910B5AC
:102D50000B888C880989234419440A4B89B240F2B4
:102D6000E5741960024661430020C1F30B018A42F9
:102D700004D142F2CD00C3E90120012010BD0000C2
:102D8000105800200C040020012001F06FFBFBE72D
:102D90000E4C012001F06AFB2078C10713D020F00F
:102DA000010020706188201D00F052FB642001F0BA
:102DB0005DFB628806A10A48FDF752FB82B2084912
:102DC0000848FFF74BF800F07BFBE2E7040C00201B
:102DD0004C656E206973202564200D0A00000000F8
:102DE000441200208010002010B5502080F311887C
:102DF000BFF34F8FBFF36F8F04F00CF918B1044984
:102E00004FF080500860002080F3118810BD000052
:102E100004ED00E030B593B030216846FDF7D8FBF3
:102E200014210CA8FDF7D4FB1E480025016841F0D1
:102E300080510160006800F0805011901A480168CC
:102E400041F4804101600068022400F48040119048
:102E500001200090000401908001CDE90640082087
:102E600008904FF4A870CDE9090404200B9068463F
:102E7000FEF706FA08B172B6FEE70CA90F2081E84A
:102E800031004FF4A0500F904FF480501090052166
:102E90000CA8FEF7EBF8002801D072B6FEE713B0DD
:102EA00030BD000040380240007000400248016818
:102EB00041F470010160704788ED00E00148FEF7C1
:102EC00062BC000044130020F0B50268254C264D7A
:102ED000264E274F274B4FF0804CA04209D060452B
:102EE00007D0A84205D0B04203D0B84201D09842E2
:102EF00004D122F0700E4A6842EA0E02A0421BD0B2
:102F0000604519D0A84217D0B04215D0B84213D0AE
:102F1000984211D0184DA8420ED0184DA8420BD09F
:102F2000174DA84208D0174DA84205D0164DA8420B
:102F300002D0164DA84203D122F44075CA682A4334
:102F40004D6922F080022A4302608A68C2620A68E0
:102F50008262A04201D0984201D109690163012136
:102F60004161F0BD00000140000400400008004045
:102F7000000C0040000401400040014000440140BA
:102F80000048014000180040001C004000200040A4
:102F900010B5806B0021C185C184FEF7EDFC10BD2A
:102FA00070B5846B2068406994F83D10C0F3C01080
:102FB0000025212904D118B1E584204600F0B0F89D
:102FC0002068406994F83E10C0F38010222904D193
:102FD00018B1E585204600F07CF8206C40F0100028
:102FE00020642046FEF7C8FC70BD10B50146806B1A
:102FF00009680968C9052FD40021C18501680C3111
:1030000051E8002F22F4807241E80023002BF5D113
:103010000168143151E8002F22F0010241E8002339
:10302000002BF5D10168143151E8002F22F0400245
:1030300041E80023002BF5D1202180F83E10016BE0
:10304000012909D101680C3151E8002F22F010024A
:1030500041E80023002BF5D1016B012902D0FEF7D6
:10306000EFFE10BD818DFEF74EFC10BD10B5806BDC
:10307000016B012902D0FEF7EFFE10BD818D4908DA
:10308000FEF741FC10BD10B50146806B0968096868
:10309000C90516D40021C1840168143151E8002FFC
:1030A00022F0800241E80023002BF5D101680C31A9
:1030B00051E8002F42F0400241E80023002BF5D1F7
:1030C00010BDFEF711FF10BD10B5806BFEF722FF9B
:1030D00010BD01680C3151E8002F22F4907241E8D4
:1030E0000023002BF5D10168143151E8002F22F0A4
:1030F000010241E80023002BF5D1016B012909D120
:1031000001680C3151E8002F22F0100241E8002341
:10311000002BF5D1202180F83E100021016370477B
:1031200001680C3151E8002F22F0C00241E8002371
:10313000002BF5D1202180F83D10704708B590F89C
:103140003E10222901D0022008BD82684FF480532E
:103150009A4201D1016921B1816A9A421BD04AB1D8
:103160000AE00268816A5268C2F308020A80816A32
:10317000891C08E0026972B10268526802F07F029D
:103180000A70816A491C8162C18D491E0904090CBB
:10319000C18503D019E002685268F1E70168CA6886
:1031A00022F02002CA600168CA6822F48072CA60F4
:1031B00001684A6922F001024A61202180F83E102C
:1031C000016B012903D0FEF73BFE002008BD002162
:1031D000016301680C3151E8002F22F0100241E830
:1031E0000023002BF5D101680A68D20602D50A68CF
:1031F00049680091818DFEF786FBE6E770B50446CD
:1032000000680169E26821F44051114301612169BC
:10321000A068E26908436169114308432168CA68EC
:1032200049F20C639A430243CA6020684169A2696B
:1032300021F440711143416131492068884202D034
:103240003049884202D1FDF7DBFF01E0FDF7C8FFFE
:10325000E2690023192164253226B2F5004F626825
:1032600028D0A0FB0101930F9200FDF781F80146E1
:10327000B0FBF5F06FF01802504301EB800006EB55
:103280000010B0FBF5F000F0F002B1FBF5F002EB3E
:103290000012B1FBF5F06FF01803584301EB80000A
:1032A00006EB0010B0FBF5F000F00F0021681044B1
:1032B000886070BDA0FB010192185B41FDF758F8D2
:1032C0000146B0FBF5F00201B1FBF5F06FF0180319
:1032D000584301EB800006EBC000B0FBF5F000F0B6
:1032E000F80002EB4002B1FBF5F0584301EB80001F
:1032F00006EBC000B0FBF5F000F00700D6E70000D9
:10330000001001400014014038B58162828500251B
:10331000134604460564222084F83E00A26B1C4834
:10332000D063A26B1B481064A26B1B48D064A06BD7
:103330000A4605652168A06B091DFDF78DFC206814
:1033400001684068009084F83C50206948B12068CA
:103350000C3050E8001F41F4807140E80012002A50
:10336000F5D12068143050E8001F41F0010140E819
:103370000012002AF5D12068143050E8001F41F0F7
:10338000400140E80012002AF5D1002038BD0000BD
:10339000EB2F00086D300008A12F000881628285A4
:1033A000C28500210164222280F83E2080F83C1072
:1033B000016921B10168CA6842F48072CA6001687B
:1033C0004A6942F001024A610068C16841F0200187
:1033D000C16000207047000010B5044800F010F8EC
:1033E000BDE810400148FEF7C9BA00003C100020BB
:1033F0000148FEF7C3BA000080100020FEE700007D
:1034000038B5124C0168206881421DD10968C94352
:10341000C90619D40168406800902046FEF774FA86
:10342000A06B00684068A4F58761C0F580604880A3
:1034300008784FF4806240F0010001F8040B204648
:10344000BDE83840FEF7D2BC38BD00003C1000207B
:10345000064B30B40A4619788C07FDD441F00201BE
:103460001970014630BC0248FEF7F8BC040C00207D
:103470003C1000200907090E002804DB00F1E020C1
:1034800080F80014704700F00F0000F1E02080F891
:10349000141D7047094810B5017801290CD1416805
:1034A00040F6E442914207D30021017000F062FC33
:1034B000BDE8104003F0B2B910BD0000A00000202C
:1034C0000B4810B54168491C4160FFF7E3FF00F06D
:1034D000FDFD00F0A5FA012801D100F045FAFEF744
:1034E000A7FE02F0CDFFBDE8104000F06DBE000069
:1034F000A000002010B5002400212046FEF736FD74
:10350000641CE4B2082CF7D310BD000070B50C4D5C
:10351000FF22134605F5807606E000BF10F8014B48
:103520005C402B5D5340325D491EF7D24FF6FF7071
:1035300000EA022000F47F40184480B270BD000011
:10354000C07500082DE9F04137480025B0F8200289
:10355000082802D90020BDE8F081334C483CA0B1D6
:10356000401E60723048277A304ED0E993218B1A82
:10357000501A67B1012F1DD0022F2ED0032F3FD03C
:103580000020207201252846E5E70820E9E791425E
:1035900001D9192B03D29142F5D21928F3D3607ABD
:1035A000002300EB800006EB00110A224FF40C50C0
:1035B000143132E0914201D9192B03D29142E2D267
:1035C0001928E0D3607A002300EB800006EB00119D
:1035D0000A224FF4105028311FE0914201D9192BD3
:1035E00003D29142CFD21928CDD3607A002300EBC9
:1035F000800006EB00110A224FF408503C310CE029
:10360000914201D9192B03D29142BCD21928BAD3C5
:103610000749002301224FF4045003F0A5F9207A52
:10362000401C2072AFE70000EC040020205F002067
:103630000C07002070B500242DED028B25469FED70
:103640001E8A2646D8B1082816D8401EC0B200F0FF
:1036500077F800BF00EB85016D1CEDB24E630A2DBB
:10366000F8D3002100EB8102491C82ED218AC9B206
:1036700082ED2C8A0B29F5D3BDEC028B70BD204660
:1036800000F05EF80146002001EB8002401CC0B251
:1036900056630A28F8D3002001EB8002401C82ED1B
:1036A000218AC0B282ED2C8A0B28F5D3641CE4B2C7
:1036B000082CE4D3E0E700000000000030B5002152
:1036C000134C0A460B4680B108280DD8401EC0B2E4
:1036D00000EB800004EB001101EB4200521C8382DE
:1036E000D2B203850A2AF7D330BD01EB8102002054
:1036F00004EB021202EB4005401CAB82C0B22B85EA
:103700000A28F7D3491CC9B20929EED330BD0000FD
:10371000205F002000200549024600BF21F810204C
:10372000401CC0B20828F9D370470000605E00203A
:1037300003207047704770477047032070470000B0
:103740000549082806D200EB8001C1EB8010024930
:1037500001EB800108467047A4500020014890F812
:1037600061037047A800002010B500200B4A0146F5
:1037700040F2231302EB4104B4F858409C4207D0B6
:1037800002EB4100A0F8583002EB8100007E10BD32
:10379000491CC9B20429EDD310BD00004404002027
:1037A00000B502464FF47A7303E01846521E00F04B
:1037B00003F8002AF9D100BDD221484300E0401EA1
:1037C0000028FCD170470000064910B5064A31F8C0
:1037D000101052F82000FDF76FFB002800D00120E8
:1037E00010BD000030780008BC0800200449054ADC
:1037F00031F8101052F820000122FDF762BB0000E2
:1038000014780008840800200449054A31F8101093
:1038100052F820000022FDF754BB00001478000885
:103820008408002070477047704770477047002039
:103830007047000010B50023082A07D910BD00BF4B
:1038400030F8134021F813405B1CDBB29342F7D3EE
:1038500010BD000010B50023082A07D910BD00BF15
:1038600050F8234041F823405B1CDBB29342F7D36E
:1038700010BD00002DE9F04188B0DFF8BC800020C9
:1038800001466D4645F82010401CC0B20828F9D307
:10389000002601E0192E34D20024601DC0B2FFF7CB
:1038A000B3FF641CE4B2082CF7D30A20FFF784FFAF
:1038B0000024601DC0B2FFF799FF641CE4B2082C1D
:1038C000F7D30A20FFF778FF5FF00004671C55F874
:1038D0002400400045F82400F8B2FFF775FF55F8C2
:1038E0002410084445F82400FCB2082CEED3002430
:1038F000601DC0B2FFF788FF641CE4B2082CF7D348
:1039000002E01420FFF758FF761CF6B21B2EC1D33D
:103910005FF0000303EB8300C0EB831255F8231024
:1039200008EB820001F0E0FC5B1CDBB2082BF1D35A
:1039300008B0BDE8F0810000A450002070B500245C
:10394000084DFFF797FF00BF04EB8400C0EB841025
:1039500005EB800000F01AF9641CE4B2082CF3D3E4
:1039600070BD0000A45000202DE9F0472B4D00242D
:103970000327A9780120A0462646052904D2DFE8BE
:1039800001F003050F1A4200A87043E0601DC0B2A9
:10399000FFF72CFF641CE4B2082CF7D30220F3E7F6
:1039A000601DC0B2FFF730FF641CE4B2082CF7D3EF
:1039B000AF706E812EE0698940F28A22491C89B27B
:1039C0006981914202D36E81EE70DDE7DFF84C90A1
:1039D00009F10C0919F80400012805D1601CC0B2D6
:1039E000FFF7F2FE01280CD0641CE4B2082CF1D3DE
:1039F000E878411CE9700A280CD90420A870EE7000
:103A000008E0AF70FBE7FFF799FFAF706E81EE70D3
:103A10004FF001084046BDE8F0870000800000201C
:103A20002DE9F05F554D00242DED028BA146A888AD
:103A3000B0F5FA6F71D8401CA8802878DFF8408173
:103A40000127002608F1100B08280ED2DFE800F04D
:103A5000040E2290901A3069601DC0B2FFF7D4FEA8
:103A6000641CE4B2082CF7D32F7081E0601DC0B253
:103A7000FFF7BCFE641CE4B2082CF7D305202870C5
:103A8000EE8075E0E888401C80B2E8800A286FD993
:103A9000022069E0601DC0B2FFF7B6FE28F814608E
:103AA000641CE4B2082CF5D3062028702E815FE058
:103AB0002989AA46491C2981651CE8B2FFF784FEC2
:103AC00020B938F81410491C28F81410ECB2082C4E
:103AD000F2D3BAF8080040F28A215246884247D30E
:103AE0005178002044465B4634F810508C46322D05
:103AF00000EB40051D4401D36F5400E06E54401CA0
:103B0000C0B20828F0D30CF10101C8B250700328EC
:103B100004D307208AF800002AE027E08AF8006032
:103B200026E0BA46154F9FED178BD8460C3700207C
:103B300004EB4403014603EB0802535C491C1844A0
:103B4000C9B2C0B20329F8D303F080FB53EC182BA1
:103B500003F0CAFC02D807F804A000E03E55641C3C
:103B6000E4B2082CE3D30820287001E04FF00109EB
:103B7000BDEC028B4846BDE8F09F000080000020AD
:103B80007C500020CCCCCCCCCCCC004030B5044612
:103B90000020A17887B0012940D16D4604EB800157
:103BA000496845F82010401CC0B20728F6D3072109
:103BB0002846FCF717FE002020620220216A55F8F3
:103BC0002020401C1144C0B221620528F6D30846CB
:103BD000032190FBF1F16162D4F8E020002000BFE6
:103BE00004EB80035B6BDAB1994203DA401CC0B28C
:103BF0000A28F5D300EE901A04EB8000F8EEE00AF4
:103C000090ED210A20EE800AD0ED2C0A30EE800AD9
:103C1000D4ED390AC4ED3A0A84ED390A07B030BD53
:103C20009942E7DDE2E7000001460020054A082945
:103C300006D201EB8100C0EB811002EB8000406AEC
:103C400070470000A450002010B504462DED028BF3
:103C5000DFED188A1848B0EE688A806803F0DFFA52
:103C60009FED161B53EC112B03F040FB03F09AFA67
:103C700000EE100A1348082C0BD204EB8401C1EBB0
:103C8000841100EB8100D0ED390A90ED371A30EE47
:103C9000C18AB4EEC08AF1EE10FA01DBB0EE408AC0
:103CA0000948005D08B9B0EE688AB0EE480ABDEC7C
:103CB000028B10BD00000000440400209A999999DD
:103CC0009999F13FA45000208C000020F0B5244CBD
:103CD00000231A4603EB8300C0EB8310002104F895
:103CE000203004EB80008270C2700262C0F8242091
:103CF00000EB8105491CC9B26A600A29F8D3194D45
:103D0000002100BF00EB810755F82160FE654618D1
:103D1000491CC9B286F828200A29F3D300219FED57
:103D2000120ADFED120A00BF00EB8105491C85ED88
:103D3000210AC9B2C5ED2C0A0B29F5D301219FED4B
:103D40000C0A5B1C80ED370AC0F8E02080ED390AD0
:103D500080ED3A0ADBB24170082BBBD3F0BD000006
:103D6000A4500020C0770008124DA03AE1DA85C3C4
:103D70000000000010B511495FF0000000EB800268
:103D8000C2EB801201EB8202401C92ED390AC0B2F4
:103D900082ED370A0828F1D3FFF7BCFCFFF7AAFB36
:103DA0000020074A014600BF02EB4003401CC0B29E
:103DB000A3F858100428F7D310BD0000A450002029
:103DC0004404002070B5044600200346082A0AD99E
:103DD00070BD00BF34F9135031F91360B54200D003
:103DE00001205B1CDBB29342F4D370BD70B5044676
:103DF00000200346082A0AD970BD00BF54F823509A
:103E000051F82360B54200D001205B1CDBB2934225
:103E1000F4D370BD0D4908B5096800910C49002024
:103E200001F5137106C98A4202D9531A192B04D21B
:103E30008A4209D2891A192906D300230222694627
:103E4000842002F091FD012008BD0000E877000801
:103E5000EC040020104908B5096900910F490020C1
:103E60000969012902D13721ADF802100C4901F589
:103E7000137106C98A4202D9531A192B04D28A42F5
:103E800009D2891A192906D30023022269468420FF
:103E900002F06AFD012008BDE87700084404002014
:103EA000EC040020164908B5C968009115490020A6
:103EB000096902290AD003DC31B1012909D105E0E1
:103EC0000B2901D00C2904D1392100E03A21ADF8A9
:103ED00002100D4901F5137106C98A4202D9531A1D
:103EE000192B04D28A4209D2891A192906D3002330
:103EF00002226946842002F037FD012008BD00003F
:103F0000E877000844040020EC040020184908B5B4
:103F100089680091174900200A69022A0AD003DC47
:103F200032B1012A0BD105E00B2A01D00C2A06D1AF
:103F3000312102E0096BC1B13B21ADF802100E49FD
:103F400001F5137106C98A4202D9531A192B04D2FA
:103F50008A4209D2891A192906D300230222694606
:103F6000842002F001FD012008BD3721E5E70000B3
:103F7000E877000844040020EC040020184908B544
:103F8000C9690091174900200A69022A0AD003DC96
:103F900032B1012A0BD105E00B2A01D00C2A06D13F
:103FA000312102E0096BC1B13B21ADF802100E498D
:103FB00001F5137106C98A4202D9531A192B04D28A
:103FC0008A4209D2891A192906D300230222694696
:103FD000842002F0C9FC012008BD3721E5E700007C
:103FE000E877000844040020EC0400200D4908B5DF
:103FF000496900910C49002001F5137106C98A42F4
:1040000002D9531A192B04D28A4209D2891A1929C2
:1040100006D3002302226946842002F0A5FC012079
:1040200008BD0000E8770008EC0400200D4908B541
:10403000896900910C49002001F5137106C98A4273
:1040400002D9531A192B04D28A4209D2891A192982
:1040500006D3002302226946842002F085FC012059
:1040600008BD0000E8770008EC0400200D4908B501
:10407000496800910C49002001F5137106C98A4274
:1040800002D9531A192B04D28A4209D2891A192942
:1040900006D3002302226946842002F065FC012039
:1040A00008BD0000E8770008EC040020014600206D
:1040B000A1F10902022A06D201EB4100024901EBFB
:1040C000400010F8310C7047045800202DE9F041F1
:1040D00000F03CF81B4C0027012520781A4E0028E0
:1040E0004FF00A0003D0FFF7E1FF50B10AE0FFF7FD
:1040F000DDFF012806D12570A6F8145202F0A8F9B8
:1041000000E02770607800284FF0090006D0FFF724
:10411000CDFF002800D16770BDE8F081FFF7C6FF32
:104120000128F9D16570A07810F0010100F10100BB
:10413000A07004D00029EFD0A6F85852ECE7A6F8FA
:104140005652E9E794000020EC04002070B5104DB1
:10415000002400BF04EB440615F81600FFF734FBFB
:1041600005EB46010871CA78824209D18A78521C4F
:10417000D2B28A70322A05D332228A70487101E0A5
:1041800000228A70641CE4B2C870022CE2D370BDB5
:104190000458002030B500200A4B01465FF00105AD
:1041A00000F1090200EB4004401C03F8142003EB6B
:1041B0004402C0B29170D1701171517155700228D2
:1041C000EED330BD045800202DE9F0411B4B0020F8
:1041D000194A5B690146012B2BD1151D135C2C5C20
:1041E0009C4201D02B540121401CC0B20428F5D3BD
:1041F00001291ED1002400262F5DF8074FF0000092
:1042000002D0FFF7F3FA01E0FFF7FEFA7F08012181
:104210000320FDF781FE761CF6B2082EEDD3641C58
:10422000E4B2042CE7D3BDE8F04101210220FDF700
:1042300073BEBDE8F0810000970000204404002018
:1042400010B50020FFF7D2FA0120FFF7CFFA0220C5
:10425000FFF7DAFA0320FFF7D7FA0420FFF7D4FAC2
:104260000120FFF7C3FA00210420FDF755FE0121CC
:104270000220FDF751FEBDE810400120FFF7C4BA4F
:10428000FCF732FEFEF7C6FDFDF7F8FEFDF7A2FED5
:10429000FDF772FFFDF7AEFFFDF790FF4FF4806270
:1042A0000E490F48FDF7A2FD0D480068C16841F0B6
:1042B0001001C160FFF76EFFFFF7C2FFFFF706FDB9
:1042C00001F044F8FEF722FD00F034FE00F0D2FECB
:1042D000FDF7B6FE00F0D1F8FEE70000080C002064
:1042E0003C10002001460020842900D0C81C7047E3
:1042F0002DE9F05F5A4B002403F1800202F17005B2
:1043000002F1900A02F140062046082914D91CE067
:1043100032F91070FF2F0DD153F8207000EE107A93
:1043200005EB8407B8EEC00A87ED000A2AF81400EE
:10433000641CE4B2401CC0B28842E9D3012C04D909
:10434000224651462846FCF71FFADFF818B1002034
:1043500047F6FF7CFF276346B946002146E000BFD1
:1043600005EB81029BED0A0AD2ED000AF4EEC00AC9
:10437000F1EE10FA06DAB1EE401AF4EEC10AF1EEEF
:1043800010FA31D84A1CD2B2F1EE401A10E000BF48
:1043900005EB820898ED001AB4EEC01AF1EE10FA9F
:1043A00008DAB4EEE11AF1EE10FA03D9521CD2B2D7
:1043B000A242EDD3A14217D2A24215D205EB820848
:1043C00098ED000A70EE600A00EE103AB8EEC00AEE
:1043D000F4EEC00AF1EE10FA06D2BDEEE00A914604
:1043E0000F4610EE103A1BB2491CC9B2A142B7D316
:1043F000634530D0FF2F2ED0B9F1FF0F2BD004280A
:104400000FD23AF8192000EB4001521C26F8112077
:104410003AF8172006EB4101521C4A80401C8B8061
:10442000C0B29FED110A05EB8901042881ED000A55
:1044300005EB870181ED000A8CD3BDE8F09F00BF3A
:1044400000EB4002401C26F8121006EB4202C0B2FC
:104450005180918000E000210428F1D3EDE70000B5
:10446000005E0020440400200000000010B500B9E8
:10447000012002F011FC002010BD10B502F032FC4A
:10448000002010BD7FB50D4604464169B0F9080013
:1044900081B1A16971B1FFF725FFD4E905128DE85B
:1044A0000700D4E900102B46226902F088FD039032
:1044B00004B070BDFFF716FF03A9CDE90001208A03
:1044C0002B4682B2D4E9001002F04CFD012801D045
:1044D0000020EDE70398EBE7082809D80A2907D25E
:1044E000044B00EB800003EB001000EB4100028561
:1044F00070470000205F002030B508280DD80A2939
:104500000BD200EB80050548012400EB051020F8D4
:10451000114000EB41008282038530BD205F002006
:104520002DE9F04124480025B0F82002082802D9DE
:104530000020BDE8F081204C483C80B1401E6071F5
:104540001D4827791D4ED0E993218B1A501A47B187
:10455000012F19D00020207101252846E9E7082005
:10456000EDE7914201D9192B03D29142F5D21928D6
:10457000F3D36079002300EB800006EB00110A22E0
:104580004FF40C50143111E0914201D9192B03D290
:104590009142E2D21928E0D36079002300EB800039
:1045A00006EB00110A224FF41050283102F0DCF91A
:1045B0002079401C2071D0E7EC040020205F00200F
:1045C000082809D80A2907D2044B00EB800003EB26
:1045D000001000EB4100828770470000205F002040
:1045E0002DE9F84F284C9A468146DDE90B36208D9F
:1045F0000A9F904648B10025012815D0102824D0E4
:1046000011282FD02585BDE8F88F3346484600F0A5
:104610000FFA012806D0608D401C80B26085FA2810
:10462000F1D310202085EEE7720000234FF44050B4
:1046300002F032F90128E6D12585658532464146EA
:104640004846BDE8F84FFFF705B93A465146484697
:10465000009600F01BF8012802D025856585D2E779
:104660001120DFE70023324651464FF4445002F058
:1046700013F90128C7D12585324639465046BDE891
:10468000F84FFFF7D7B80000A40400202DE9FF4F32
:10469000A5480D462DED048B81B00021D0ED038A95
:1046A00090ED0A8ADFF87C92C06C129E9A460C4606
:1046B00009F12008012805D1B2EE040A68EE808ACB
:1046C00028EE008A082E7DD84FF0FF0B76E000BF61
:1046D0003AF91430DFB2B74246D205990598F1EEA7
:1046E000680A51F8241050F827000A1A00EE102A20
:1046F000B8EEC00AB4EEE00AF1EE10FA34DB00EED8
:10470000102AB8EEC00AB4EEE80AF1EE10FA2BD87F
:1047100000EE101AF8EEC00AB1EE480AF4EEC00A34
:10472000F1EE10FA08DD00EE901AF8EEE00AF4EE71
:10473000C80AF1EE10FA17D300EE900AF8EEE00A7C
:10474000F4EEC00AF1EE10FA08DD00EE100AB8EE41
:10475000C00AB4EEC80AF1EE10FA05D335F9141008
:1047600035F91700814227D0FF2B01D02AF814B069
:10477000082F05D23AF91700FF2801D02AF817B000
:1047800035F9140048B1C0B200F004FD0021204604
:10479000FDF7ECFB002025F81400082F0CD235F9AA
:1047A000170048B1C0B200F0F5FC00213846FDF713
:1047B000DDFB002025F81700641CE4B2B44287D367
:1047C000002700E0A7E03846B1EE489A26E000BF97
:1047D00035F8101001BB059951F8201000EE101AA1
:1047E000B8EEC00AB4EEC90AF1EE10FA08D300EE32
:1047F000101AB8EEC00AB4EEC80AF1EE10FA0BDDDA
:1048000000EE101A09EB8701B8EEC00A81ED000A2C
:1048100028F817007F1CFFB2401CC0B2B042D7D3AB
:104820003A4641464846FBF7AFFF00247F1E6AE048
:1048300008EB440018F8149090F802B0B14560D22B
:10484000B3455ED2059951F8291000EE101AB8EE62
:10485000C00AB4EEC90AF1EE10FA08D300EE101A3D
:10486000B8EEC00AB4EEC80AF1EE10FA49DD0598B8
:1048700050F82B0000EE100AB8EEC00AB4EEC90AD8
:10488000F1EE10FA08D300EE100AB8EEC00AB4EE4A
:10489000C80AF1EE10FA34DD081A00EE100AF1EE43
:1048A000680AB8EEC00AB4EEE00AF1EE10FA28DBAE
:1048B00000EE100AB8EEC00AB4EEE80AF1EE10FA03
:1048C0001FD8FEF751FF009025F81900009825F831
:1048D0001B002AF819B02AF81B90009838B10BF188
:1048E0000100C1B209F10100C0B201F0E7F9484688
:1048F0000099FDF73BFB58460099FDF737FB641C18
:10490000E4B2641CE4B2BC4292DB3246284607990A
:10491000FFF758FA014601B00846BDEC048B04B01D
:10492000BDE8F08F905E0020440400202DE9F041A6
:104930001B4E0F46054600242046FFF785F9306DD3
:1049400070B13168A1F5DA426C3A09D1DFED150A90
:1049500060EE200A00EE100AB8EEC01A80EE810A5E
:10496000F06CB8B1F2EE040A20EE200A07EB8401E5
:10497000BDEEC00A10EE100A45F82400001427F816
:10498000240035F82400641CE4B24880082CD3D3FA
:10499000BDE8F081F6EE000A30EE200AE6E70000FE
:1049A0004404002000007A442DE9F04100239046A1
:1049B0000E460746032A1ED24FEAC805F6EE000A45
:1049C000083DE818C4B219464046FBF79BFF30EE9D
:1049D000200A06EB84015B1CDBB2BDEEC00A10EEC0
:1049E000100A47F82400001426F8240037F82400A1
:1049F0004880082BE5D3BDE8F0812DE9F04106465B
:104A000000201C4617460D46082B0ED83046FFF7EF
:104A10008DFF022229463046FFF7C6FF224639465F
:104A20003046BDE8F041FFF7E1B9BDE8F081000094
:104A30002DE9F041064600201C4617460D46082B7E
:104A400019D80E49096989B1012914D1294630467E
:104A5000FFF76CFF022229463046FFF7A5FF2246EA
:104A600039463046BDE8F041FFF7C0B92946304627
:104A7000FFF75CFFF3E7BDE8F0810000440400208D
:104A80002DE9F041184C0F460546E6682068001DE8
:104A900002F03AF838B9206890F82C1001208840CC
:104AA000216981432161681C07D137B12168BDE8C4
:104AB000F0410E48091D02F06BB820683544B5423C
:104AC0004560216805D2A06BBDE8F041091D02F0E8
:104AD00047B8606B091D02F043F8A06A854200D216
:104AE000A562BDE8F08100001800002068140020D5
:104AF0002DE9F041054602F057F82E4CA068401C05
:104B0000A06020682C4F10B1606940B32DE0256093
:104B1000A068012829D1002606EB860007EB80005B
:104B200002F010F8761C072EF6D323488C3002F0E2
:104B300009F82148A03002F005F81F48B43002F00F
:104B400001F81D48C83001F0FDFF1B48DC3001F0C2
:104B5000F9FF19488C3060631430A06305E02068C9
:104B6000E96AC06A884200D82560606A401C6062B9
:104B7000E96A0120226988401043206101EB81002D
:104B800007EB8000291D02F003F802F02DF86069A0
:104B900000280CD02068E96AC06A884207D2074919
:104BA0004FF080500860BFF34F8FBFF36F8FBDE8A9
:104BB000F0810000180000208C13002004ED00E0BC
:104BC00010B5044690F8510058B101280CD00228C5
:104BD0000FD0502080F31188BFF34F8FBFF36F8F3A
:104BE000FEE7206B02F014F82046BDE8104002F00A
:104BF0000FB810BD10484FF47051420706D0C01DC9
:104C00000D4920F00700411AC1F570510B4A0023ED
:104C10000144C2E900030839183A21F00701116084
:104C20004B600B600B1AC0E9001393604FF000401B
:104C300053605061704700007C1400206C0000201D
:104C4000144E154CA6F1C8074FF08058DFF84C9071
:104C500012E000BF01F0A8FFF068C568281D01F050
:104C600053FFA068401EA0606068401E606001F0B5
:104C7000BBFF2846FFF7A4FF60680028EAD1386828
:104C80000128F9D9C9F80080BFF34F8FBFF36F8FA8
:104C9000F2E70000541400201800002004ED00E0AA
:104CA0002DE9F0479A46DDE9098481466FF0030358
:104CB000206B03EB82021044089E20F00707780760
:104CC00007D0502080F31188BFF34F8FBFF36F8F51
:104CD000FEE7002561B1002023180A5C83F8342028
:104CE0000A5C12B1401C1028F6D384F8435001E04E
:104CF00084F83450072E00D30626E662C4E9116515
:104D0000201D01F02AFF04F1180001F026FF2461A4
:104D1000C6F107006462A061E56484F85050524611
:104D20004946384600F0C0F82060B8F1000F01D0C5
:104D3000C8F80040BDE8F08730B5114900E01146E1
:104D40000A688242FBD34B685C18844203D14068F6
:104D500018444860084643681C18944209D1084C1E
:104D6000183C2468A24209D052681A4442600A687A
:104D700012680260814200D0086030BD0460F9E72B
:104D80006C0000200648416B096829B1416BC96875
:104D9000C9684968816270474FF0FF31FAE7000047
:104DA0001800002008484068401C4FF0500080F375
:104DB000118804D0BFF34F8FBFF36F8FFEE7BFF3AF
:104DC0004F8FBFF36F8FFEE7740000202DE9F04195
:104DD0000546002701F0BCFF324E306808B9FFF7E6
:104DE00009FF706905424ED1C5B3083568070ED07A
:104DF00005F00700C0F108000544680707D05020FF
:104E000080F31188BFF34F8FBFF36F8FFEE72DB391
:104E10007068854237D82348183001460C6801E095
:104E200020460C466168A94202D221680029F7D1C8
:104E300031688C4227D007682168016060680837B4
:104E4000411B10290FD96019420708D0502080F368
:104E50001188BFF34F8FBFF36F8FFEE713E0416000
:104E60006560FFF769FF61687068401A7060B2683A
:104E7000904200D2B060706901430020C4E9000193
:104E8000F068401CF06002F02BF9780707D0502042
:104E900080F31188BFF34F8FBFF36F8FFEE7384663
:104EA000BDE8F0815400002010B5031F4FF080745E
:104EB0001C601B1F21F001011960191F044B0B60BE
:104EC00014390A60091F6FF0020244380A6010BDED
:104ED000A54D000830B500220C290FD8084B0BE077
:104EE00033F8124000EB4205240A00F8124013F890
:104EF0001240521C6C70D2B28A42F1D330BD000015
:104F0000605E002030B500220C290FD8084B0BE062
:104F100033F8124000EB4205240A00F8124013F85F
:104F20001240521C6C70D2B28A42F1D330BD0000E4
:104F3000C05E00202DE9F047ADF5B16D40F284511F
:104F40006846FBF745FB00273C4640F26112694684
:104F50004748FEF7F0FB4FF4B0616846DDF8805536
:104F6000FEF7D4FAA8427ED1EA46F8B2FEF7E8FB93
:104F7000814604F10A0000261FFA80F809F1340581
:104F800012E000BF5AF8241002C55AF82400C117D5
:104F900000EBD150314640F34F22761CF6B2F8B206
:104FA000FFF79AFA641CA4B240464445EAD30026AF
:104FB00004460A301FFA80F809F15C050EE000BFD4
:104FC0005AF8241002C53AF82400314602B2761C81
:104FD000F6B2F8B2FFF7F4FA641CA4B240464445B6
:104FE000EED301460B3080B209F18402534607E04C
:104FF00003EB8104491C94ED000A89B2A2EC010A7A
:105000008142F5D300F10B0189B209F1B00207E04A
:1050100003EB8004401C94ED000A80B2A2EC010A6C
:105020008842F5D3481C80B209F1DC0208E000BFD9
:1050300003EB8104491C94ED000A89B2A2EC010A39
:105040008142F5D3411C8CB209F1E00105E00AE090
:1050500053F82020401C04C180B2A042F8D37F1C2A
:10506000BFB2082F81D30DF5B16DBDE8F087000008
:1050700000F0030870B598B060216846FBF7A8FA05
:105080000024182269463448FEF755FB5C21684627
:10509000179DFEF73BFAA8425CD1304A009869465A
:1050A00010602F48019A0260029A4260039A82605F
:1050B0009DED040A80ED030A059A0261069A426199
:1050C00007220B2351F8225000EB8406641C521C6B
:1050D00092B2E4B2B5619A42F4D301EB8203521C5E
:1050E00093ED000A92B280ED0A0A51F82230521C68
:1050F00092B2C36251F82230521C92B2036351F84B
:105100002230521C92B2436351F82230521C92B2A8
:10511000836351F82230521C92B2C36351F822309B
:10512000521C92B2036451F82230521C92B2436472
:1051300051F82230521C92B2836451F82230521C32
:1051400092B2C36451F82230521C92B2036551F8F6
:105150002210416518B070BD00E003081004002063
:105160004404002030B500220C290FD8084B0BE076
:1051700033F8224000EB4205240A00F8124013F8ED
:105180002240521C6C70D2B28A42F1D330BD000072
:10519000005E0020084A002102EB81039B698342E4
:1051A00005D102EB41010020A1F858007047491CCD
:1051B000C9B20429F0D37047440400202DE9F0411E
:1051C0001E4C1D4F04F1480094F80AC0D0E99332F8
:1051D0000025D61A981AA7F12001BCF1000F08D0BB
:1051E000BCF1010F15D00020A07201252846BDE8B2
:1051F000F0819A4201D9192E03D29A42F6D2192887
:10520000F4D3002310224FF4405001F0ADFB0120F5
:105210000FE09A4201D9192E03D29A42E6D21928F8
:10522000E4D30023082239464FF4445001F09CFB9C
:105230000220A072DAE70000605E0020A4040020D3
:105240002DE9F04126480025B0F82002082802D9AF
:105250000020BDE8F081224C0027483C90B1E0716D
:105260001F4894F806C01F4ED0E993218B1A501A9C
:10527000BCF1000F08D0BCF1010F18D0A7710125B7
:105280002846E6E7E771EBE7914201D9192B03D2F3
:105290009142F5D21928F3D3E079002300EB800086
:1052A00006EB00110A224FF40C50143111E0914228
:1052B00001D9192B03D29142E2D21928E0D3E07927
:1052C000002300EB800006EB00110A224FF410507F
:1052D000283101F049FBA079401CA071D0E7000003
:1052E000EC040020205F0020C278072A03D30022AC
:1052F000C27001228270C278B1F1807F00EB82021D
:1053000001D3A1F100715160C178491CC17070478F
:105310000D4910B50B48096971B1022908D001295E
:1053200003D00C2904D00B290AD10821FEF7E0FF95
:10533000BDE8104000F0BABEBDE8104000F0D6BD98
:1053400010BD0000A80000204404002030B4214813
:105350000022214B427043600272427200F20A2422
:105360005C61A31C44681146A361446800F10A0310
:10537000E36144682362A0F80A1280F80C124FF629
:10538000FF73A0F80E32A0F81012A0F81212A0F8C5
:105390001E125823A0F82032A0F82212A0F81A12E8
:1053A0000E4900BF51F8223000EB8204521CD2B2E9
:1053B000C4F824320A2AF5D30021094BFF2200BF8A
:1053C00023F81120491CC9B20829F9D34068816A21
:1053D00030BC0847EC04002028090020C0770008F2
:1053E000805E002038B51E4A01460020926A009275
:1053F0001C4A136C5C1E632C06D8BDF80240E4B254
:1054000044EA0323ADF802300F2908D1BDF8023079
:1054100092F84420DBB243EA0222ADF802200F22C8
:10542000B1FBF2F302FB1311012202EB0121ADF8F3
:1054300000100D4901F5137106C98A4202D9531AA9
:10544000192B04D28A4209D2891A192906D30023BA
:1054500002226946A02001F087FA012038BD000031
:10546000E877000844040020EC0400202DE9F04710
:10547000374C00252F4694F80C022E46012865D1A2
:10548000A07A5A285FD1E07AA5285CD1B4F80A1234
:10549000062949D3207BC91E814245D1627B802ADF
:1054A00042D02146812A91F80F80897B04D0822A3C
:1054B0003AD0832A38D110E0C01E404534D10E4680
:1054C00008E0E019017CF019C0B200F011FA0543C0
:1054D0007F1CBFB24745F4D326E0277C001F00EBBA
:1054E000D070B7EB600F1FD14FF6FF7202EA0120B8
:1054F00000F47F4040441FFA80F8914612E000BF5C
:1055000004EB4600417C807C09EA012101F47F41E3
:10551000084481B208EB060080B200F0F5F90543BB
:10552000761CB6B2BE42EBD3D4F84C0241F28831BD
:10553000884208D9E80702D000F0BAFF01E0A807C6
:1055400001D501F04BF8002084F80C02BDE8F0878B
:10555000EC04002070B5714EF06A012807D1306963
:1055600018B1012801D00B2801D100F0DDF86C4CF6
:105570002078122806D000F0EFFD012801D112207A
:10558000207070BDB4F856020025012845D0B4F84B
:105590005802012848D0B4F8540201284BD0B4F87E
:1055A0005A0201284ED0B4F86202012851D0B4F852
:1055B0006402012854D0B4F86602012857D0B4F828
:1055C0005C0201285BD0B4F8600201285ED0B4F818
:1055D0005E02012861D0B4F81C02012864D0B4F83E
:1055E0001802012867D0B4F8160201286AD0B4F86E
:1055F000140201286DD0FEF7B1F8012869D049489E
:105600000068A0F50051CD39BBD13069022879D0AE
:105610006EDC98B301287DD171E0FEF707FD00280C
:10562000AFD0A4F8565270BDFEF7A8FC0028FAD0FF
:10563000A4F8585270BDFEF7D9FC0028FAD0A4F89F
:10564000545270BDFEF7E6FB0028FAD0A4F85A5277
:1056500070BDFEF70BFD0028FAD0A4F8625270BDB1
:1056600000F04EFD0028FAD0A4F8645270BD00F09E
:10567000ADF80028FAD0A4F8665270BD3FE0FEF7FE
:1056800045FC0028F9D0A4F85C52F6E7FEF7E2FBEF
:105690000028F2D0A4F86052EFE7FEF703FC0028E0
:1056A000EBD0A4F85E52E8E7FDF74CFF0028E4D009
:1056B000A4F81C52E1E7FFF7C3FD0028DDD0A4F8F1
:1056C0001852DAE7FEF72CFF0028D6D0A4F81652BD
:1056D000D3E7FEF74FFB01F0A1F8FFF76FFD0028BD
:1056E000CBD0A4F81452BDE87040002000F0AABE50
:1056F0000B280AD00C280DD10AE003E00AE000F0E4
:1057000081FB07E000F098FB04E000F0F3FA01E011
:1057100000F042FBBDE87040FFF7FABD44040020F2
:10572000EC040020140400202DE9F041264C002553
:105730002046277D808E0522411C4FF461734FF473
:105740007A7689B2092F3CD2DFE807F00510181DE0
:105750002327292F31001C4A1732511E481E00F002
:1057600071FA012808D1207D401C1CE0607D0BE00F
:10577000207D401C2075A586BDE8F081A186984259
:10578000FAD92275F8E70D20FFF72CFE0128EFD09B
:10579000F2E7A186B042F4D8EEE7A07DF4E7A18657
:1057A0009842E9D907202075E6E7E07DECE7A1867D
:1057B000B042E1D909202075BDE8F0410F20FFF784
:1057C00011BE2575D8E70000A40400202DE9F041A2
:1057D0004348444C0026B0F84C00354603B22046FE
:1057E0006384B0F92E20B0F93010408EB4F91E70E9
:1057F000801D00B22FB1012F39D0E5833046BDE8BE
:10580000F081384FDFF8E0C0002BB7F920704FEA85
:10581000E77E07EB5E7E2EF0070EA7EB0E070CEB84
:10582000470C07EB4707BCF800301A44A28410D09D
:105830002D4A703202EB870202EB4101E163E08402
:1058400082B2A08C002380B201F026F8012803D098
:1058500005E0254A1032EDE7208C401C2084B4F985
:1058600020000828CADB25840120E083C6E71D4FFD
:10587000DFF870C0002BB7F920700CF1400C4FEA34
:10588000E77E07EB9E7E2EF0030EA7EB0E070CEBD8
:10589000470C07EB4707BCF800301A44A28410D02D
:1058A000124A00BF02EB870202EB4101E163E08490
:1058B00082B2A08C002380B200F0EEFF012803D05A
:1058C00005E00A4A303AEDE7208C401C2084B4F908
:1058D0002000042892DB2584E58301268EE7000062
:1058E00044040020A4040020540700205408002091
:1058F0000300044A4FF0000002D1117201215170DF
:1059000070470000EC0400202DE9F047CB4C002646
:105910004FF6FF79A4F80E0208B2A4F81202B4F808
:105920000E123546494574D0A1F58052012341F24B
:105930001507132A1ED9173A1CD0521E1AD0B2F5D9
:105940009F6217D0A1F58052163A13D0B94211D0F8
:10595000921C0FD0083A0DD0521E0BD0521E09D007
:1059600041F20312914275D180B2904201D1A4F864
:1059700060325DE1A1F58055153DB04EB04AB942A7
:1059800057D017DC41F20D07A1EB0705B94241D012
:1059900009DCB1F5805F2FD0EB1C2FD0012B2FD06D
:1059A000022B19D12EE0012D36D0062D36D0072D31
:1059B00012D13AE0072D44D006DC012D3BD0022D58
:1059C0003BD0032D08D13AE0082D3FD0092D3FD020
:1059D000A5F58065FB3D0CD0A1F580530F3B032B53
:1059E00005D802EB8101A1F5A041C1F8DC0F022628
:1059F0001EE1FDF7ABF9FAE71060F8E75060F6E753
:105A00009060F4E700EE100AB8EEC00A82ED030AD7
:105A1000EDE70FE11061EAE75061E8E700EE100AF8
:105A2000B8EEC00A82ED0A0AE1E79064A6F8643293
:105A3000DDE75064DBE71064D9E7D062D7E7106395
:105A4000D5E7D064A6F86632D1E703E01065CEE76B
:105A50005065CCE741F20212914205D180B29042EA
:105A600001D1A4F85E32E3E041F20112914205D186
:105A700080B2904201D1A4F85C32D9E0B1F5045F64
:105A800015D042F2011740F2E572B94223D180B23B
:105A900090420BD1A4F81832A4F81A3294F82002DC
:105AA000FDF70CFE94F82002FDF7C4FDC0E00020D5
:105AB000A4F81A02B4F82002B4F91212884209D0EC
:105AC000A4F81C32B4F91202082803DCB4F812025C
:105AD000A4F82002ACE0A1F50457033F23D07A1EBE
