:020000040800F2
:10000000B081002031030008F9390008172D0008DD
:1000100069350008A50E00089D400008000000009A
:100020000000000000000000000000007102000855
:10003000AD0F000800000000CD0200084D3A000896
:100040004B0300084B0300084B0300084B03000858
:100050004B0300084B0300084B0300084B03000848
:100060004B0300084B0300084B0300084B03000838
:10007000A90E00084B030008B50E00084B0300084A
:10008000C10E0008CD0E00084B0300084B0300080A
:100090004B0300084B0300084B0300084B03000808
:1000A0004B0300084B0300084B0300084B030008F8
:1000B0004B0300084B0300084B0300084B030008E8
:1000C0004B0300084B0300084B0300084B030008D8
:1000D0004B030008494000086140000879400008CF
:1000E0004B0300084B0300084B0300084B030008B8
:1000F0004B0300084B0300084B0300084B030008A8
:100100004B0300084B0300084B0300084B03000897
:100110004B0300084B030008213B00084B03000879
:100120004B030008D90E0008E50E00084B03000839
:100130004B0300084B0300084B0300084B03000867
:100140004B0300084B0300084B0300084B03000857
:100150004B030008F10E0008FD0E00089140000856
:100160004B0300084B0300084B0300084B03000837
:100170004B0300084B0300084B030008000000007D
:100180004B0300084B03000800F002F800F060F891
:100190000AA090E8000C82448344AAF10107DA45E2
:1001A00001D100F055F8AFF2090EBAE80F0013F0D4
:1001B000010F18BFFB1A43F001031847208300000A
:1001C0004083000010F8013B0A4413F0030408BF09
:1001D00010F8014B1D1108BF10F8015B641E05D01B
:1001E00010F8016B641E01F8016BF9D1002D15D0D8
:1001F00010F8014B03F00C030C2BA1EB04040ABF15
:1002000010F8013BA4EB8314A4EB032405F10103D4
:1002100014F8016B5B1E01F8016BF9D5914238BFF0
:1002200010F8013BD1D3704700230024002500269D
:10023000103A28BF78C1FBD8520728BF30C148BF49
:100240000B6070471FB507F0D7FF1FBD10B510BD7D
:1002500000F0A6F91146FFF7F5FF05F0EDFC00F000
:10026000C4F903B4FFF7F2FF03BC00F0CBF90000C0
:100270002C4B19680868B0E8F04F80F30988BFF389
:100280006F8F4FF0000080F311887047000000006E
:1002900008480068006880F308884FF0000080F389
:1002A000148862B661B6BFF34F8FBFF36F8F00DF64
:1002B00000BF00BF08ED00E0DFF80C00016841F46A
:1002C00070010160704700BF88ED00E0EFF3098026
:1002D000BFF36F8F134B1A681EF0100F08BF20ED8D
:1002E000108A20E9F04F106009B44FF0500080F3FD
:1002F0001188BFF34F8FBFF36F8F07F06BFC4FF088
:10030000000080F3118809BC19680868B0E8F04F54
:100310001EF0100F08BFB0EC108A80F30988BFF3FD
:100320006F8F70471C000020EFF3058070470000BE
:100330000948804709480047FEE7FEE7FEE7FEE779
:10034000FEE7FEE7FEE7FEE7FEE7FEE704480549B5
:10035000054A064B70470000113B00088901000860
:10036000B0790020B0810020B07D0020B07D002059
:1003700053EA020C00F069802DE9F04B4FF00006C3
:10038000002B1FBFB3FA83F503FA05F424FA05F630
:100390005E4012BF1643B2FA82F502FA05F4C5F1C7
:1003A00020051EBF22FA05FC44EA0C04203556EA5B
:1003B000044C4FEA144418BF641C4FF000084FF07F
:1003C0000009904271EB030C39D3002919BFB1FA2F
:1003D00081F701FA07F6B0FA80F700FA07F6C7F1DD
:1003E00020071EBF20FA07FC46EA0C062037B6FBA2
:1003F000F4FCA7EB0507103F07F01F0BCBF120061D
:100400000CFA0BFB2CFA06F644BFB3460026202F4D
:10041000A4BF5E464FF0000B5BEA060C08BF4FF02E
:10042000010B19EB0B09ABFB027C48EB0608C01B68
:1004300006FB02CC0BFB03CC71EB0C01C1E70B46B6
:10044000024641464846BDE8F08B13B54FF0000028
:100450004FF00001AFF30080BDE81C407047032A55
:1004600040F2308010F0030C00F0158011F8013BD1
:10047000BCF1020F624498BF11F801CB00F8013BB8
:1004800038BF11F8013BA2F1040298BF00F801CB7C
:1004900038BF00F8013B11F0030300F02580083A53
:1004A000C0F0088051F8043B083A51F804CBA0E8AA
:1004B0000810F5E7121D5CBF51F8043B40F8043BFF
:1004C000AFF30080D20724BF11F8013B11F801CB34
:1004D00048BF11F8012B24BF00F8013B00F801CB05
:1004E00048BF00F8012B704710B5203AC0F00B80D0
:1004F000B1E81850203AA0E81850B1E81850A0E828
:100500001850BFF4F5AF5FEA027C24BFB1E8185081
:10051000A0E8185044BF18C918C0BDE810405FEAF1
:10052000827C24BF51F8043B40F8043B08BF70476D
:10053000D20728BF31F8023B48BF11F8012B28BF72
:1005400020F8023B48BF00F8012B70474FF0000233
:1005500000B5134694469646203922BFA0E80C50B9
:10056000A0E80C50B1F12001BFF4F7AF090728BF94
:10057000A0E80C5048BF0CC05DF804EB890028BF10
:1005800040F8042B08BF704748BF20F8022B11F039
:10059000804F18BF00F8012B7047704770477047B5
:1005A000754600F02BF8AE4605006946534620F02C
:1005B0000700854618B020B5FFF7C8FEBDE820400B
:1005C0004FF000064FF000074FF000084FF0000B0F
:1005D00021F00701AC46ACE8C009ACE8C009ACE8C2
:1005E000C009ACE8C0098D46704710B50446AFF3AA
:1005F00000802046BDE81040FFF733BE004870473A
:100600004C79002001491820ABBEFEE7260002000D
:10061000704700002DE9F04F00242DED048B83B0CE
:100620000F46D0E909B9D0F810A0D0F8208086692B
:100630009A48D0ED038A90ED0A8AC06C012805D152
:10064000B2EE040A68EE808A28EE008A102F7BD969
:1006500003B0BDEC048BBDE8F08F00BF38F9143057
:10066000DDB2BD4244D25AF824105AF82500F1EE0A
:10067000680A0A1A00EE102AB8EEC00AB4EEE00AC0
:10068000F1EE10FA34DB00EE102AB8EEC00AB4EE38
:10069000E80AF1EE10FA2BD800EE101AF8EEC00AB4
:1006A000B1EE480AF4EEC00AF1EE10FA08DD00EEF1
:1006B000901AF8EEE00AF4EEC80AF1EE10FA17D339
:1006C00000EE900AF8EEE00AF4EEC00AF1EE10FA3D
:1006D00008DD00EE100AB8EEC00AB4EEC80AF1EE6A
:1006E00010FA05D336F9141036F91500814229D0D5
:1006F000FF2B02D0FF2028F81400102D06D238F965
:100700001500FF2802D0FF2028F8150036F9140044
:1007100048B1C0B205F0F8FE0021204602F00EFDFF
:10072000002026F81400102D0CD236F9150048B11F
:10073000C0B205F0E9FE0021284602F0FFFC0020CF
:1007400026F81500641CE4B2BC4287D3002420467E
:10075000B1EE489A25E000BF36F81010F9B95AF802
:10076000201000EE101AB8EEC00AB4EEC90AF1EE7D
:1007700010FA08D300EE101AB8EEC00AB4EEC80A98
:10078000F1EE10FA0BDD00EE101A0BEB8401B8EE5F
:10079000C00A81ED000A29F81400641CE4B2401C70
:1007A000C0B2B842D8D322464946584600F02CFB86
:1007B0000025641E6EE000BF09EB450019F815B076
:1007C00080780090BB4563D20098B84260D25AF856
:1007D0002B0000EE100AB8EEC00AB4EEC90AF1EE22
:1007E00010FA08D300EE100AB8EEC00AB4EEC80A38
:1007F000F1EE10FA4CDD00995AF8211000EE101AB3
:10080000B8EEC00AB4EEC90AF1EE10FA08D300EE51
:10081000101AB8EEC00AB4EEC80AF1EE10FA37DDCD
:10082000401A00EE100AF1EE680AB8EEC00AB4EE03
:10083000E00AF1EE10FA2BDB00EE100AB8EEC00A67
:10084000B4EEE80AF1EE10FA22D804F077F801903D
:1008500026F81B00DDE9000126F81010009828F8A2
:100860001B00009828F810B0019838B10098401C7F
:10087000C1B20BF10100C0B206F0AAFC58460199C2
:1008800002F05CFCDDE9000102F058FC6D1CEDB2E9
:100890006D1CEDB2A5428FDBDAE6000048040020B3
:1008A00038B504460079002520B1012810D0FE2873
:1008B0001BD138BD204600F01BF80146FE2001295F
:1008C00002D02071657138BD01212171607138BD80
:1008D000009510234FF444512046A26906F012FF00
:1008E000D4E90601102200F05BF8257138BD000044
:1008F00010B50446284800220369284800F53471E1
:1009000023B1012B19D0022B32D133E0A04204D104
:1009100008212046FFF77EFE0DE0A1420BD11F49C2
:100920000020A3698A6932F8102023F81020401CA7
:1009300080B21028F5D3082215E0A04204D110217E
:100940002046FFF767FE25E0A14223D1134900208E
:10095000A3698A6932F8102023F81020401C80B265
:100960001028F5D316E0D4E9060100F067F9024635
:10097000104610BDA0420DD0A1420BD10749002066
:10098000A3698A6932F8102023F81020401C80B235
:100990001028F5D31022E6E748040020D4040020F4
:1009A00010B5002306E000BF30F8134021F81340D3
:1009B0005B1C9BB29342F7D310BD000010B500231F
:1009C00006E000BF50F8234041F823405B1C9BB277
:1009D0009342F7D310BD00002DE9F84F002200929A
:1009E000D0E90954A2460024C66A036AC2682046B8
:1009F00014E000BF33F91070FF2F0DD152F82070B2
:100A000000EE107A05EB8407B8EEC00A87ED000A05
:100A10002AF81400641CE4B2401CC0B28842E9D336
:100A2000012C04D922465146284600F0EDF9DFF8A2
:100A300014B1002047F6FF7CFF276346B94600212A
:100A400046E000BF05EB81029BED0A0AD2ED000AE9
:100A5000F4EEC00AF1EE10FA06DAB1EE401AF4EE46
:100A6000C10AF1EE10FA31D84A1CD2B2B1EE401AE6
:100A700010E000BF05EB8208D8ED001AF4EEC01AB2
:100A8000F1EE10FA08DAF4EEC11AF1EE10FA03D919
:100A9000521CD2B2A242EDD3A14217D2A24215D229
:100AA00005EB820898ED000A70EE600A00EE103A3D
:100AB000B8EEC00AF4EEC00AF1EE10FA06D2BDEEAE
:100AC000E00A91460F4610EE103A1BB2491CC9B21B
:100AD000A142B7D363452ED0FF2F2CD0B9F1FF0F21
:100AE00029D004280FD23AF8192000EB4001521CFB
:100AF00026F811203AF8172006EB4101521C4A80D3
:100B0000401C8B80C0B29FED100A05EB89010428C0
:100B100081ED000A05EB870181ED000A8CD30DE021
:100B200000EB4002401C26F8121006EB4202C0B255
:100B30005180918000E000210428F1D30098BDE8A5
:100B4000F88F0000480400200000000038B504467B
:100B50004079002520B101280CD0FE2819D138BDDC
:100B6000204600F019F8012802D06570FE2020719F
:100B7000607138BD00950C2341F201212046E26AE4
:100B800006F0C0FD0128F4D1D4E90B010C22FFF7D7
:100B900007FF657138BD000010B504462548264999
:100BA000026901F5347022B1012A15D0022A39D127
:100BB00028E0A14201D1082111E0A04232D11E4912
:100BC0000020E36ACA6A32F8102023F81020401C83
:100BD00080B20C28F5D325E0A14204D11021204693
:100BE000FFF7FAFE1EE0A0421CD113490020E36A81
:100BF000CA6A32F8102023F81020401C80B20C285A
:100C0000F5D30FE0A1420DD0A0420BD10A4900203C
:100C1000E36ACA6A32F8102023F81020401C80B220
:100C20000C28F5D3D4E90B01BDE810400C2200F0EC
:100C300005B8000048040020D404002070B5044624
:100C40000020034609E000BF34F9135031F9136066
:100C5000B54200D001205B1C9BB29342F4D370BD1F
:100C600070B504460020034609E000BF54F8235045
:100C700051F82360B54200D001205B1C9BB2934227
:100C8000F4D370BDF8B5044640780026FE2520B1A7
:100C9000012815D0FE2821D122E0204600F02CF8B2
:100CA00001280AD06088401C80B26080FA2803D3F3
:100CB0006680657026716571F8BD0120607018E06E
:100CC000009620234FF440512046626906F01AFD39
:100CD000D4E903011022FFF771FE66806670F8BD4B
:100CE0006088401C80B26080B0F57A7FF7D3668060
:100CF00066702571DFE7000070B504464048414A40
:100D00000023056902F53470022125B1012D25D09B
:100D1000022D4AD14BE0A24204D16169E06805F09E
:100D200017FE19E0A04217D1364A0020E568D368C3
:100D300053F8203045F820305369656933F8203086
:100D400025F8203001EB800355696669401CED5A97
:100D500080B2F5520828E9D3082221E0A24204D14A
:100D60006169E06805F0F4FD28E0A04246D1254A1B
:100D70000020E568D36853F8203045F820305369E7
:100D8000656933F8203025F8203001EB8003556980
:100D90006669401CED5A80B2F5521028E9D32DE067
:100DA000D4E90301FFF75CFF0346184670BDA24279
:100DB0000AD101226169E06805F07AFF02226169C7
:100DC000E06805F075FF19E0A04217D10D4A002038
:100DD000E568D36853F8203045F8203053696569D9
:100DE00033F8203025F8203001EB8003556966691F
:100DF000401CED5A80B2F5521028E9D31022CFE7FB
:100E000048040020D4040020F0B5002426E0002689
:100E10000123171B1CE000BF00EB8305D5ED000A82
:100E200015ED010AF4EEC00AF1EE10FA0ED245ED0E
:100E3000010A85ED000A01EB430631F813C036F8CC
:100E4000025C26F802CC21F8135001265B1CDBB2B1
:100E50009F42E1DC002E03D0641CE4B29442D6D35E
:100E6000F0BD0000F0B5002319E000250122CE1AE4
:100E70000FE000BF00EB820750F822C057F8044C87
:100E8000A44504DA47F804CC40F822400125521C5E
:100E9000D2B29642EEDC002D03D05B1CDBB28B425B
:100EA000E3D3F0BDFEE70000014800F015B90000F3
:100EB000C8250020014800F00FB9000028260020B6
:100EC000014800F009B9000008250020014800F0A1
:100ED00003B9000068250020014800F0FDB80000BB
:100EE00088260020014800F0F7B8000048240020C0
:100EF000014800F0F1B80000E8260020014800F0A9
:100F0000EBB80000A824002001681823CAB2103AE8
:100F1000B2FBF3F2054B6FF30901032A9B5CC36537
:100F200000D9091D81650846704700003C82000811
:100F300010B5014600208B698A6A4FF0C07453B126
:100F4000B3F5005F15D072B1012A0CD0022A0AD085
:100F5000032A09D104E01AB1012A06D0022A03D1DA
:100F6000C96AC90100D5012010BDC96AA142FAD0E1
:100F700010BD002AF7D0012AF2D0022AF3D0032AAA
:100F8000F3D010BD30B50468256825F480252560B0
:100F9000046863608368402B036803D0996000682D
:100FA000C26030BD9A600068C16030BD704772B6E3
:100FB000FEE700009FED160A164A082921D20028F4
:100FC0001FD003281DD202EB401000EB810090EDF2
:100FD000BB0A1148016D71B10268A2F5DA436C3B9E
:100FE00009D1DFED0E0A60EE200A00EE101AB8EE0D
:100FF000C01A80EE810AC06C20B1F2EE040A20EE25
:10100000200A7047F6EE000A30EE200A7047000012
:1010100000000000AC0000204804002000007A44DA
:101020002DE9F0410446876D00F0D2FA064694F8A7
:1010300035000025022806D08020606584F83450F1
:101040000120BDE8F0812068016821F016010160EF
:101050002068416921F080014161206C08B9A06CD1
:1010600020B12068016821F0080101602068016852
:1010700021F0010101600CE000F0AAFA801B0528B4
:1010800007D920206065032084F8350084F83450A7
:10109000D7E720680068C007EED194F85C103F20C5
:1010A0008840B860012084F8350084F8345000206E
:1010B000C7E790F83510022903D08021416501204F
:1010C0007047052180F835100068016821F00101A2
:1010D00001600020704700002DE9F84304464FF0FE
:1010E0000009CDF8009063484FF41651A56D0068D3
:1010F000B0FBF1F72E6894F85C10082000FA01F1BB
:1011000031420FD021680A6852070BD50A6822F0D5
:1011100004020A6094F85C108840A860606D40F09A
:101120000100606594F85C104FF0010808FA01F0C6
:10113000304208D021684969090604D5A860606D6D
:1011400040F00200606594F85C1004208840304252
:1011500008D021680968890704D5A860606D40F04F
:101160000400606594F85C1010208840304218D06C
:1011700021680968090714D5A86020680168490337
:1011800004D50068000308D5A16C07E00168C90513
:1011900003D4016821F008010160216C09B12046E7
:1011A000884794F85C1020208840304231D0216874
:1011B0000968C9062DD5A86094F83500052820686F
:1011C000016806D0490347D5006800031DD4616C4F
:1011D0001CE021F0160101602068416921F08001C6
:1011E0004161206C08B9A06C20B12068016821F031
:1011F0000801016094F85C103F208840A86084F8E2
:10120000358084F83490216D1FE0E16B09B12046F0
:101210008847606D00282BD0606DC00714D0052072
:1012200084F835002068016821F001010160009810
:10123000401C0090B84203D820680068C007F6D16F
:1012400084F8358084F83490E16C002910D001B026
:101250002046BDE8F04308470168C905D5D40168B8
:1012600021F01001016084F8358084F83490CCE7D7
:10127000BDE8F883180000202DE9F041044600F095
:10128000A7F906465CB1022084F83500002584F8F1
:1012900034502068016821F0010101600DE0012057
:1012A000BDE8F08100F094F9801B052805D92020C5
:1012B0006065032084F83500F2E720680068C00705
:1012C000F0D12268116820480140D4E90103184395
:1012D000D4E903363343184363691843A3691843B9
:1012E000E3691843236A18430843616A042903D158
:1012F000D4E90B1319430843106020684069666AFB
:1013000020F0070130460E43012704280CD1A06AC3
:101310000643E06A40B12046FFF70AFE20B14020B4
:10132000606584F83570BAE7206846612046FFF7AB
:10133000EBFD94F85C203F2191408160656584F865
:1013400035700020ACE700003F8010F02DE9F0413F
:101350000446866D90F83400002501280DD0012048
:1013600084F8340094F835700020012F07D084F8F9
:10137000340002252846BDE8F0810220FBE7022761
:1013800084F8357060652046FFF7FCFD94F85C102A
:101390003F208840B0602068016841F0160101607C
:1013A000206C20B12068016841F0080101602068CC
:1013B000016841F001010160DCE700002DE9F84F10
:1013C000DFF8BCA10022012503264FF00F090AF126
:1013D000040BAAF1040E00BF0B6805FA02F42340C7
:1013E000A34270D10F7907F00307012F01D0022F1C
:1013F00016D187684FEA420806FA08FC27EA0C076C
:10140000D1F80CC00CFA08FC4CEA070CC0F808C074
:101410004768A7430C79C4F3001494403C434460EC
:101420000C79E443A4070AD0C4684FEA420C06FAD8
:101430000CF7BC438F6807FA0CF72743C7600C7999
:1014400004F00304022C12D1D40800EB840CDCF865
:1014500020405707FF0E09FA07F824EA0804D1F8DC
:10146000108008FA07F848EA0408CCF820800468DD
:101470004FEA420C06FA0CF7BC430F7907F003075A
:1014800007FA0CF7274307604C6814F4403F70D00C
:101490003C4C276847F480472760246822F0030704
:1014A00004F480440094384C07EB040CDCF8084842
:1014B00097074FEA177809FA08F7BC43334FB84249
:1014C00002D1002724E054E0314FB84201D1012776
:1014D0001EE0304FB84201D1022719E02E4FB8422A
:1014E00001D1032714E02D4FB84201D104270FE0AA
:1014F0002B4FB84201D105270AE02A4FB84201D14B
:10150000062705E0284FB84201D1072700E0082749
:1015100007FA08F72743CCF80878DAF8004057466E
:10152000D1F804C09C435FEACC2C00D51C433C603E
:10153000DBF800405F46D1F804C09C435FEA8C2C86
:1015400000D51C433C60DEF800407746D1F804C06B
:101550009C435FEA8C3C00D51C433C60084F083F2D
:101560003C68D1F804C09C435FEACC3C00D51C43E6
:101570003C60521C102AFFF42FAFBDE8F88F00002A
:10158000083C014044380240003001400000024065
:101590000004024000080240000C0240001002401B
:1015A0000014024000180240001C0240006908407C
:1015B00000D001207047426921EA02030A4043EA51
:1015C0000241816170470AB1816170470904FBE7FC
:1015D00001488068704700000C00002070B50400CE
:1015E00025D094F83D00002520B984F83C502046D1
:1015F00000F04CFA242084F83D002068016821F0B6
:10160000010101602068016841F400410160206827
:10161000016821F40041016000F004FC4D4A61685A
:10162000914201D84C4900E04C49884201D2012046
:1016300070BD4B492368B0FBF1F15E6826F03F06B0
:101640000E435E606368934206D94FF49673594324
:101650004FF47A73B1FBF3F12368491C1E6A26F03C
:101660003F06314319626168914210D84900401E1B
:10167000B0FBF1F2521CC2F30B02042A01D2042087
:1016800022E0B0FBF1F0401CC0F30B001CE0A268AC
:10169000F2B301EBC10303EB0116431EB3FBF6F3F8
:1016A0005B1C43F480431B0549D092B301EBC1029C
:1016B00002EB0111401EB0FBF1F0401CC0F30B0027
:1016C00040F4804040F400402168CA694CF6FF7342
:1016D0009A431043C861D4E90710014320680268A7
:1016E00022F0C00211430160D4E9030101432068E4
:1016F000826848F2FF339A4311438160D4E90501BF
:1017000008432168CA6822F0FF021043C86001E064
:101710000EE016E02068016841F0010101602564D7
:10172000202084F83D00256384F83E50002070BDE1
:1017300001EB4106431EB3FBF6F35B1CB3E701204C
:10174000C2E701EB4101401EB0FBF1F0401CC0F3C9
:101750000B00B7E7A086010080841E0000093D0051
:1017600040420F002DE9FF4F83B09A46DDE9119703
:1017700093460446DDF84080FFF72AFF054694F8BB
:101780003D00202870D1192301227149204600957F
:1017900001F0D2FB0028F5D194F83C00012863D079
:1017A000012084F83C0020680168C90703D1016862
:1017B00041F0010101602068016821F400610160CD
:1017C000222084F83D00402084F83E000026266454
:1017D000C4F82480A4F82A90608D20855D48E062DA
:1017E000CDE9007553465A462046049901F0ACFAFB
:1017F00000287CD1208DD0B1012821D0022820687A
:1018000024D0416980690090208D032869D801287F
:101810002BD0514902283B464FF00002009559D089
:101820008846204601F088FB002860D13CE0206813
:10183000416981690091016841F40071016077E0BC
:101840002068016821F480610160F0E7016821F4FB
:10185000806101602068016841F4006101602068D6
:1018600041698069009063E06FE02A46394620466E
:1018700001F0E1FB98BB20680069616A08704EE0E6
:101880002068016841F40071016020680069616AA4
:101890000870606A401C6062218D491E2185618D3F
:1018A000491E6185216838E02068016821F4806163
:1018B000016020680069616A0870606A401C6062AB
:1018C000208D401E2085608D401E60853B46002295
:1018D00041460095204601F02FFB00B9D0E706E015
:1018E000FFE72A463946204601F0A5FB18B1012042
:1018F00007B0BDE8F08F20680069616A0870606A0F
:10190000401C6062218D491E2185618D491E6185C3
:1019100021684A69D24352070AD409690170606A92
:10192000401C6062208D401E2085608D401E6085B9
:10193000208D00287FF468AF202084F83D0084F8D3
:101940003E6084F83C600020D2E70220D0E700002F
:10195000020010000000FFFF040001002DE9FF4F0E
:1019600083B09A46DDE9119793460446DDF840803E
:10197000FFF72EFE054694F83D0020287FD119235D
:10198000012240492046009501F0D6FA002876D180
:1019900094F83C00012872D0012084F83C002068B3
:1019A0000168C90703D1016841F0010101602068A5
:1019B000016821F400610160212084F83D0040208D
:1019C00084F83E0000262664C4F82480A4F82A90F7
:1019D000608D20852C48E062CDE9007553465A465B
:1019E0002046049901F02EFA70B930E02A463946B3
:1019F000204601F053FB58B1206C042804D1206824
:101A0000016841F400710160012007B0BDE8F08F6A
:101A1000606A216800780861606A401C6062218DFC
:101A2000491E89B22185628D521E628522685369E2
:101A3000DB435B070BD469B100781061606A401C1E
:101A40006062208D401E2085608D401E6085208D47
:101A50000028CBD12A463946204601F047FA002813
:101A6000CAD154F83D0B016841F400710160202097
:101A700004F81E09E67766770020C6E7FFE7022034
:101A8000C3E70000020010000000FFFF10B586B0A1
:101A9000044614216846FEF759FD1449206888421F
:101AA00021D113480021026842F00202026000685E
:101AB00000F0020005904FF4407000901220CDE934
:101AC0000101032003900420049069460948FFF7B0
:101AD00075FC07481030016841F40011016000688E
:101AE00000F40010059006B010BD00000054004046
:101AF00030380240000402400248816802781144F4
:101B0000816070470C0000200B4810B5016841F45B
:101B100000710160016841F480610160016841F475
:101B200080710160032000F09FF80F2000F006F89C
:101B300000F050F8002010BD003C024030B50546D2
:101B40001F4887B00024016841F01001016000685F
:101B500006A900F01000009001A800F043F90498D5
:101B6000A8B100F05FF940001649174AB0FBF1F147
:101B70001648491E026040F2E732C0E90324C0E97A
:101B80000114846100F0A0FB040003D015E000F014
:101B900049F9E9E70D4800F0D9FB04000DD13620E2
:101BA00000F034F8102D07D200222946362000F02C
:101BB0003BF80748056000E0012407B0204630BD2F
:101BC0004038024040420F000010004048270020EB
:101BD000100000200C4882B0016841F4804101608F
:101BE000006800F4804000900748001F016841F041
:101BF000805101600068002200F0805000900F21A9
:101C0000901E02B000F010B844380240002809DBF2
:101C100000F01F02012191404009800000F1E02006
:101C2000C0F8001170470000F0B40E4B1B680C4662
:101C3000C3F30223C3F10705042D00D90425191DA0
:101C4000072901D2002300E0DB1E012606FA05F178
:101C5000491E214099409E40761E16403143F0BCFB
:101C600002F0A2BA0CED00E0064900F00702086895
:101C70004FF6FF03184040EA0220034A1043086071
:101C8000704700000CED00E00000FA05BFF34F8F35
:101C900005480168054A01F4E06111430160BFF3A2
:101CA0004F8F00BFFDE700000CED00E00400FA05D7
:101CB0002DE9F0470E46050065D0DFF81481D8F80D
:101CC0000000F7B200F00700B04207D288F80070B9
:101CD000D8F8000000F00700B04254D128683D4C0D
:101CE000810712D5400703D5206840F4E0502060FA
:101CF0002878000703D5206840F460402060206801
:101D0000A96820F0F000084320602878C0072DD093
:101D1000304968680839012812D0022813D00328F6
:101D200011D00968890700292DDA216821F0030103
:101D300001432160FFF74CFC814641F2883A0EE0F6
:101D400009688903EFE709688901ECE7FFF740FCC0
:101D5000A0EB0901514502D90320BDE8F0872068B6
:101D6000696800F00C00B0EB810FEFD1D8F80010DB
:101D7000404601F00701B14207D90770006800F042
:101D80000700B04201D00120E7E72878400705D5D9
:101D90002068E96820F4E0500843206028780007B4
:101DA00006D52068296920F4604040EAC10020601F
:101DB00000F058F82168084AC1F30311515CC8408B
:101DC0000649086006480068FFF7B8FE0020C4E72F
:101DD000003C0240083802404482000818000020FD
:101DE000100000200F2202600C4A136803F0030366
:101DF0004360136803F0F0038360136803F4E05357
:101E0000C36012684FF4E05303EAD202026104484F
:101E1000006800F0070008607047000008380240C2
:101E2000003C02400448054900680968044AC1F3BF
:101E30008221515CC84070471800002008380240D9
:101E4000548200080448054900680968044AC1F33F
:101E50004231515CC84070471800002008380240E9
:101E600054820008154810B5006810F00C021448A0
:101E700013D01449042A0FD0082A0ED10F4C241F66
:101E80002268236802F03F025B0207D52068C0F396
:101E90008810A0FB010106E0084610BD2168C1F3CF
:101EA0008811A1FB00010023FEF762FA2168C1F34B
:101EB0000141491C4900B0FBF1F010BD0838024057
:101EC0000024F40040787D012DE9F84F04006ED025
:101ED0002078DFF84C93C007A9F104054AD009F136
:101EE00004000168C1F38101012908D00068C0F332
:101EF000810002280AD1D9F80000400206D52868DE
:101F0000800337D560680028E1D033E06068B0F521
:101F1000803F10D0B0F5A02F286810D020F480307A
:101F20002860286820F4802028606068A8B1FFF746
:101F30004FFB06460DE0286840F48030F4E740F49B
:101F400080202860F7E700BFFFF742FB801B642872
:101F500073D828688003F7D50CE0FFF739FB0646F5
:101F600005E000BFFFF734FB801B6428F0D8286829
:101F70008003F7D42078DFF8AC8280074FF0000AA6
:101F80003ED5A748001D016811F00C0F08D000686D
:101F9000C0F3810002280BD1D9F80000400207D419
:101FA0002868800716D5E068012800D112E033E1E7
:101FB000E068B8B10120C8F80000FFF709FB064649
:101FC00005E000BFFFF704FB801B0228C0D828688B
:101FD0008007F7D52868216920F0F80040EAC100A1
:101FE00028600DE0C8F800A0FFF7F2FA064604E00A
:101FF000FFF7EEFA801B02281FD828688007F7D465
:102000002078000722D5864F87486169703771B103
:1020100001210160FFF7DCFA064604E0FFF7D8FA79
:10202000801B022809D838688007F7D50EE0C0F871
:1020300000A0FFF7CDFA064605E082E0FFF7C8FAF8
:10204000801B02287DD838688007F7D420784007A5
:1020500068D5DFF8CCB100270BF13C0BDBF80000B2
:10206000C0000BD4DBF8001041F08051CBF8001019
:10207000DBF80000012700F0805000906B4E3068C4
:10208000C00510D4306840F480703060FFF7A0FACB
:10209000009005E0FFF79CFA0099401A022850D8FA
:1020A0003068C005F6D55E4EA0686C3601280FD0AA
:1020B0000528306810D020F001003060306820F032
:1020C00004003060A068B8B1FFF782FA00900FE01A
:1020D000306840F00100F4E740F004003060F7E7BA
:1020E000FFF776FA0099411A41F28830814266D8AA
:1020F00030688007F4D50EE0FFF76AFA009007E039
:10210000FFF766FA0099411A41F28830814256D8A9
:1021100030688007F4D42FB1DBF8001021F0805133
:10212000CBF80010A069C8B33D49091D0968C1F387
:10213000810102294AD00228504607D0C8F8600021
:1021400000E03CE0FFF744FA04463BE04746C8F8AD
:102150006000FFF73DFA064605E000BFFFF738FADA
:10216000801B02282BD828688001F7D4D4E9070106
:102170000843A16A2E4A490802EB0141626A41EA1A
:102180008211084394F82C1040EA0161C9F800104C
:1021900001203866FFF71CFA044606E03EE000BF67
:1021A000FFF716FA001B022809D828688001F7D526
:1021B00034E000BFFFF70CFA001B022802D903200D
:1021C000BDE8F88F28688001F4D427E00128F7D013
:1021D000D9F80000E26900F4800191421CD1226A22
:1021E00000F03F01914217D147F6C071626A014089
:1021F000B1EB821F10D1A26A4FF0FF3300F44031DF
:1022000003EB5202B1EB024F06D194F82C1000F010
:102210007060B0EB016F01D00120D1E70020CFE763
:102220000438024000004742800E474200700040E0
:102230000000FFFF7047704770B590F83C20012AFE
:1022400032D0012480F83C40022280F83D2003680F
:102250005A689D6822F070060A6832435A60134B30
:1022600002689A4214D0B2F1804F11D0104B9A42BA
:102270000ED0104B9A420BD00F4B9A4208D00F4B06
:102280009A4205D00E4B9A4202D00E4B9A4204D18C
:10229000496825F080031943916080F83D40002192
:1022A00080F83C10084670BD022070BD000001405F
:1022B0000004004000080040000C00400004014001
:1022C000004001400018004010B5040003D094F80D
:1022D0003D0010B107E0012010BD002084F83C0053
:1022E000204600F01FF8022084F83D00211D2068E0
:1022F00001F022FC012084F8460084F83E0084F8B6
:102300003F0084F8400084F8410084F8420084F8DB
:10231000430084F8440084F8450084F83D00002020
:1023200010BD000008B500680649884208D106487B
:10233000016841F020010160006800F02000009079
:1023400008BD0000001400404038024090F83D10E5
:10235000012901D001207047022180F83D10016859
:10236000CA6842F00102CA6000681149884214D06C
:10237000B0F1804F11D00F4988420ED00E498842EB
:102380000BD00E49884208D00D49884205D00D492E
:10239000884202D00C49884204D1816801F00701CB
:1023A000062903D0016841F0010101600020704757
:1023B000000001400004004000080040000C004004
:1023C000000401400040014000180040704770B513
:1023D0000446006801694FF00005C943890715D418
:1023E000C168C943890711D4E91E01610120207722
:1023F000206880698007204602D0FFF7E7FF04E0ED
:1024000000F098F8204600F096F8257720680169DA
:10241000C943490717D4C168C943490713D46FF0AA
:1024200004010161022020772068806910F4407F58
:10243000204602D0FFF7CAFF04E000F07BF82046F8
:1024400000F079F8257720680169C943090716D497
:10245000C168C943090712D46FF008010161042063
:1024600020772068C0698007204602D0FFF7AEFFC2
:1024700004E000F05FF8204600F05DF82577206862
:102480000169C943C90617D4C168C943C90613D431
:102490006FF010010161082020772068C06910F4F6
:1024A000407F204602D0FFF791FF04E000F042F8A1
:1024B000204600F040F8257720680169C943C90724
:1024C00008D1C168C943C90704D1891E01612046EA
:1024D00000F032F820680169C943090609D4C168CF
:1024E000C943090605D46FF0800101612046FFF75A
:1024F000A1FE20680169C943490609D4C168C943DE
:10250000490605D46FF040010161204600F01EF835
:1025100020680169C94389060BD4C168C94389068B
:1025200007D46FF0200101612046BDE87040FFF73D
:1025300082BE70BD7047704700680349884201D170
:10254000FFF7DABA7047000000100040704770478C
:1025500010B504460068406994F83D10C0F3C010FF
:10256000212911D180B12068143050E8001F21F0DA
:10257000800140E80012002AF5D1606B08B1FEF737
:102580004FFD204601F004FC2068406994F83E109D
:10259000C0F38010222911D180B12068143050E896
:1025A000001F21F0400140E80012002AF5D1A06B85
:1025B00008B1FEF735FD204601F0C3FB002010BD39
:1025C00070470000F8B5016804460868CA684B699E
:1025D00010F00F0F4FF000055AD003F0010602F47F
:1025E0009077374365D0C10705D0D10503D5216C5D
:1025F00041F001012164410705D5D90703D0216CC1
:1026000041F002012164810705D5D90703D0216C6F
:1026100041F004012164010707D502F02001314394
:1026200003D0216C41F008012164216C00293BD0CA
:10263000800604D5900602D5204601F0B7FB20683D
:102640004069216CC0F3801001F00801014320466D
:102650002BD001F076FB20684069400621D5206828
:10266000143050E8001F21F0400140E80012002A19
:10267000F5D1A06BA8B16C490165A06BFEF719FDFF
:10268000002811D0A06B016D01B0BDE8F0400847F3
:1026900083060ED593060CD52046BDE8F84001F020
:1026A00085BB2046FFF78CFFF8BDFFF789FF256447
:1026B000F8BD266B2023012E79D1C60677D5D60624
:1026C00075D50868486800904869400640D5A16BF8
:1026D000086840680004000CEAD0A28D8242E7D965
:1026E000E085C869B0F5807F2DD020680C3050E8B7
:1026F000001F21F4807140E80012002AF5D1206803
:10270000143050E8001F21F0010140E80012002AB7
:10271000F5D12068143050E8001F21F0400140E856
:102720000012002AF5D184F83E30256320680C3071
:1027300050E8001F21F0100140E80012002AF5D1F6
:10274000A06BFEF76DFCA08DE18D401A81B229E0EF
:10275000A08DE18D401A81B2E08D0028A8D000291B
:10276000A6D020680C3050E8002F22F4907240E888
:102770000026002EF5D12068143050E8002F22F0FA
:10278000010240E80026002EF5D184F83E30256392
:1027900020680C3050E8002F22F0100240E800239F
:1027A000002BF5D12046FFF7D2FEF8BDFFE7050666
:1027B0002BD5150629D594F83D002128F5D1A06820
:1027C000B0F5805F01D12069B0B1206A411C21625F
:1027D000216800784860E08C401E0004000CE08412
:1027E000E3D12068C16821F08001C1602068C16820
:1027F00041F04001C160D8E7206A0088C0F30800BA
:102800004860206A801C2062E5E74006CDD550066E
:10281000CBD5CA68204622F04002CA6084F83D3019
:1028200000F056FAC1E70000013C000870B5040052
:1028300004D094F83D00002510B106E0012070BDE1
:1028400084F83C50204600F023F8242084F83D0012
:102850002068C16821F40051C160204601F006FBE8
:102860002068016921F4904101612068416921F0EB
:102870002A0141612068C16841F40051C1602564AA
:10288000202084F83D0084F83E00002070BD000048
:102890002DE9F04F87B0044614216846FDF756FE37
:1028A000C048BF4B1438D4F800C0DFF8F8E202216A
:1028B00003228715002506154FF0070B4FF040093E
:1028C0004FF0006A9C4554D1DEF800C04CF0100C6B
:1028D000CEF800C0DEF8003003F010030593036863
:1028E00043F002030360006800F002000590C0207E
:1028F0008DE82300CDE9032B6946AB48FEF75EFD6A
:10290000DFF8AC82A9494046C8F80010C0E901A52B
:10291000C0E90356C8F81450C0E90657C8F820505B
:10292000C8F82450FEF7A8FC08B1FEF740FBA04F02
:10293000C4F838806037C8F83840C7F80890C7E94D
:1029400003567D61BD619948FD613D6278307D62CD
:10295000C7E9000A3846FEF78FFC08B1FEF727FBEF
:102960006763002205212520BC63FFF75DF9252060
:1029700059E08C4BDFF83C821B1FC44558D1D3F87B
:1029800000C04CF4003CC3F800C01B6803F40033E3
:102990000593036843F008030360006800F0080033
:1029A000059060208DE82300CDE9032B694682481D
:1029B000FEF704FDDFF8F881804908F1C0084046C1
:1029C000C8F80010C0E901A5C0E90356C8F81450C2
:1029D000C0E90657C8F82050C8F82450FEF74CFC50
:1029E00008B1FEF7E4FA764FC4F83880C8F83840EA
:1029F000C7F80890C7E903567D61BD616F48FD6166
:102A00003D6218307D62C7E9000A3846FEF734FCA3
:102A100008B1FEF7CCFA6763002205212620BC63CB
:102A2000FFF702F92620FFF7F1F807B0BDE8F08FB5
:102A3000DFF89081C44557D1D3F800C04CF4802C06
:102A4000C3F800C01B6803F480230593036843F0B8
:102A500004030360006800F0040005904FF4406038
:102A60008DE82300CDE9032B69465748FEF7A6FC05
:102A7000DFF84C81514908F1600860394046C8F8D8
:102A80000010C0E901A5C0E90356C8F81450C0E918
:102A90000657C8F82050C8F82450FEF7EDFB08B1DF
:102AA000FEF785FA464FC4F83880C037C8F838407A
:102AB000C7F80890C7E903567D61BD613F48FD61D5
:102AC0003D6230387D62C7E9000A3846FEF7D4FB24
:102AD00008B1FEF76CFA6763002205212720BC636A
:102AE000FFF7A2F827209EE7384B9C459DD1DEF8E2
:102AF00000C04CF0200CCEF800C0DEF8003003F02F
:102B000020030593036843F004030360006800F0AA
:102B100004000590C0208DE823000820CDE90320A3
:102B200069462948FEF74AFC2049DFF8A480183995
:102B300040464FF0206AC8F80010C0E901A5C0E97E
:102B40000356C8F81450C0E90657C8F82050C8F812
:102B50002450FEF791FB08B1FEF729FA1C4FC4F888
:102B600038806037C8F83840C7F80890C7E903567E
:102B70007D61BD610D48FD613D6260307D62C7E9E8
:102B8000000A3846FEF778FB08B1FEF710FA6763D3
:102B9000002205214720BC63FFF746F8472042E7A3
:102BA00000100140443802400004024040640240EA
:102BB0004824002000440040000C0240886002408D
:102BC0006825002000480040000802400014014031
:102BD0008826002090F83E30202B0ED159B152B1FA
:102BE00090F83C30012B08D0012380F83C300023C2
:102BF000036301F0C1B9012070470220704790F8CB
:102C00003E30202B0ED159B152B190F83C30012BFF
:102C100008D0012380F83C300023036301F0F6B9AB
:102C200001207047022070470449884204D10122E4
:102C300034390248FFF7E3BF704700003823002013
:102C40007047000070B5044690F83D00202836D14A
:102C500091B38AB394F83C00012830D0012084F865
:102C60003C002162A284E28400252564212084F8AE
:102C70003D00636B1348D863636B13481864636B40
:102C80001248D864606B134605652668606B321D78
:102C9000FEF75CFB21686FF04000086084F83C5050
:102CA0002068143050E8001F41F0800140E8001215
:102CB000002AF5D1002070BDFFE70120FBE70220CC
:102CC000F9E70000F73C0008393D0008113C000816
:102CD000416B09680A6822F001020A600A4900682B
:102CE0000968884205D10948017821F00201017084
:102CF00070470549883109688842F9D100224FF4AC
:102D000080610348FEF75FBC38230020001F0020CD
:102D1000000002407047FEE701684A69D24352054D
:102D20000FD46FF480624A61002140F8301F2022E6
:102D300042738173026942F004020261017301204F
:102D400070470020704700002DE9F84F04460068E6
:102D500089460B9D01689846174641F480610160E1
:102D60002068016841F48071016000954FF0011BFB
:102D70000022594620460A9B00F0DEF84FF4007A04
:102D800040B120680068C00501D5C4F840A0032008
:102D9000BDE8F88F216809F0FE0008612B4628493C
:102DA00020460A9A00F0FCF8F0BB2068416980696F
:102DB00000902A4620460A9900F070F940B1206C34
:102DC00004283AD12068016841F40071016034E0C0
:102DD000FEB2B8F1010F09D02168380A08612A460D
:102DE00020460A9900F05AF90028E8D120680661C7
:102DF0002A4620460A9900F051F90028DFD12068C0
:102E0000016841F480710160009500225946204616
:102E10000A9B00F091F80028B3D1216809F0FF0067
:102E200040F00100086100E007E02B46044920461D
:102E30000A9A00F0B5F80028AAD00120A8E70000FF
:102E4000020001002DE9F843044600680D46DDE963
:102E5000089701689846164641F4807101604B4618
:102E600000224FF001112046009700F065F848B1AC
:102E700020680068C00502D54FF40070206403206C
:102E8000BDE8F883216805F0FE0008613B464A462C
:102E90001549204600F084F888B9206841698069A6
:102EA00000903A464946204600F0F8F848B1206CB8
:102EB000042804D12068016841F4007101600120F8
:102EC000DEE7F5B2B8F1010F09D02168300A0861D8
:102ED0003A464946204600F0E1F80028E7D120684C
:102EE00005610020CCE700000200010070B5164625
:102EF0000D4604460DE02046FFF70EFF08B1012005
:102F000070BD681C05D0FEF763FB801BA84207D884
:102F100035B120684069C0434007ECD4002070BD43
:102F2000002044F8300F20216173A073216941F023
:102F3000200121612073E2E72DE9F0471E4690460B
:102F40000D460446C1F30747DDF8209008E0701CE9
:102F500006D0FEF73DFBA0EB0900B0420FD876B1DA
:102F60002068012F18D0806925EA00000004000CB9
:102F700014D000214145EAD00020BDE8F0870020B0
:102F800044F8300F20216173A073216941F02001C2
:102F9000216120730120F0E74069E5E70121E9E7BD
:102FA0002DE9F0479A4691460E46044600254FF01B
:102FB0002008C1F3074725E020684069C043400569
:102FC00014D42068016841F40071016021686FF435
:102FD00080604861256384F83D8084F83E50206C11
:102FE00040F00400206484F83C501FE0B9F1FF3F3A
:102FF00008D0FEF7EDFAA0EB0A0149450CD8B9F16B
:10300000000F09D02068012F13D0806926EA000044
:103010000004000C0BD0CFE744F8305F84F80D803B
:10302000A573206940F02000206125730120BDE8D0
:10303000F0874069EAE72DE9F041002590460E4609
:103040000446202717E04069C043C0060CD454F85A
:10305000301B6FF01000486144F810596777A5776E
:10306000206A2062257717E0FEF7B2FAA0EB08008D
:10307000B04208D83EB120684169C9434906E2D44C
:103080000020BDE8F08144F8305F6773A5732069C4
:1030900040F02000206125730120F2E770B516464C
:1030A0000D4604460DE02046FFF736FE08B101202C
:1030B00070BD681C05D0FEF78BFA801BA84207D8AC
:1030C00035B120684069C0430006ECD4002070BDD3
:1030D000002044F8300F20216173A073216941F072
:1030E000200121612073E2E770B5642405460129BF
:1030F00011D001F077FC6320401EFDD1284601F07D
:103100007FFC611E491EFDD1284601F06BFC641E48
:10311000641EFDD170BD01F073FC6320401EFDD123
:10312000284601F05FFC611E491EFDD1284601F0D2
:1031300067FC641E641EFDD170BD000070B50346BF
:1031400000200246012906D002290AD0032906D010
:10315000042907D101E0012204E0082202E0042250
:1031600000E00222082B15D2C3F1070101EBD17652
:103170000B4DC6F34703042BEC5C0BD226F0010089
:10318000081A10F0FF0F06D004F00F0141EA0210F8
:10319000E854012070BD04F0F0001043F8E700008F
:1031A0009D000020294808B5016841F40011016024
:1031B000016801F400110091016841F4800101608F
:1031C0000068002200F48000009005210C20FEF72A
:1031D0002BFD0C20FEF71AFD002205210E20FEF724
:1031E00023FD0E20FEF712FD002205211020FEF720
:1031F0001BFD1020FEF70AFD002205211120FEF71D
:1032000013FD1120FEF702FD002205213920FEF7F3
:103210000BFD3920FEF7FAFC002205213A20FEF7CB
:1032200003FD3A20FEF7F2FC002205214520FEF7BF
:10323000FBFC4520FEF7EAFC002205214620FEF7B4
:10324000F3FCBDE808404620FEF7E0BC3038024001
:1032500010B58EB01C220B496846FDF745F90021D8
:10326000684602F051FD084C06491C2220601C31C2
:1032700007A8FDF739F9002107A802F045FD6060B5
:103280000EB010BD04820008000000202DE9F04FB0
:1032900087B014216846FDF759F9544800250168A4
:1032A00041F010010160016801F010010591016811
:1032B00041F004010160016801F004010591016819
:1032C00041F080010160016801F080010591016811
:1032D00041F001010160016801F0010105910168FF
:1032E00041F008010160016801F0080105910168E1
:1032F00041F0020101600068DFF8F48000F0020094
:103300004FF67C040590002221464046FEF75BF90B
:10331000DFF8E090002242F20D014846FEF753F933
:10332000DFF8D4B04FF40046002231465846FEF78D
:103330004AF9DFF8C8A07711002239465046FEF757
:1033400042F9012220212E48FEF73DF90094012484
:1033500001940294694640460394FEF72FF842F226
:103360000800CDE9000469464846CDE90245FEF76C
:1033700025F80520CDE900040294694648460394E7
:10338000FEF71CF81820CDE9000569465046029565
:10339000FEF714F8F81CCDE9000569460294404692
:1033A000FEF70CF8CDE9006469465846CDE90245C0
:1033B000FEF704F8CDE9007469465046CDE90245B0
:1033C000FDF7FCFF9F20CDE90005694602945846B1
:1033D000FDF7F4FF20208DE831006946084803948A
:1033E000FDF7ECFF07B0BDE8F08F00003038024079
:1033F0000010024000080240000C024000000240A1
:10340000000402400D4810B50B4901600C494160B1
:1034100000214FF480428160C0E903124161816163
:10342000C1610162FEF7DAF8002803D0BDE8104060
:10343000FDF7BDBD10BD000000540040641E00201B
:10344000801A06001CB500240E4800940C49019413
:1034500001605321C0E901144FF6FF718461C1601E
:10346000FEF732FF08B1FDF7A2FD0094694605485A
:103470000194FEF7E1FE002801D0FDF798FD1CBD88
:1034800000140040B81E00200C4810B50A49016025
:103490004FF4E1314160002181600C22C160C0E93C
:1034A00004128161C161FFF7C1F9002803D0BDE8B2
:1034B0001040FDF77CBD10BD0010014038230020F6
:1034C0000C4810B50A4901604FF4E1314160002118
:1034D00081600C22C160C0E904128161C161FFF703
:1034E000A5F9002803D0BDE81040FDF760BD10BD70
:1034F000004400407C2300200C4810B50A490160BC
:103500004FF4E1314160002181600C22C160C0E9CB
:1035100004128161C161FFF789F9002803D0BDE879
:103520001040FDF744BD10BD00480040C0230020FE
:103530000C4810B50A4901604FF4E13141600021A7
:1035400081600C22C160C0E904128161C161FFF792
:103550006DF9002803D0BDE81040FDF728BD10BD6F
:103560000014014004240020FEE700000A48D0F8BF
:103570000813491CC0F8081308490969012907D034
:10358000022903D00B2903D00C2903D100F039B94B
:1035900000F02AB870470000AC000020480400206A
:1035A000D0F80813C822B1FBF2F302FB1311002973
:1035B00016D1B0F84E1341F02001A0F84E1309497E
:1035C0000969012902D00B2905D101E0022100E09F
:1035D0000C2180F85F130021A0F8521380F84C13DF
:1035E000704700004804002010B5044600F09CF825
:1035F000204600F0D6F801280BD1B4F8041304F2E9
:103600000120085CA52804D12046BDE8104000F048
:103610004FB810BD70B504460020B4F84E138A06AA
:1036200043D521F02000A4F84E032048006901286A
:1036300001D00B2801D184F8040194F85F0384F8C9
:103640000501062084F806017E2184F8071184F81C
:10365000080104F209100C2102F0F6FD94F8600351
:1036600084F82101002084F8600304F59170102192
:1036700002F02AFF04F5B170102102F0CDFD7F2188
:1036800004F5827084F85E13054600F07BFE94F822
:103690005E13030A4A1C84F85E234B5594F85E13AC
:1036A0004A1C84F85E234855012070BD4804002060
:1036B00030B5027900214479022A01D00C2A0CD1BC
:1036C000184B012C1B6906D00B2C06D10B2B04D1F7
:1036D0000C2A03D003E0012BFAD030BD02228379FB
:1036E000862BFAD1C379222BF7D100EB421400BF0D
:1036F00000EB810204EB8103157A83F8EC52557AD2
:1037000083F8ED52957A83F8EE52491CD27A89B249
:1037100083F8EF220829EBD300EB8101097A80F8C6
:10372000611330BD4804002070B50446FFF738FF30
:1037300094F84C03012128B1002501280DD002285E
:103740002AD11CE0B4F85203401C80B2A4F8520302
:103750000F2801D384F84C1370BD2046FFF75AFFA1
:103760000128F9D1206894F85E2304F58271436B37
:103770009847022084F84C03A4F8545370BDB4F861
:103780005403421CA4F854233C2801D384F84C135E
:1037900094F806030128F1D184F84C53A4F852534D
:1037A00070BD2DE9F0410446002690F80603354629
:1037B000012823D1002084F80603B4F80413C81E9E
:1037C000FD281BD204F2022004F20322085C8A5C6A
:1037D000891E02EB002087B204F5017000F0D2FDD3
:1037E000B84206D00AE060196D1C90F8041201710D
:1037F000ADB2B4F80403A842F5D801263046BDE8BE
:10380000F08110B5044600F043F82046FFF7C9FFE9
:10381000012804D12046BDE8104000F001B810BDD9
:1038200010B5044600796179012801D00B282BD10D
:10383000022901D1012805D0144A12698A4223D1F4
:103840000B2821D1A07906281ED1E0797E281BD132
:10385000207A062818D104F109000C2104F006FA98
:1038600094F8210084F8610304F12200102104F08F
:103870001BFA04F16200102104F0DAF9B4F85803DD
:1038800040F02000A4F8580310BD000048040020B8
:1038900070B5044690F8560318B10025012818D1D8
:1038A0000BE0B4F85C03401C80B2A4F85C030A2867
:1038B00002D3012084F8560370BD204600F00CF8B6
:1038C0000128F9D1206894F85E2304F58271436BD6
:1038D000984784F8565370BD70B504460020B4F87C
:1038E000581305468A065FD521F02000A4F8580336
:1038F0003148006984F80401022856D00C2856D0BB
:103900006079862184F80611222184F8071104EBDE
:103910004016E8B201F0C2FA06EB85006D1CADB2AC
:1039200080EDBB0A082DF4D35FF0000006EB8001A8
:1039300004EB800291F8EC3282F8083191F8ED3214
:1039400082F8093191F8EE3282F80A31401C91F880
:10395000EF1280B282F80B110828E7D304EB800144
:1039600094F8602381F80821002284F8602394F8F9
:10397000622381F80921062101EB8000C1B204F520
:10398000827084F85E13054600F0FCFC94F85E1328
:10399000030A4A1C84F85E234B5594F85E134A1CB4
:1039A00084F85E234855012070BD012000E00B2003
:1039B00084F805010220A4E7480400200D480C49C2
:1039C00000F5417201604A61911C026891610268D0
:1039D00000F58271D161026800F501711162002168
:1039E000A0F8041380F806130068816A08470000F5
:1039F0000C0B0020AC000020FEE700000C4910B5C5
:103A00000B888C880989234419440A4B89B240F2F7
:103A1000E5741960024661430020C1F30B018A423C
:103A200004D142F2CD00C3E90120012010BD000005
:103A3000346C002010040020012002F059F9FBE74B
:103A4000012002F055F900F07DFCF9E710B5502097
:103A500080F31188BFF34F8FBFF36F8F04F024FA08
:103A600018B104494FF080500860002080F311889D
:103A700010BD000004ED00E030B593B03021684681
:103A8000FCF764FD14210CA8FCF760FD1E4800251E
:103A9000016841F080510160006800F08050119091
:103AA0001A48016841F4804101600068022400F472
:103AB0008040119001200090000401908001CDE928
:103AC0000640192008904FF4A870CDE9090404209D
:103AD0000B906846FEF7F8F908B172B6FEE70CA93C
:103AE0000F2081E831004FF4A0500F904FF4805028
:103AF000109005210CA8FEF7DBF8002801D072B663
:103B0000FEE713B030BD00004038024000700040B6
:103B10000248016841F470010160704788ED00E0DF
:103B200003480168491C01600248FEF750BC0000D0
:103B30000800002048270020F0B50268254C264DDB
:103B4000264E274F274B4FF0804CA04209D06045AE
:103B500007D0A84205D0B04203D0B84201D0984265
:103B600004D122F0700E4A6842EA0E02A0421BD035
:103B7000604519D0A84217D0B04215D0B84213D032
:103B8000984211D0184DA8420ED0184DA8420BD023
:103B9000174DA84208D0174DA84205D0164DA8428F
:103BA00002D0164DA84203D122F44075CA682A43B8
:103BB0004D6922F080022A4302608A68C2620A6864
:103BC0008262A04201D0984201D1096901630121BA
:103BD0004161F0BD000001400004004000080040C9
:103BE000000C00400004014000400140004401403E
:103BF0000048014000180040001C00400020004028
:103C000010B5806B0021C185C184FEF7D9FC10BDC1
:103C100070B5846B2068406994F83D10C0F3C01003
:103C20000025212904D118B1E584204600F0B0F820
:103C30002068406994F83E10C0F38010222904D116
:103C400018B1E585204600F07CF8206C40F01000AB
:103C500020642046FEF7B4FC70BD10B50146806BB1
:103C600009680968C9052FD40021C18501680C3194
:103C700051E8002F22F4807241E80023002BF5D197
:103C80000168143151E8002F22F0010241E80023BD
:103C9000002BF5D10168143151E8002F22F04002C9
:103CA00041E80023002BF5D1202180F83E10016B64
:103CB000012909D101680C3151E8002F22F01002CE
:103CC00041E80023002BF5D1016B012902D0FEF75A
:103CD000ABFF10BD818DFEF73AFC10BD10B5806BB7
:103CE000016B012902D0FEF7ABFF10BD818D4908A1
:103CF000FEF72DFC10BD10B50146806B0968096800
:103D0000C90516D40021C1840168143151E8002F7F
:103D100022F0800241E80023002BF5D101680C312C
:103D200051E8002F42F0400241E80023002BF5D17A
:103D300010BDFEF7CDFF10BD10B5806BFEF7EAFF9A
:103D400010BD01680C3151E8002F22F4907241E857
:103D50000023002BF5D10168143151E8002F22F027
:103D6000010241E80023002BF5D1016B012909D1A3
:103D700001680C3151E8002F22F0100241E80023C5
:103D8000002BF5D1202180F83E10002101637047FF
:103D900001680C3151E8002F22F0C00241E80023F5
:103DA000002BF5D1202180F83D10704708B590F820
:103DB0003E10222901D0022008BD82684FF48053B2
:103DC0009A4201D1016921B1816A9A421BD04AB15C
:103DD0000AE00268816A5268C2F308020A80816AB6
:103DE000891C08E0026972B10268526802F07F0221
:103DF0000A70816A491C8162C18D491E0904090C3F
:103E0000C18503D019E002685268F1E70168CA6809
:103E100022F02002CA600168CA6822F48072CA6077
:103E200001684A6922F001024A61202180F83E10AF
:103E3000016B012903D0FEF7F7FE002008BD002129
:103E4000016301680C3151E8002F22F0100241E8B3
:103E50000023002BF5D101680A68D20602D50A6852
:103E600049680091818DFEF772FBE6E770B5044664
:103E700000680169E26821F4405111430161216940
:103E8000A068E26908436169114308432168CA6870
:103E900049F20C639A430243CA6020684169A269EF
:103EA00021F440711143416131492068884202D0B8
:103EB0003049884202D1FDF7C5FF01E0FDF7B2FFAE
:103EC000E2690023192164253226B2F5004F6268A9
:103ED00028D0A0FB0101930F9200FCF749FA01469C
:103EE000B0FBF5F06FF01802504301EB800006EBD9
:103EF0000010B0FBF5F000F0F002B1FBF5F002EBC2
:103F00000012B1FBF5F06FF01803584301EB80008D
:103F100006EB0010B0FBF5F000F00F002168104434
:103F2000886070BDA0FB010192185B41FCF720FA8C
:103F30000146B0FBF5F00201B1FBF5F06FF018039C
:103F4000584301EB800006EBC000B0FBF5F000F039
:103F5000F80002EB4002B1FBF5F0584301EB8000A2
:103F600006EBC000B0FBF5F000F00700D6E700005C
:103F7000001001400014014038B58162828500259F
:103F8000134604460564222084F83E00A26B1C48B8
:103F9000D063A26B1B481064A26B1B48D064A06B5B
:103FA0000A4605652168A06B091DFDF7CFF9206859
:103FB00001684068009084F83C50206948B120684E
:103FC0000C3050E8001F41F4807140E80012002AD4
:103FD000F5D12068143050E8001F41F0010140E89D
:103FE0000012002AF5D12068143050E8001F41F07B
:103FF000400140E80012002AF5D1002038BD000041
:104000005B3C0008DD3C0008113C000881628285B1
:10401000C28500210164222280F83E2080F83C10F5
:10402000016921B10168CA6842F48072CA600168FE
:104030004A6942F001024A610068C16841F020010A
:10404000C16000207047000010B5044800F028F857
:10405000BDE810400148FEF7B5BA00003823002043
:1040600010B5044800F044F8BDE810400148FEF7E0
:10407000A9BA00007C23002010B5044800F060F8C5
:10408000BDE810400148FEF79DBA0000C0230020A3
:104090000148FEF797BA000004240020FEE7000064
:1040A00038B5114C0168206881421CD10968C943A8
:1040B000C90618D40168406800902046FEF748FA07
:1040C000A06B0068416809480122C1F5807180F841
:1040D0005822A0F8561200F155012046BDE838409C
:1040E0001202FEF777BD38BD38230020D40400202B
:1040F00038B5114C0168206881421CD10968C94358
:10410000C90618D40168406800902046FEF720FADE
:10411000A06B0068416809480122C1F5807180F8F0
:104120002825A0F8261500F225312046BDE83840A4
:104130001202FEF74FBD38BD7C230020D4040020BE
:1041400038B5174C01682068814227D10A68D243EC
:10415000D20618D40168406800902046FEF7F8F9AE
:10416000A06B006841680F480122C1F5807180F89A
:104170000623A0F8041300F501712046BDE838407D
:104180001202FEF727BD0A68D243520603D509681A
:10419000C943090602D401684068009038BD000098
:1041A000C0230020AC0000200907090E002804DB12
:1041B00000F1E02080F80014704700F00F0000F1DB
:1041C000E02080F8141D70470D4A10B50346946D29
:1041D00000201269062C0ED0082C0BD10120002AD9
:1041E00008D00320012A05D1064A9A4202D10029AB
:1041F00000D1012010BD002AFCD0022010BD00001B
:1042000048040020D40400202DE9FE4F00278B46EF
:104210008118B846B946B1F5804F3CD815460646D8
:10422000DFF87CA022E000BF06EB080086B206F0B3
:104230003F00C0F14004AC4200D32C460A2000F0FD
:104240009FFBDAF80C20DAF814100092CDE9014156
:10425000BAF8041010233246DAF80000FDF782FAAB
:10426000070007D040F24111AAF81810A5B1002F9D
:10427000DAD011E00BEB090022460A49FCF7EFF80F
:1042800009EB0400A0461FFA80F9A5EB080005041D
:104290002D0CC9D100E001273846BDE8FE8F000093
:1042A000CC0B0020CA7800202DE9FE4F00271446D1
:1042B000064620448B46B946B846B0F5804F39D8FB
:1042C0000E2000F09DFBDFF874A026E006EB09004D
:1042D00086B206F03F00C0F14005A54200D3254656
:1042E0000BEB08012A461648FCF7B9F80A2000F043
:1042F00047FBDAF80820DAF814100092CDE90151F2
:10430000BAF8041010233246DAF80000FDF726FB55
:10431000070006D07B21AAF8181064B1002FD5D071
:1043200009E008EB0500A9461FFA80F8A4EB090094
:1043300084B2F2E701273846BDE8FE8FCC0B00209F
:104340000A790020084810B50168491C016001F095
:104350007FFB00F005FCFFF709F902F079FFBDE8EB
:10436000104001F0F9BB0000A800002010B50024A7
:1043700000212046FEF7E2FE641CE4B2082CF7D3CD
:1043800010BD000070B50C4DFF22134605F5807678
:1043900006E000BF10F8014B5C402B5D5340325DDE
:1043A000491EF7D24FF6FF7000EA022000F47F406A
:1043B000184480B270BD00005C82000870B5002413
:1043C0002DED028B25469FED1E8A2646D8B1082882
:1043D00016D8401EC0B200F09DFA00BF00EB850168
:1043E0006D1CEDB24E630A2DF8D3002100EB810263
:1043F000491C82ED218AC9B282ED2C8A0B29F5D3A2
:10440000BDEC028B70BD204600F084FA014600200E
:1044100001EB8002401CC0B256630A28F8D300208A
:1044200001EB8002401C82ED218AC0B282ED2C8A11
:104430000B28F5D3641CE4B2082CE4D3E0E70000B9
:104440000000000030B50021134C0A460B4680B135
:1044500008280DD8401EC0B200EB800004EB00110C
:1044600001EB4200521C8382D2B203850A2AF7D3A1
:1044700030BD01EB8102002004EB021202EB40058B
:10448000401CAB82C0B22B850A28F7D3491CC9B2A5
:104490000929EED330BD0000E875002010B50020DA
:1044A000074B0446052103F1200200BF23F810400A
:1044B00022F81010401CC0B21028F7D310BD000025
:1044C000E872002010B5B0F85A2200240A49A2F57B
:1044D0000453023B0ED1B0F85E220124A2F525431D
:1044E0005A3B07D10122A0F86022A1F860221046B1
:1044F00002F096FE204610BDD404002010B5B0F89E
:104500005A2200210E2A05D10121A0F8B41203F08D
:1045100077F80121084610BD70B50446B0F8B20224
:10452000002501280CD1B4F8C802012550B101289A
:104530000FD0022814D0002603281AD0A4F8C8628D
:10454000284670BD204602F04FFB0028F8D001201D
:104550000CE0204602F03AFA0028F1D0022005E0F3
:10456000204602F003FB0028EAD00320A4F8C8028A
:10457000E6E7204602F082FA0028E1D0A4F8C862FB
:10458000A4F8B2620025DBE7F0B5002690F8B9C2C6
:10459000A1B0012304463146354601AABCF1800F83
:1045A00017D00CDCB7484FF00707BCF1090F7DD2DC
:1045B000DFE80CF08393AAC17C7C7CDFF400ACF1D3
:1045C000810CBCF1050FF2D2DFE80CF01525354562
:1045D0005700B4F8B40208B1812045E1D4F898023C
:1045E0006421B0FBF1F201FB1200002802D1204649
:1045F00002F00EFC42E1D4E9A601814202D90A1A76
:10460000282A04D28142F5D2401A2828F2D3204623
:1046100002F0EAFA2EE0D4E9A601814202D90A1A90
:10462000282A04D28142E5D2401A2828E2D3204623
:1046300002F09CFA1EE0D4E9A601814202D90A1ACE
:10464000282A04D28142D5D2401A2828D2D3204623
:1046500002F051FA0EE0D4E9A601814202D90A1A09
:10466000282A04D28142C5D2401A2828C2D3204623
:1046700002F0ACF900282FD100E1D4E9A601814273
:1046800002D90B1A282B04D2814215D2401A2828AD
:1046900012D310230020411C09B222F81010084642
:1046A0009942F8DB43F60111204600E0DFE0009577
:1046B00003F08EF884F8B952E0E0D4E9A601814213
:1046C00002D90A1A282A04D2814251D2401A282833
:1046D0004ED3204602F072FBC3E0D4E9A603834226
:1046E00002D91F1A282F04D2834241D2C01A282887
:1046F0003ED322F81150491C09B22029F9DB8BB2B4
:104700004FF440510095A9E0D4E9A603834202D9B1
:104710001F1A282F04D283422AD2C01A282827D34E
:1047200022F81150491C09B21029F9DB8BB24FF461
:104730004451009592E0D4E9A603834204D9A3EB47
:10474000000CBCF1280F04D2834211D2C01A2828D1
:104750000ED322F81150491C09B20C29F9DB8BB297
:1047600041F201212046009503F032F884F8B97235
:1047700084E0D4E9A6128A4202D9571A282F04D21B
:104780008A427BD2891A282978D30088ADF80400A0
:1047900001AA4FF48051009560E0FFE7D4E9A6122A
:1047A0008A4202D9531A282B04D28A4266D2891A25
:1047B000282963D38188ADF804100189ADF806106B
:1047C00090ED030A01AABDEEC00A10EE101AADF872
:1047D000081030F8101FADF80A108188ADF80C10E1
:1047E0000189ADF80E108189ADF81010018AADF87D
:1047F0001210818AADF8141090ED060ABDEEC00AC1
:1048000010EE101AADF81610018FADF81810818E49
:10481000ADF81A10018EADF81C10818BADF81E108A
:10482000018CADF82010818CADF822105321ADF829
:104830002410ADF82610818FADF82810B0F8401084
:10484000ADF82A10B0F84410ADF82C10B0F84800BC
:10485000ADF82E00162341F20A010095204602F021
:10486000B7FF94F8B902401C84F8B90206E0B4F826
:10487000B602012802D1A4F8A432012621B03046A4
:10488000F0BD00004804002070B50446B0F8A40252
:10489000002501280FD109480125006910B1012028
:1048A000A4F8BC02B4F9BC12204602F029FA10B1F7
:1048B0000020A4F8A402284670BD0000480400208F
:1048C00070B5054690F84C000024122808D0012449
:1048D0002846FFF759FE012802D1122085F84C0026
:1048E000204670BD70B50546094800240068A0F553
:1048F0000051CD3909D101242846FCF7C3F92846D7
:10490000FBF7CEFF2846FCF721F9204670BD0000DA
:10491000180400200549082806D200EB8001C1EBED
:104920008010024901EB800108467047A86400200E
:10493000014890F861037047AC00002010B50020DA
:104940000B4A014640F2231302EB4104B4F85C40E9
:104950009C4207D002EB4100A0F85C3002EB8100E2
:10496000007E10BD491CC9B20429EDD310BD000062
:10497000480400200148006870470000080000203B
:1049800000B501464FF47A7203E01046491E00F06C
:1049900003F80029F9D100BD00EB8000C00000E061
:1049A000401E0028FCD17047064910B5064A31F870
:1049B000101052F82000FCF7F9FD002800D001206B
:1049C00010BD0000AE840008E00A00200349044A3C
:1049D00031F8101052F82000FCF7EDBD908400086B
:1049E000A40A00200449054A31F8101052F82000AA
:1049F0000122FCF7E8BD000090840008A40A002012
:104A00000449054A31F8101052F820000022FCF742
:104A1000DABD000090840008A40A002070477047A7
:104A2000704770477047000070B5007814460D4617
:104A3000012803D0022803D020B10DE0074809E087
:104A4000074807E0012291020648FCF7BCFD224618
:104A500029460548FEF7F6F8002070BD38230020EF
:104A60007C23002000000240C02300202DE9F041FB
:104A700088B0DFF8BC80002001466D4645F8201064
:104A8000401CC0B20828F9D3002601E0192E34D208
:104A90000024601DC0B2FFF7B3FF641CE4B2082C11
:104AA000F7D30A20FFF778FF0024601DC0B2FFF79C
:104AB00099FF641CE4B2082CF7D30A20FFF76CFFBF
:104AC0005FF00004671C55F82400400045F82400FE
:104AD000F8B2FFF769FF55F82410084445F82400A0
:104AE000FCB2082CEED30024601DC0B2FFF788FF93
:104AF000641CE4B2082CF7D302E01420FFF74CFF4B
:104B0000761CF6B21B2EC1D35FF0000303EB8300CB
:104B1000C0EB831255F8231008EB820001F008FD6A
:104B20005B1CDBB2082BF1D308B0BDE8F0810000BC
:104B3000A864002070B50024084DFFF797FF00BF60
:104B400004EB8400C0EB841005EB800000F048F912
:104B5000641CE4B2082CF3D370BD0000A8640020EC
:104B600010B54FF4FA6000F07DF8012818D100F07C
:104B70001DF8012814D10B4C6079002810D1207940
:104B8000401CC0B2207109280AD300F0E3F902F0FA
:104B900037FD054901206071A1F8B602A1F886052C
:104BA00010BD000084000020D40400202DE9F0474F
:104BB0002B4D00240327A9780120A046264605296D
:104BC00004D2DFE801F003050F1A4200A87043E0A9
:104BD000601DC0B2FFF706FF641CE4B2082CF7D3D7
:104BE0000220F3E7601DC0B2FFF70AFF641CE4B2C5
:104BF000082CF7D3AF70AE812EE0A98940F28A224B
:104C0000491C89B2A981914202D3AE81EE70DDE7E1
:104C1000DFF84C9009F10E0919F80400012805D1BC
:104C2000601CC0B2FFF7C0FE01280CD0641CE4B2C7
:104C3000082CF1D3E878411CE9700A280CD904202B
:104C4000A870EE7008E0AF70FBE7FFF773FFAF707E
:104C5000AE81EE704FF001084046BDE8F0870000DD
:104C6000840000202DE9F05F594F01462DED028BA5
:104C70000026F8883546884278D8401CF880387875
:104C80005449002401F1100B4FF0010808286DD29F
:104C9000DFE800F0040F2398981B3270701DC0B23B
:104CA000FFF7AEFE761CF6B2082EF7D387F8008029
:104CB00089E0701DC0B2FFF795FE761CF6B2082E93
:104CC000F7D3052038703C817DE03889401C80B2E4
:104CD00038810A2877D9022072E08846701DC0B258
:104CE000FFF78EFE28F81640761CF6B2082EF5D394
:104CF000062038707C8166E07A89B946521C7A8138
:104D00008A46771CF8B2FFF74FFE20B93AF8161022
:104D1000491C2AF81610FEB2082EF2D3B9F80A0080
:104D200040F28A214A4688424DD3507800215646A7
:104D30005B46474636F811C08046BCF1320F01EBA6
:104D4000410C9C4402D30CF8007001E00CF80040C8
:104D5000491CC9B20829EDD308F10100C0B2507056
:104D6000032804D3072089F800002CE02AE089F802
:104D7000004028E0C246A046154C9FED178BD9464F
:104D80000E34002106EB4603084603EB0902135CD0
:104D9000401C1944C0B2C9B20328F8D3084603F036
:104DA00057F953EC182B03F0F1F902D804F806A0D8
:104DB00001E004F80680761CF6B2082EE1D3082044
:104DC000387000E00125BDEC028B2846BDE8F09F5D
:104DD0008400002080640020CCCCCCCCCCCC004023
:104DE00030B504460020A17887B0012940D16D4636
:104DF00004EB8001496845F82010401CC0B2072828
:104E0000F6D307212846FCF72DF800202062022067
:104E1000216A55F82020401C1144C0B221620528A7
:104E2000F6D30846032190FBF1F16162D4F8E0204B
:104E3000002000BF04EB80035B6BDAB1994203DA18
:104E4000401CC0B20A28F5D300EE901A04EB800093
:104E5000F8EEE00A90ED210A20EE800AD0ED2C0A4F
:104E600030EE800AD4ED390AC4ED3A0A84ED390AED
:104E700007B030BD9942E7DDE2E7000001460020BF
:104E8000054A082906D201EB8100C0EB811002EB34
:104E90008000406A70470000A8640020024901EBCE
:104EA000800090ED000A7047086C0020F0B5244C9B
:104EB00000231A4603EB8300C0EB8310002104F8A3
:104EC000203004EB80008270C2700262C0F824209F
:104ED00000EB8105491CC9B26A600A29F8D3194D53
:104EE000002100BF00EB810755F82160FE654618E0
:104EF000491CC9B286F828200A29F3D300219FED66
:104F0000120ADFED120A00BF00EB8105491C85ED96
:104F1000210AC9B2C5ED2C0A0B29F5D301219FED59
:104F20000C0A5B1C80ED370AC0F8E02080ED390ADE
:104F300080ED3A0ADBB24170082BBBD3F0BD000014
:104F4000A86400205C840008124DA03AE1DA85C311
:104F50000000000010B511495FF0000000EB800276
:104F6000C2EB801201EB8202401C92ED390AC0B202
:104F700082ED370A0828F1D3FFF790FAFFF7F6F928
:104F80000020074A014600BF02EB4003401CC0B2AC
:104F9000A3F85C100428F7D310BD0000A86400201B
:104FA0004804002070B50446B0F85A02002542F2C9
:104FB0000111884214D1B4F85E020125A0F5E06128
:104FC000E5390DD10120A4F86402A4F8660294F832
:104FD0006C0204F51974FFF735FA207AFFF7EEF941
:104FE000284670BDB0F85A220021B2F5045F12D1F4
:104FF0000022A0F86622B0F86C32B0F95E220121DE
:10500000934208D00123A0F86832082A03DCB0F8E4
:105010005E22A0F86C22084670472DE9F041044654
:105020000026B0F866023546012836D1B4F85A0297
:10503000B0F5145F31D342F20A5188422DD2B4F94F
:105040005E120126A1F59052FE3A26D10121A4F864
:10505000621294F8B812C7B241F0010184F8B81294
:10506000B4F86C02E0B1082817D8401EC0B2FFF7B0
:1050700005FFC11700EBD150451294F86C02394678
:10508000401EC0B202F004FC94F86C022BB2401E29
:10509000C0B20122394600F071FE3046BDE8F08111
:1050A0002846FFF7EBFEC11700EBD15044123946FA
:1050B000284602F0EDFB23B201223946284600F0D3
:1050C0005DFE6D1CEDB2082DEAD3012223B23946F4
:1050D0000820E0E72DE9F0410446B0F85A024FF00D
:1050E0000008A0F5085046460A2835D294F8B812B0
:1050F000C7B241F0010184F8B812A4F86E0204EBC3
:105100008701B4F95E02C1F87002B4F95E52B4F8D6
:105110006C024FF0010860B1401EC0B22A46394609
:1051200002F084F894F86C022A46401EC0B2394658
:1051300010E02A463946304602F078F82A463946C9
:10514000304600F02FFE761CF6B2082EF1D32A4628
:105150003946304600F026FE4046BDE8F081B0F802
:105160005A32002141F20312934207D1B0F85E3265
:105170000121934202D10122A0F8AC2208467047D7
:10518000B0F85A32002141F20212934207D1B0F82E
:105190005E320121934202D10122A0F8AA220846E0
:1051A0007047B0F85A32002141F20112934207D100
:1051B000B0F85E320121934202D10122A0F8A4226C
:1051C0000846704710B5B0F85A220021A2F50453E2
:1051D000033B11D1B0F85E320121A3F5E0640A4629
:1051E000E53C04D0A3F58064B23C03D004E0A0F811
:1051F000A02201E0A0F8A622084610BDB0F85A226D
:105200000021A2F50453043B09D1B0F85E2201212C
:10521000A2F54073F23B02D10122A0F8AE2208466B
:105220007047000010B5B0F85A2200240A49A2F5D0
:105230000453023B0ED1B0F85E220124A2F52543AF
:105240005A3B07D10122A0F86022A1F86022104643
:1052500001F0E6FF204610BDD404002070B5B0F880
:105260005A1200250A46A1F580511E297BD8012536
:105270000B463E492C46202B62D2DFE803F010613A
:10528000616161616161616114181C25296161615D
:10529000612D363C4044486161614C55595DB0F91F
:1052A0005E220A6059E0B0F95E224A6055E0B0F92A
:1052B0005E228A6051E0B0F95E2200EE102AB8EE5C
:1052C000C00A81ED030A48E0B0F95E220A6144E0B9
:1052D000B0F95E224A6140E0B0F95E2200EE102A89
:1052E000B8EEC00A81ED0A0A37E0B0F95E228A649E
:1052F000A0F8B04231E0B0F95E224A642DE0B0F986
:105300005E220A6429E0B0F95E22CA6225E0B0F9A3
:105310005E220A6321E0B0F95E22CA641449A0F853
:10532000B242A1F8824518E0B0F95E220A6514E0A5
:10533000B0F95E224A6510E0B0F95E228A650CE0A1
:10534000A2F580530F3B032B07D801EB8201A1F597
:10535000A041B0F95E32C1F8DC3F90F8B81241F0DC
:10536000020180F8B812284670BD000048040020F1
:10537000D404002010B504460020B4F85A12A1F558
:10538000A852103A0AD1B4F95E02FEF737FB94F83E
:10539000B80240F0020084F8B802012010BD10B538
:1053A000B0F85A120024A1F5CC42663A07D1B0F900
:1053B0005E02A0F525415A3901D1FCF767FC204671
:1053C00010BD10B5B0F85A2200210E2A05D10121D6
:1053D000A0F8B41202F014F90121084610BD000033
:1053E000B0F85A220021A12A04D1034A90F85E02A3
:1053F0000121107008467047041B002070B5044658
:10540000B0F8B202002501280CD1B4F8C802012579
:1054100050B101280FD0022814D0002603281AD03A
:10542000A4F8C862284670BD204601F0DDFB0028C4
:10543000F8D001200CE0204601F0C8FA0028F1D095
:10544000022005E0204601F091FB0028EAD003206D
:10545000A4F8C802E6E7204601F010FB0028E1D0DE
:10546000A4F8C862A4F8B2620025DBE770B505466F
:10547000B0F8B0020024012807D10124284601F029
:105480009DFC10B10020A5F8B002204670BD0000C0
:10549000F0B50446002094F8B9C2A1B00526012356
:1054A000F3490546024601AFBCF1080F7ED008DC87
:1054B000BCF1080F1FD2DFE80CF0566688A1B9F8DE
:1054C000F6F5BCF12A0F72D00CDCBCF1090F6FD0DD
:1054D000BCF10A0F6DD0BCF10B0F6BD0BCF1290FE2
:1054E00009D1B6E0BCF1800F0AD0BCF1810F19D010
:1054F000BCF1820F30D0B4F8B60201287DD0B4E1FF
:10550000B4F8B40208B18120B5E0D4F8980264215F
:10551000B0FBF1F201FB12000028F0D1204601F0AF
:1055200077FCA2E1D34ED4F89802B6F90410B0FB90
:10553000F1F201FB12000028E1D1B6F90210204679
:1055400001F0DEFB0128DAD1B6F90200411C7180BE
:105550001928D4DB82208EE0B4F8B6020128CED11F
:1055600084F8B92281E1D4E9A601814202D90A1A5C
:10557000282A04D28142C2D2401A2828BFD320460A
:1055800001F01CFC1DE0D4E9A6138B4202D95E1A7F
:10559000282E04D28B42B2D2C91A2829AFD327F8B9
:1055A0001020401C00B22028F9DB04E0BFE065E0D9
:1055B00020E134E144E1009283B23A464FF4405195
:1055C000B1E094F8B902401C55E0D4E9A6138B422F
:1055D00002D95E1A282E04D28B4290D2C91A2829E9
:1055E0008DD327F81020401C00B21028F9DB009260
:1055F00083B23A464FF4445195E033E1D4E9A6131F
:105600008B4202D95E1A282E04D28B4289D2C91A43
:10561000282986D327F81020401C00B20C28F9DB7B
:10562000009283B23A4641F201217CE0D4E9A6100F
:10563000884202D9421A282A04D288421DD2081A66
:1056400028281AD3204601F0CFFA002815D02920A7
:1056500011E0D4E9A601814202D90A1A282A04D20B
:1056600081420AD2401A282807D3204601F0AEF919
:10567000002802D02A2084F8B902F6E0D4E9A60175
:10568000814202D90A1A282A04D2814209D2401A38
:10569000282806D3204601F02EFA002801D084F8ED
:1056A000B962E2E02CE019E0FFE7D4E9A6138B42EF
:1056B00002D95E1A282E04D28B427DD2C91A28291B
:1056C0007AD3411C09B227F8101008461029F8DBDC
:1056D0008BB200923A4643F6011124E0D4E9A601C8
:1056E000814202D90A1A282A04D2814264D2401A7D
:1056F000282861D3B4F9BC12204601F001FB60E711
:10570000D4E9A660B04202D9871B282F04D2B04248
:1057100052D2301A28284FD308880092ADF80400DE
:1057200001AA4FF48051204602F052F849E7D4E92B
:10573000A603834202D91E1A282E04D283423BD2EA
:10574000C01A282838D38888ADF804000889ADF835
:10575000060091ED030ABDEEC00A10EE100AADF886
:10576000080031F8100FADF80A008888ADF80C0079
:105770000889ADF80E008889ADF81000088AADF8E8
:105780001200888AADF8140091ED060ABDEEC00A39
:1057900010EE100AADF81600088FADF81800888ECC
:1057A000ADF81A00088EADF81C00888BADF81E000D
:1057B000088CADF8200000E053E0888CADF82200A2
:1057C0005320ADF82400ADF82600888FADF82800EE
:1057D000B1F84000ADF82A00B1F84400ADF82C0053
:1057E000B1F848000092ADF82E0016233A4641F277
:1057F0000A0198E7D4E9A601814202D90E1A282E9F
:1058000004D2814231D2401A28282ED3B4F86C0237
:105810000092ADF804003A464FF4045183E7D4E90E
:10582000A601814202D90A1A282A04D281421CD236
:10583000401A282819D31321204601F07FFBC0E627
:10584000D4E9A601814202D90A1A282A04D2814247
:105850000BD2401A282808D3204601F087F90028E7
:10586000EDD102E0A4F8A432012521B02846F0BD14
:1058700048040020081C002070B50546B0F8CA0294
:10588000002401280BD1074E0124307838B928466E
:1058900001F026FB18B100203070A5F8CA0220469E
:1058A00070BD0000081C002070B50446B0F8A602C8
:1058B0000025012809D10125B4F9C012204601F0C4
:1058C0001FFA10B10020A4F8A602284670BD70B5DA
:1058D0000446B0F8AC020025012809D10125B4F92D
:1058E000C412204601F00CFA10B10020A4F8AC025A
:1058F000284670BD70B50446B0F8AA0200250128FC
:1059000009D10125B4F9C612204601F0F9F910B108
:105910000020A4F8AA02284670BD70B50446B0F86D
:10592000A8020025012809D10125B4F9C612204694
:1059300001F0E6F910B10020A4F8A802284670BDD5
:1059400070B50446B0F8A4020025012809D101254C
:10595000B4F9BC12204601F0D3F910B10020A4F82C
:10596000A402284670BD70B50446B0F8A002002518
:10597000012809D10125B4F9BE12204601F0C0F971
:1059800010B10020A4F8A002284670BD70B50446EE
:10599000B0F8A2020025012809D10125B4F9BA12F4
:1059A000204601F0ADF910B10020A4F8A20228466B
:1059B00070BD70B50446B0F8AE020025012809D1CB
:1059C0000125B4F9C212204601F09AF910B1002065
:1059D000A4F8AE02284670BD70B5054690F84C009C
:1059E0000024122808D001242846FFF751FD012881
:1059F00002D1122085F84C00204670BD70B50546D6
:105A00000A4800240068A0F50051CD390CD10124CA
:105A10002846FBF737F92846FAF742FF2846FBF7F6
:105A200095F8284601F0FAF9204670BD18040020C8
:105A300001460020A1F10902022A06D201EB410031
:105A4000024901EB400010F8310C7047286C00202F
:105A50002DE9F04100F042F81E4C00270126207885
:105A60001D4D00284FF00A0003D0FFF7E1FF60B1A1
:105A70000CE0FFF7DDFF012808D12670A5F8606271
:105A8000A5F8306501F0CCFB00E0277060780028B5
:105A90004FF0090006D0FFF7CBFF002800D1677058
:105AA000BDE8F081FFF7C4FF0128F9D16670A07846
:105AB00010F0010100F10100A07006D00029EFD024
:105AC000A5F8A462A5F87465EAE7A5F8A262A5F8AE
:105AD0007265E5E79A000020D404002070B5104DEF
