:020000040800F2
:10000000E87300202903000889310008B3240008A0
:10001000052D0008A90600082D3800080000000082
:10002000000000000000000000000000690200085D
:10003000B107000800000000C5020008DD3100081B
:100040004303000843030008430300084303000878
:100050004303000843030008430300084303000868
:100060004303000843030008430300084303000858
:10007000AD06000843030008B90600084303000862
:10008000C5060008D1060008430300084303000822
:100090004303000843030008430300084303000828
:1000A0004303000843030008430300084303000818
:1000B0004303000843030008430300084303000808
:1000C00043030008430300084303000843030008F8
:1000D00043030008D9370008F13700080938000841
:1000E00043030008430300084303000843030008D8
:1000F00043030008430300084303000843030008C8
:1001000043030008430300084303000843030008B7
:100110004303000843030008B1320008430300080A
:1001200043030008DD060008E90600084303000851
:100130004303000843030008430300084303000887
:100140004303000843030008430300084303000877
:1001500043030008F50600080107000821380008DD
:100160004303000843030008430300084303000857
:100170004303000843030008430300080000000095
:10018000430300084303000800F002F800F05CF8A5
:100190000AA090E8000C82448344AAF10107DA45E2
:1001A00001D100F051F8AFF2090EBAE80F0013F0D8
:1001B000010F18BFFB1A43F001031847F08200003B
:1001C000108300000A444FF0000C10F8013B13F0BC
:1001D000070408BF10F8014B1D1108BF10F8015BA0
:1001E000641E05D010F8016B641E01F8016BF9D193
:1001F00013F0080F1EBF10F8014BAD1C0C1B09D1EA
:100200006D1E58BF01F801CBFAD505E014F8016B5B
:1002100001F8016B6D1EF9D59142D6D370470000ED
:100220000023002400250026103A28BF78C1FBD8FF
:10023000520728BF30C148BF0B6070471FB507F099
:10024000ADFF1FBD10B510BD00F0A6F91146FFF7B8
:10025000F5FF04F081FB00F0C4F903B4FFF7F2FFEF
:1002600003BC00F0CBF900002C4B19680868B0E81B
:10027000F04F80F30988BFF36F8F4FF0000080F3D9
:10028000118870470000000008480068006880F38B
:1002900008884FF0000080F3148862B661B6BFF39F
:1002A0004F8FBFF36F8F00DF00BF00BF08ED00E08E
:1002B000DFF80C00016841F470010160704700BF75
:1002C00088ED00E0EFF30980BFF36F8F134B1A68DE
:1002D0001EF0100F08BF20ED108A20E9F04F1060CB
:1002E00009B44FF0500080F31188BFF34F8FBFF374
:1002F0006F8F07F049FB4FF0000080F3118809BCB5
:1003000019680868B0E8F04F1EF0100F08BFB0EC95
:10031000108A80F30988BFF36F8F70471C0000209C
:10032000EFF30580704700000948804709480047FF
:10033000FEE7FEE7FEE7FEE7FEE7FEE7FEE7FEE795
:10034000FEE7FEE704480549054A064B70470000F2
:10035000A132000889010008E86B0020E873002042
:10036000E86F0020E86F002053EA020C00F069807B
:100370002DE9F04B4FF00006002B1FBFB3FA83F5B9
:1003800003FA05F424FA05F65E4012BF1643B2FAEA
:1003900082F502FA05F4C5F120051EBF22FA05FC1C
:1003A00044EA0C04203556EA044C4FEA144418BFC2
:1003B000641C4FF000084FF00009904271EB030CF1
:1003C00039D3002919BFB1FA81F701FA07F6B0FA5B
:1003D00080F700FA07F6C7F120071EBF20FA07FCD6
:1003E00046EA0C062037B6FBF4FCA7EB0507103FE6
:1003F00007F01F0BCBF120060CFA0BFB2CFA06F6CC
:1004000044BFB3460026202FA4BF5E464FF0000B2A
:100410005BEA060C08BF4FF0010B19EB0B09ABFBB5
:10042000027C48EB0608C01B06FB02CC0BFB03CC8E
:1004300071EB0C01C1E70B46024641464846BDE858
:10044000F08B13B54FF000004FF00001AFF30080C8
:10045000BDE81C407047032A40F2308010F0030CC6
:1004600000F0158011F8013BBCF1020F624498BF07
:1004700011F801CB00F8013B38BF11F8013BA2F1A4
:10048000040298BF00F801CB38BF00F8013B11F01F
:10049000030300F02580083AC0F0088051F8043BBF
:1004A000083A51F804CBA0E80810F5E7121D5CBF2C
:1004B00051F8043B40F8043BAFF30080D20724BF5F
:1004C00011F8013B11F801CB48BF11F8012B24BFF3
:1004D00000F8013B00F801CB48BF00F8012B704742
:1004E00010B5203AC0F00B80B1E81850203AA0E8CF
:1004F0001850B1E81850A0E81850BFF4F5AF5FEA03
:10050000027C24BFB1E81850A0E8185044BF18C9B5
:1005100018C0BDE810405FEA827C24BF51F8043B5C
:1005200040F8043B08BF7047D20728BF31F8023BB0
:1005300048BF11F8012B28BF20F8023B48BF00F844
:10054000012B70474FF0000200B5134694469646C3
:10055000203922BFA0E80C50A0E80C50B1F12001D6
:10056000BFF4F7AF090728BFA0E80C5048BF0CC084
:100570005DF804EB890028BF40F8042B08BF7047E2
:1005800048BF20F8022B11F0804F18BF00F8012B54
:100590007047704770477047754600F02BF8AE46BD
:1005A00005006946534620F00700854618B020B57F
:1005B000FFF7C8FEBDE820404FF000064FF00007EF
:1005C0004FF000084FF0000B21F00701AC46ACE8FB
:1005D000C009ACE8C009ACE8C009ACE8C0098D4668
:1005E000704710B50446AFF300802046BDE81040C8
:1005F000FFF733BE00487047846B00200149182084
:10060000ABBEFEE72600020070470000F0B50024F4
:1006100026E000260123171B1CE000BF00EB83052A
:10062000D5ED000A15ED010AF4EEC00AF1EE10FA5C
:100630000ED245ED010A85ED000A01EB430631F8C3
:1006400013C036F8025C26F802CC21F813500126BC
:100650005B1CDBB29F42E1DC002E03D0641CE4B2E1
:100660009442D6D3F0BD0000F0B5002319E0002578
:100670000122CE1A0FE000BF00EB820750F822C023
:1006800057F8044CA44504DA47F804CC40F822405B
:100690000125521CD2B29642EEDC002D03D05B1C29
:1006A000DBB28B42E3D3F0BDFEE70000014800F06F
:1006B000F3B80000D4190020014800F0EDB80000A4
:1006C000341A0020014800F0E7B800001419002097
:1006D000014800F0E1B8000074190020014800F062
:1006E000DBB80000941A0020014800F0D5B80000E3
:1006F00054180020014800F0CFB80000F41A002080
:10070000014800F0C9B80000B4180020016818239F
:10071000CAB2103AB2FBF3F2054B6FF30901032A98
:100720009B5CC36500D9091D8165084670470000C0
:10073000E881000810B5014600208B698A6A4FF0F5
:10074000C07453B1B3F5005F15D072B1012A0CD05B
:10075000022A0AD0032A09D104E01AB1012A06D0DC
:10076000022A03D1C96AC90100D5012010BDC96A96
:10077000A142FAD010BD002AF7D0012AF2D0022AF5
:10078000F3D0032AF3D010BD30B50468256825F4F2
:1007900080252560046863608368402B036803D06C
:1007A00099600068C26030BD9A600068C16030BD69
:1007B000704772B6FEE700009FED070A074A082956
:1007C00009D2022807D3032805D202EB401000EB20
:1007D000810090EDBB0A704700000000AC000020D3
:1007E0002DE9F0410446876D00F0D2FA064694F8F0
:1007F00035000025022806D08020606584F834503A
:100800000120BDE8F0812068016821F01601016037
:100810002068416921F080014161206C08B9A06C19
:1008200020B12068016821F008010160206801689A
:1008300021F0010101600CE000F0AAFA801B0528FC
:1008400007D920206065032084F8350084F83450EF
:10085000D7E720680068C007EED194F85C103F200D
:100860008840B860012084F8350084F834500020B6
:10087000C7E790F83510022903D080214165012097
:100880007047052180F835100068016821F00101EA
:1008900001600020704700002DE9F84304464FF046
:1008A0000009CDF8009063484FF41651A56D00681B
:1008B000B0FBF1F72E6894F85C10082000FA01F103
:1008C00031420FD021680A6852070BD50A6822F01E
:1008D00004020A6094F85C108840A860606D40F0E3
:1008E0000100606594F85C104FF0010808FA01F00F
:1008F000304208D021684969090604D5A860606DB6
:1009000040F00200606594F85C100420884030429A
:1009100008D021680968890704D5A860606D40F097
:100920000400606594F85C1010208840304218D0B4
:1009300021680968090714D5A8602068016849037F
:1009400004D50068000308D5A16C07E00168C9055B
:1009500003D4016821F008010160216C09B120462F
:10096000884794F85C1020208840304231D02168BC
:100970000968C9062DD5A86094F8350005282068B7
:10098000016806D0490347D5006800031DD4616C97
:100990001CE021F0160101602068416921F080010E
:1009A0004161206C08B9A06C20B12068016821F079
:1009B0000801016094F85C103F208840A86084F82A
:1009C000358084F83490216D1FE0E16B09B1204639
:1009D0008847606D00282BD0606DC00714D00520BB
:1009E00084F835002068016821F001010160009859
:1009F000401C0090B84203D820680068C007F6D1B8
:100A000084F8358084F83490E16C002910D001B06E
:100A10002046BDE8F04308470168C905D5D4016800
:100A200021F01001016084F8358084F83490CCE71F
:100A3000BDE8F883180000202DE9F041044600F0DD
:100A4000A7F906465CB1022084F83500002584F839
:100A500034502068016821F0010101600DE001209F
:100A6000BDE8F08100F094F9801B052805D920200D
:100A70006065032084F83500F2E720680068C0074D
:100A8000F0D12268116820480140D4E901031843DD
:100A9000D4E903363343184363691843A369184301
:100AA000E3691843236A18430843616A042903D1A0
:100AB000D4E90B1319430843106020684069666A43
:100AC00020F0070130460E43012704280CD1A06A0C
:100AD0000643E06A40B12046FFF72CFE20B14020DB
:100AE000606584F83570BAE7206846612046FFF7F4
:100AF0000DFE94F85C203F2191408160656584F88B
:100B000035700020ACE700003F8010F02DE9F04187
:100B10000446866D90F83400002501280DD0012090
:100B200084F8340094F835700020012F07D084F841
:100B3000340002252846BDE8F0810220FBE70227A9
:100B400084F8357060652046FFF71EFE94F85C104F
:100B50003F208840B0602068016841F016010160C4
:100B6000206C20B12068016841F008010160206814
:100B7000016841F001010160DCE700002DE9F84F58
:100B8000DFF8BCA10022012503264FF00F090AF16E
:100B9000040BAAF1040E00BF0B6805FA02F423400F
:100BA000A34270D10F7907F00307012F01D0022F64
:100BB00016D187684FEA420806FA08FC27EA0C07B4
:100BC000D1F80CC00CFA08FC4CEA070CC0F808C0BD
:100BD0004768A7430C79C4F3001494403C43446035
:100BE0000C79E443A4070AD0C4684FEA420C06FA21
:100BF0000CF7BC438F6807FA0CF72743C7600C79E2
:100C000004F00304022C12D1D40800EB840CDCF8AD
:100C100020405707FF0E09FA07F824EA0804D1F824
:100C2000108008FA07F848EA0408CCF82080046825
:100C30004FEA420C06FA0CF7BC430F7907F00307A2
:100C400007FA0CF7274307604C6814F4403F70D054
:100C50003C4C276847F480472760246822F003074C
:100C600004F480440094384C07EB040CDCF808488A
:100C700097074FEA177809FA08F7BC43334FB84291
:100C800002D1002724E054E0314FB84201D10127BE
:100C90001EE0304FB84201D1022719E02E4FB84272
:100CA00001D1032714E02D4FB84201D104270FE0F2
:100CB0002B4FB84201D105270AE02A4FB84201D193
:100CC000062705E0284FB84201D1072700E0082792
:100CD00007FA08F72743CCF80878DAF800405746B7
:100CE000D1F804C09C435FEACC2C00D51C433C6087
:100CF000DBF800405F46D1F804C09C435FEA8C2CCF
:100D000000D51C433C60DEF800407746D1F804C0B3
:100D10009C435FEA8C3C00D51C433C60084F083F75
:100D20003C68D1F804C09C435FEACC3C00D51C432E
:100D30003C60521C102AFFF42FAFBDE8F88F000072
:100D4000083C0140443802400030014000000240AD
:100D50000004024000080240000C02400010024063
:100D60000014024000180240001C024000690840C4
:100D700000D001207047426921EA02030A4043EA99
:100D80000241816170470AB1816170470904FBE744
:100D900001488068704700000C00002070B5040016
:100DA00025D094F83D00002520B984F83C50204619
:100DB00000F04CFA242084F83D002068016821F0FE
:100DC000010101602068016841F400410160206870
:100DD000016821F40041016000F0F2FB4D4A6168B6
:100DE000914201D84C4900E04C49884201D201208F
:100DF00070BD4B492368B0FBF1F15E6826F03F06F9
:100E00000E435E606368934206D94FF4967359436C
:100E10004FF47A73B1FBF3F12368491C1E6A26F084
:100E20003F06314319626168914210D84900401E63
:100E3000B0FBF1F2521CC2F30B02042A01D20420CF
:100E400022E0B0FBF1F0401CC0F30B001CE0A268F4
:100E5000F2B301EBC10303EB0116431EB3FBF6F340
:100E60005B1C43F480431B0549D092B301EBC102E4
:100E700002EB0111401EB0FBF1F0401CC0F30B006F
:100E800040F4804040F400402168CA694CF6FF738A
:100E90009A431043C861D4E90710014320680268EF
:100EA00022F0C00211430160D4E90301014320682C
:100EB000826848F2FF339A4311438160D4E9050107
:100EC00008432168CA6822F0FF021043C86001E0AD
:100ED0000EE016E02068016841F001010160256420
:100EE000202084F83D00256384F83E50002070BD2A
:100EF00001EB4106431EB3FBF6F35B1CB3E7012095
:100F0000C2E701EB4101401EB0FBF1F0401CC0F311
:100F10000B00B7E7A086010080841E0000093D0099
:100F200040420F002DE9FF4F83B09A46DDE911974B
:100F300093460446DDF84080FFF72AFF054694F803
:100F40003D00202870D119230122714920460095C7
:100F500001F0C0FB0028F5D194F83C00012863D0D3
:100F6000012084F83C0020680168C90703D10168AA
:100F700041F0010101602068016821F40061016015
:100F8000222084F83D00402084F83E00002626649C
:100F9000C4F82480A4F82A90608D20855D48E06222
:100FA000CDE9007553465A462046049901F09AFA55
:100FB00000287CD1208DD0B1012821D002282068C2
:100FC00024D0416980690090208D032869D80128C8
:100FD0002BD0514902283B464FF00002009559D0D2
:100FE0008846204601F076FB002860D13CE020686E
:100FF000416981690091016841F40071016077E005
:101000002068016821F480610160F0E7016821F443
:10101000806101602068016841F40061016020681E
:1010200041698069009063E06FE02A4639462046B6
:1010300001F0CFFB98BB20680069616A08704EE040
:101040002068016841F40071016020680069616AEC
:101050000870606A401C6062218D491E2185618D87
:10106000491E6185216838E02068016821F48061AB
:10107000016020680069616A0870606A401C6062F3
:10108000208D401E2085608D401E60853B460022DD
:1010900041460095204601F01DFB00B9D0E706E06F
:1010A000FFE72A463946204601F093FB18B101209C
:1010B00007B0BDE8F08F20680069616A0870606A57
:1010C000401C6062218D491E2185618D491E61850C
:1010D00021684A69D24352070AD409690170606ADB
:1010E000401C6062208D401E2085608D401E608502
:1010F000208D00287FF468AF202084F83D0084F81C
:101100003E6084F83C600020D2E70220D0E7000077
:10111000020010000000FFFF040001002DE9FF4F56
:1011200083B09A46DDE9119793460446DDF8408086
:10113000FFF72EFE054694F83D0020287FD11923A5
:10114000012240492046009501F0C4FA002876D1DA
:1011500094F83C00012872D0012084F83C002068FB
:101160000168C90703D1016841F0010101602068ED
:10117000016821F400610160212084F83D004020D5
:1011800084F83E0000262664C4F82480A4F82A903F
:10119000608D20852C48E062CDE9007553465A46A3
:1011A0002046049901F01CFA70B930E02A4639460D
:1011B000204601F041FB58B1206C042804D120687E
:1011C000016841F400710160012007B0BDE8F08FB3
:1011D000606A216800780861606A401C6062218D45
:1011E000491E89B22185628D521E6285226853692B
:1011F000DB435B070BD469B100781061606A401C67
:101200006062208D401E2085608D401E6085208D8F
:101210000028CBD12A463946204601F035FA00286D
:10122000CAD154F83D0B016841F4007101602020DF
:1012300004F81E09E67766770020C6E7FFE702207C
:10124000C3E70000020010000000FFFF10B586B0E9
:10125000044614216846FFF775F91449206888424E
:1012600021D113480021026842F0020202600068A6
:1012700000F0020005904FF4407000901220CDE97C
:101280000101032003900420049069460948FFF7F8
:1012900075FC07481030016841F4001101600068D6
:1012A00000F40010059006B010BD0000005400408E
:1012B000303802400004024002488168027811443C
:1012C000816070470C0000200B4810B5016841F4A4
:1012D00000710160016841F480610160016841F4BE
:1012E00080710160032000F09FF80F2000F006F8E5
:1012F00000F050F8002010BD003C024030B505461B
:101300001F4887B00024016841F0100101600068A7
:1013100006A900F01000009001A800F031F904982F
:10132000A8B100F04DF940001649174AB0FBF1F1A1
:101330001648491E026040F2E732C0E90324C0E9C2
:101340000114846100F08EFB040003D015E000F06E
:1013500037F9E9E70D4800F0C7FB04000DD136204E
:1013600000F034F8102D07D200222946362000F074
:101370003BF80748056000E0012407B0204630BD77
:101380004038024040420F0000100040541B002033
:10139000100000200C4882B0016841F480410160D7
:1013A000006800F4804000900748001F016841F089
:1013B000805101600068002200F0805000900F21F1
:1013C000901E02B000F010B844380240002809DB3B
:1013D00000F01F02012191404009800000F1E0204F
:1013E000C0F8001170470000F0B40E4B1B680C46AB
:1013F000C3F30223C3F10705042D00D90425191DE9
:10140000072901D2002300E0DB1E012606FA05F1C0
:10141000491E214099409E40761E16403143F0BC43
:1014200002F08ABA0CED00E0064900F007020868F5
:101430004FF6FF03184040EA0220034A10430860B9
:10144000704700000CED00E00000FA052DE9F047C0
:101450000E46050065D0DFF81481D8F80000F7B219
:1014600000F00700B04207D288F80070D8F80000FA
:1014700000F00700B04254D128683D4C810712D5D6
:10148000400703D5206840F4E0502060287800072A
:1014900003D5206840F4604020602068A96820F0EF
:1014A000F000084320602878C0072DD030496868D4
:1014B0000839012812D0022813D0032811D0096856
:1014C000890700292DDA216821F0030101432160F9
:1014D000FFF75EFC814641F2883A0EE00968890315
:1014E000EFE709688901ECE7FFF752FCA0EB09017F
:1014F000514502D90320BDE8F0872068696800F0F3
:101500000C00B0EB810FEFD1D8F80010404601F08D
:101510000701B14207D90770006800F00700B04228
:1015200001D00120E7E72878400705D52068E96861
:1015300020F4E050084320602878000706D5206892
:10154000296920F4604040EAC100206000F058F8AA
:101550002168084AC1F30311515CC840064908607C
:1015600006480068FFF7CAFE0020C4E7003C0240BE
:1015700008380240F0810008180000201000002008
:101580000F2202600C4A136803F0030343601368E0
:1015900003F0F0038360136803F4E053C360126840
:1015A0004FF4E05303EAD20202610448006800F0FD
:1015B000070008607047000008380240003C024005
:1015C0000448054900680968044AC1F38221515C56
:1015D000C840704718000020083802400082000808
:1015E0000448054900680968044AC1F34231515C66
:1015F000C8407047180000200838024000820008E8
:10160000154810B5006810F00C02144813D01449A6
:10161000042A0FD0082A0ED10F4C241F22682368F9
:1016200002F03F025B0207D52068C0F38810A0FBE0
:10163000010106E0084610BD2168C1F38811A1FB35
:1016400000010023FEF790FE2168C1F30141491C0F
:101650004900B0FBF1F010BD083802400024F4004E
:1016600040787D012DE9F84F04006ED02078DFF836
:101670004C93C007A9F104054AD009F104000168A0
:10168000C1F38101012908D00068C0F3810002285C
:101690000AD1D9F80000400206D52868800337D562
:1016A00060680028E1D033E06068B0F5803F10D07A
:1016B000B0F5A02F286810D020F48030286028686A
:1016C00020F4802028606068A8B1FFF761FB06461F
:1016D0000DE0286840F48030F4E740F48020286072
:1016E000F7E700BFFFF754FB801B642873D8286816
:1016F0008003F7D50CE0FFF74BFB064605E000BF83
:10170000FFF746FB801B6428F0D828688003F7D4D5
:101710002078DFF8AC8280074FF0000A3ED5A7485A
:10172000001D016811F00C0F08D00068C0F38100A3
:1017300002280BD1D9F80000400207D4286880079E
:1017400016D5E068012800D112E033E1E068B8B1B5
:101750000120C8F80000FFF71BFB064605E000BFAC
:10176000FFF716FB801B0228C0D828688007F7D532
:101770002868216920F0F80040EAC10028600DE0E7
:10178000C8F800A0FFF704FB064604E0FFF700FBE3
:10179000801B02281FD828688007F7D4207800070C
:1017A00022D5864F87486169703771B10121016088
:1017B000FFF7EEFA064604E0FFF7EAFA801B02287C
:1017C00009D838688007F7D50EE0C0F800A0FFF709
:1017D000DFFA064605E082E0FFF7DAFA801B02280E
:1017E0007DD838688007F7D42078400768D5DFF8BF
:1017F000CCB100270BF13C0BDBF80000C0000BD490
:10180000DBF8001041F08051CBF80010DBF800004D
:10181000012700F0805000906B4E3068C00510D456
:10182000306840F480703060FFF7B2FA009005E055
:10183000FFF7AEFA0099401A022850D83068C00568
:10184000F6D55E4EA0686C3601280FD005283068AA
:1018500010D020F001003060306820F004003060CB
:10186000A068B8B1FFF794FA00900FE0306840F03C
:101870000100F4E740F004003060F7E7FFF788FA72
:101880000099411A41F28830814266D83068800759
:10189000F4D50EE0FFF77CFA009007E0FFF778FA46
:1018A0000099411A41F28830814256D83068800749
:1018B000F4D42FB1DBF8001021F08051CBF80010E8
:1018C000A069C8B33D49091D0968C1F38101022916
:1018D0004AD00228504607D0C8F8600000E03CE03B
:1018E000FFF756FA04463BE04746C8F86000FFF7AA
:1018F0004FFA064605E000BFFFF74AFA801B0228B0
:101900002BD828688001F7D4D4E907010843A16ADD
:101910002E4A490802EB0141626A41EA82110843FA
:1019200094F82C1040EA0161C9F8001001203866D3
:10193000FFF72EFA044606E03EE000BFFFF728FA64
:10194000001B022809D828688001F7D534E000BFC1
:10195000FFF71EFA001B022802D90320BDE8F88F0A
:1019600028688001F4D427E00128F7D0D9F80000D6
:10197000E26900F4800191421CD1226A00F03F012B
:10198000914217D147F6C071626A0140B1EB821FE4
:1019900010D1A26A4FF0FF3300F4403103EB520242
:1019A000B1EB024F06D194F82C1000F07060B0EB50
:1019B000016F01D00120D1E70020CFE704380240B9
:1019C00000004742800E4742007000400000FFFFC9
:1019D0007047704770B590F83C20012A32D001243E
:1019E00080F83C40022280F83D2003685A689D68D8
:1019F00022F070060A6832435A60134B02689A421A
:101A000014D0B2F1804F11D0104B9A420ED0104B2F
:101A10009A420BD00F4B9A4208D00F4B9A4205D0F6
:101A20000E4B9A4202D00E4B9A4204D1496825F0DF
:101A300080031943916080F83D40002180F83C10FC
:101A4000084670BD022070BD000001400004004047
:101A500000080040000C004000040140004001402C
:101A60000018004010B5040003D094F83D0010B1F8
:101A700007E0012010BD002084F83C00204600F063
:101A80001FF8022084F83D00211D206801F01CFC95
:101A9000012084F8460084F83E0084F83F0084F872
:101AA000400084F8410084F8420084F8430084F840
:101AB000440084F8450084F83D00002010BD00007B
:101AC00008B500680649884208D10648016841F017
:101AD00020010160006800F02000009008BD0000B7
:101AE000001400404038024090F83D10012901D018
:101AF00001207047022180F83D100168CA6842F059
:101B00000102CA6000681149884214D0B0F1804FC8
:101B100011D00F4988420ED00E4988420BD00E4991
:101B2000884208D00D49884205D00D49884202D02C
:101B30000C49884204D1816801F00701062903D0CD
:101B4000016841F001010160002070470000014080
:101B50000004004000080040000C00400004014068
:101B60000040014000180040704770B5044600680E
:101B700001694FF00005C943890715D4C168C943FD
:101B8000890711D4E91E016101202077206880694E
:101B90008007204602D0FFF7E7FF04E000F098F846
:101BA000204600F096F8257720680169C943490767
:101BB00017D4C168C943490713D46FF00401016108
:101BC000022020772068806910F4407F204602D0F0
:101BD000FFF7CAFF04E000F07BF8204600F079F838
:101BE000257720680169C943090716D4C168C9432C
:101BF000090712D46FF008010161042020772068E2
:101C0000C0698007204602D0FFF7AEFF04E000F075
:101C10005FF8204600F05DF8257720680169C94328
:101C2000C90617D4C168C943C90613D46FF010019F
:101C30000161082020772068C06910F4407F2046A9
:101C400002D0FFF791FF04E000F042F8204600F0D8
:101C500040F8257720680169C943C90708D1C168E0
:101C6000C943C90704D1891E0161204600F032F83A
:101C700020680169C943090609D4C168C943090636
:101C800005D46FF0800101612046FFF7A1FE2068B6
:101C90000169C943490609D4C168C943490605D445
:101CA0006FF040010161204600F01EF820680169D4
:101CB000C94389060BD4C168C943890607D46FF0AC
:101CC000200101612046BDE87040FFF782BE70BD73
:101CD0007047704700680349884201D1FFF7ECBAAA
:101CE00070470000001000407047704710B5044670
:101CF0000068406994F83D10C0F3C010212911D14B
:101D000080B12068143050E8001F21F0800140E8C5
:101D10000012002AF5D1606B08B1FEF761FD204684
:101D200001F0FEFB2068406994F83E10C0F380107B
:101D3000222911D180B12068143050E8001F21F011
:101D4000400140E80012002AF5D1A06B08B1FEF76F
:101D500047FD204601F0BDFB002010BD704700008C
:101D6000F8B5016804460868CA684B6910F00F0F9F
:101D70004FF000055AD003F0010602F49077374384
:101D800065D0C10705D0D10503D5216C41F0010113
:101D90002164410705D5D90703D0216C41F0020128
:101DA0002164810705D5D90703D0216C41F00401D6
:101DB0002164010707D502F02001314303D0216CD3
:101DC00041F008012164216C00293BD0800604D534
:101DD000900602D5204601F0B1FB20684069216CD5
:101DE000C0F3801001F00801014320462BD001F020
:101DF00070FB20684069400621D52068143050E807
:101E0000001F21F0400140E80012002AF5D1A06B2C
:101E1000A8B16C490165A06BFEF72BFD002811D01D
:101E2000A06B016D01B0BDE8F040084783060ED5F8
:101E300093060CD52046BDE8F84001F07FBB204654
:101E4000FFF78CFFF8BDFFF789FF2564F8BD266B0F
:101E50002023012E79D1C60677D5D60675D5086818
:101E6000486800904869400640D5A16B0868406802
:101E70000004000CEAD0A28D8242E7D9E085C8694F
:101E8000B0F5807F2DD020680C3050E8001F21F481
:101E9000807140E80012002AF5D12068143050E823
:101EA000001F21F0010140E80012002AF5D120684E
:101EB000143050E8001F21F0400140E80012002AD1
:101EC000F5D184F83E30256320680C3050E8001FBF
:101ED00021F0100140E80012002AF5D1A06BFEF7B6
:101EE0007FFCA08DE18D401A81B229E0A08DE18DAB
:101EF000401A81B2E08D0028A8D00029A6D0206821
:101F00000C3050E8002F22F4907240E80026002E9A
:101F1000F5D12068143050E8002F22F0010240E88B
:101F20000026002EF5D184F83E30256320680C3061
:101F300050E8002F22F0100240E80023002BF5D1DA
:101F40002046FFF7D2FEF8BDFFE705062BD51506A4
:101F500029D594F83D002128F5D1A068B0F5805F1F
:101F600001D12069B0B1206A411C2162216800784A
:101F70004860E08C401E0004000CE084E3D120683F
:101F8000C16821F08001C1602068C16841F0400152
:101F9000C160D8E7206A0088C0F308004860206A62
:101FA000801C2062E5E74006CDD55006CBD5CA6837
:101FB000204622F04002CA6084F83D3000F056FA14
:101FC000C1E700009133000870B5040004D094F814
:101FD0003D00002510B106E0012070BD84F83C50A2
:101FE000204600F023F8242084F83D002068C168D2
:101FF00021F40051C160204601F000FB2068016916
:1020000021F4904101612068416921F02A01416178
:102010002068C16841F40051C1602564202084F823
:102020003D0084F83E00002070BD00002DE9F04F17
:1020300087B0044614216846FEF784FAC048BF4BB7
:102040001438D4F800C0DFF8F8E202210322871523
:10205000002506154FF0070B4FF040094FF0006ABE
:102060009C4554D1DEF800C04CF0100CCEF800C0F6
:10207000DEF8003003F010030593036843F0020319
:102080000360006800F002000590C0208DE8230086
:10209000CDE9032B6946AB48FEF770FDDFF8AC8253
:1020A000A9494046C8F80010C0E901A5C0E9035697
:1020B000C8F81450C0E90657C8F82050C8F8245092
:1020C000FEF7BAFC08B1FEF774FBA04FC4F83880E5
:1020D0006037C8F83840C7F80890C7E903567D61F3
:1020E000BD619948FD613D6278307D62C7E9000AB3
:1020F0003846FEF7A1FC08B1FEF75BFB67630022E0
:1021000005212520BC63FFF76FF9252059E08C4B92
:10211000DFF83C821B1FC44558D1D3F800C04CF4F3
:10212000003CC3F800C01B6803F400330593036848
:1021300043F008030360006800F008000590602089
:102140008DE82300CDE9032B69468248FEF716FD92
:10215000DFF8F881804908F1C0084046C8F800104F
:10216000C0E901A5C0E90356C8F81450C0E90657F4
:10217000C8F82050C8F82450FEF75EFC08B1FEF7FE
:1021800018FB764FC4F83880C8F83840C7F8089074
:10219000C7E903567D61BD616F48FD613D6218303E
:1021A0007D62C7E9000A3846FEF746FC08B1FEF733
:1021B00000FB6763002205212620BC63FFF714F9AA
:1021C0002620FFF703F907B0BDE8F08FDFF8908114
:1021D000C44557D1D3F800C04CF4802CC3F800C0DC
:1021E0001B6803F480230593036843F00403036032
:1021F000006800F0040005904FF440608DE8230073
:10220000CDE9032B69465748FEF7B8FCDFF84C814F
:10221000514908F1600860394046C8F80010C0E92B
:1022200001A5C0E90356C8F81450C0E90657C8F81C
:102230002050C8F82450FEF7FFFB08B1FEF7B9FAAA
:10224000464FC4F83880C037C8F83840C7F80890FF
:10225000C7E903567D61BD613F48FD613D6230388D
:102260007D62C7E9000A3846FEF7E6FB08B1FEF7D3
:10227000A0FA6763002205212720BC63FFF7B4F8AA
:1022800027209EE7384B9C459DD1DEF800C04CF0DE
:10229000200CCEF800C0DEF8003003F020030593D8
:1022A000036843F004030360006800F00400059035
:1022B000C0208DE823000820CDE903206946294885
:1022C000FEF75CFC2049DFF8A480183940464FF047
:1022D000206AC8F80010C0E901A5C0E90356C8F893
:1022E0001450C0E90657C8F82050C8F82450FEF72B
:1022F000A3FB08B1FEF75DFA1C4FC4F838806037C5
:10230000C8F83840C7F80890C7E903567D61BD6139
:102310000D48FD613D6260307D62C7E9000A3846C4
:10232000FEF78AFB08B1FEF744FA67630022052135
:102330004720BC63FFF758F8472042E700100140F0
:102340004438024000040240406402405418002017
:1023500000440040000C02408860024074190020D4
:10236000004800400008024000140140941A002078
:1023700090F83E30202B0ED159B152B190F83C303C
:10238000012B08D0012380F83C300023036301F0C7
:10239000BBB9012070470220704790F83E30202BD7
:1023A0000ED159B152B190F83C30012B08D0012325
:1023B00080F83C300023036301F0F0B9012070473E
:1023C000022070470449884204D10122343902486E
:1023D000FFF7E3BF7047000044170020704700007C
:1023E00070B5044690F83D00202836D191B38AB3E9
:1023F00094F83C00012830D0012084F83C00216290
:10240000A284E28400252564212084F83D00636BCA
:102410001348D863636B13481864636B1248D8641D
:10242000606B134605652668606B321DFEF76EFB18
:1024300021686FF04000086084F83C502068143038
:1024400050E8001F41F0800140E80012002AF5D159
:10245000002070BDFFE70120FBE70220F9E7000044
:1024600087340008C9340008A1330008416B0968AB
:102470000A6822F001020A600A4900680968884275
:1024800005D10948017821F0020101707047054922
:10249000883109688842F9D100224FF480610348ED
:1024A000FEF771BC441700200C130020000002400E
:1024B0007047FEE701684A69D24352050FD46FF4B2
:1024C00080624A61002140F8301F202242738173EC
:1024D000026942F00402026101730120704700208A
:1024E000704700002DE9F84F0446006889460B9DAF
:1024F00001689846174641F48061016020680168D0
:1025000041F48071016000954FF0011B0022594693
:1025100020460A9B00F0DEF84FF4007A40B12068B4
:102520000068C00501D5C4F840A00320BDE8F88FBD
:10253000216809F0FE0008612B46284920460A9AC6
:1025400000F0FCF8F0BB20684169806900902A46E1
:1025500020460A9900F070F940B1206C04283AD165
:102560002068016841F40071016034E0FEB2B8F106
:10257000010F09D02168380A08612A4620460A99C5
:1025800000F05AF90028E8D1206806612A46204662
:102590000A9900F051F90028DFD12068016841F460
:1025A0008071016000950022594620460A9B00F088
:1025B00091F80028B3D1216809F0FF0040F0010034
:1025C000086100E007E02B46044920460A9A00F023
:1025D000B5F80028AAD00120A8E7000002000100F9
:1025E0002DE9F843044600680D46DDE908970168C7
:1025F0009846164641F4807101604B4600224FF028
:1026000001112046009700F065F848B12068006885
:10261000C00502D54FF4007020640320BDE8F883A4
:10262000216805F0FE0008613B464A4615492046F0
:1026300000F084F888B920684169806900903A46C2
:102640004946204600F0F8F848B1206C042804D12F
:102650002068016841F4007101600120DEE7F5B2F5
:10266000B8F1010F09D02168300A08613A4649469D
:10267000204600F0E1F80028E7D12068056100203D
:10268000CCE700000200010070B516460D46044676
:102690000DE02046FFF70EFF08B1012070BD681C59
:1026A00005D0FEF775FB801BA84207D835B120681E
:1026B0004069C0434007ECD4002070BD002044F8BE
:1026C000300F20216173A073216941F02001216145
:1026D0002073E2E72DE9F0471E4690460D4604467A
:1026E000C1F30747DDF8209008E0701C06D0FEF724
:1026F0004FFBA0EB0900B0420FD876B12068012F44
:1027000018D0806925EA00000004000C14D00021D4
:102710004145EAD00020BDE8F087002044F8300FA2
:1027200020216173A073216941F020012161207390
:102730000120F0E74069E5E70121E9E72DE9F047ED
:102740009A4691460E46044600254FF02008C1F3F4
:10275000074725E020684069C043400514D420683D
:10276000016841F40071016021686FF48060486184
:10277000256384F83D8084F83E50206C40F00400CE
:10278000206484F83C501FE0B9F1FF3F08D0FEF709
:10279000FFFAA0EB0A0149450CD8B9F1000F09D0A6
:1027A0002068012F13D0806926EA00000004000C85
:1027B0000BD0CFE744F8305F84F80D80A573206913
:1027C00040F02000206125730120BDE8F0874069BA
:1027D000EAE72DE9F041002590460E460446202701
:1027E00017E04069C043C0060CD454F8301B6FF0AA
:1027F0001000486144F810596777A577206A206275
:10280000257717E0FEF7C4FAA0EB0800B04208D81D
:102810003EB120684169C9434906E2D40020BDE8C1
:10282000F08144F8305F6773A573206940F02000A1
:10283000206125730120F2E770B516460D46044667
:102840000DE02046FFF736FE08B1012070BD681C80
:1028500005D0FEF79DFA801BA84207D835B1206845
:102860004069C0430006ECD4002070BD002044F84D
:10287000300F20216173A073216941F02001216193
:102880002073E2E770B564240546012911D001F0F8
:10289000A7FA6320401EFDD1284601F0AFFA611E61
:1028A000491EFDD1284601F09BFA641E641EFDD12D
:1028B00070BD01F0A3FA6320401EFDD1284601F04F
:1028C0008FFA611E491EFDD1284601F097FA641E59
:1028D000641EFDD170BD000070B5034600200246A5
:1028E000012906D002290AD0032906D0042907D1DC
:1028F00001E0012204E0082202E0042200E00222BA
:10290000082B15D2C3F1070101EBD1760B4DC6F3AD
:102910004703042BEC5C0BD226F00100081A10F0E0
:10292000FF0F06D004F00F0141EA0210E854012025
:1029300070BD04F0F0001043F8E700009D00002097
:10294000294808B5016841F400110160016801F4EB
:1029500000110091016841F48001016000680022CB
:1029600000F48000009005210C20FEF73DFD0C20B6
:10297000FEF72CFD002205210E20FEF735FD0E206E
:10298000FEF724FD002205211020FEF72DFD10206A
:10299000FEF71CFD002205211120FEF725FD112068
:1029A000FEF714FD002205213920FEF71DFD392018
:1029B000FEF70CFD002205213A20FEF715FD3A2016
:1029C000FEF704FD002205214520FEF70DFD452000
:1029D000FEF7FCFC002205214620FEF705FDBDE8C0
:1029E00008404620FEF7F2BC3038024010B58EB0E9
:1029F0001C220B496846FDF773FD0021684602F072
:102A0000D1F8084C06491C2220601C3107A8FDF7AC
:102A100067FD002107A802F0C5F860600EB010BD88
:102A2000B0810008000000202DE9F04F87B014218C
:102A30006846FDF787FD54480025016841F0100104
:102A40000160016801F010010591016841F0040185
:102A50000160016801F004010591016841F0800105
:102A60000160016801F080010591016841F00101F8
:102A70000160016801F001010591016841F0080160
:102A80000160016801F008010591016841F002014F
:102A900001600068DFF8F48000F002004FF67C046B
:102AA0000590002221464046FEF76DF9DFF8E090E0
:102AB000002242F20D014846FEF765F9DFF8D4B076
:102AC0004FF40046002231465846FEF75CF9DFF825
:102AD000C8A07711002239465046FEF754F901226A
:102AE00020212E48FEF74FF900940124019402940E
:102AF000694640460394FEF741F842F20800CDE9EA
:102B0000000469464846CDE90245FEF737F805203E
:102B1000CDE900040294694648460394FEF72EF876
:102B20001820CDE90005694650460295FEF726F8C3
:102B3000F81CCDE90005694602944046FEF71EF8F0
:102B4000CDE9006469465846CDE90245FEF716F81E
:102B5000CDE9007469465046CDE90245FEF70EF80E
:102B60009F20CDE90005694602945846FEF706F815
:102B700020208DE83100694608480394FDF7FEFFE8
:102B800007B0BDE8F08F000030380240001002406E
:102B900000080240000C0240000002400004024015
:102BA0000D4810B50B4901600C49416000214FF4FC
:102BB00080428160C0E9031241618161C1610162AB
:102BC000FEF7ECF8002803D0BDE81040FDF7F1BD9A
:102BD00010BD00000054004070120020801A060052
:102BE0001CB500240E4800940C4901940160532147
:102BF000C0E901144FF6FF718461C160FEF732FF36
:102C000008B1FDF7D6FD0094694605480194FEF72A
:102C1000E1FE002801D0FDF7CCFD1CBD00140040F2
:102C2000C41200200C4810B50A4901604FF4E1318C
:102C30004160002181600C22C160C0E90412816101
:102C4000C161FFF7C1F9002803D0BDE81040FDF7CE
:102C5000B0BD10BD00100140441700200C4810B555
:102C60000A4901604FF4E1314160002181600C228A
:102C7000C160C0E904128161C161FFF7A5F90028B4
:102C800003D0BDE81040FDF794BD10BD00440040E6
:102C9000881700200C4810B50A4901604FF4E13153
:102CA0004160002181600C22C160C0E90412816191
:102CB000C161FFF789F9002803D0BDE81040FDF796
:102CC00078BD10BD00480040CC1700200C4810B55E
:102CD0000A4901604FF4E1314160002181600C221A
:102CE000C160C0E904128161C161FFF76DF900287C
:102CF00003D0BDE81040FDF75CBD10BD00140140DD
:102D000010180020FEE700000B48D0F80813491CFB
:102D1000C0F808130949096900290BD0012907D017
:102D2000022903D00B2903D00C2903D100F031B9BB
:102D300000F024B870470000AC00002048040020D8
:102D4000D0F80813C822B1FBF2F302FB13110029DB
:102D50000ED1B0F84E1341F02001A0F84E130649F1
:102D60000969012905D00B2902D10C2180F85F13D4
:102D700070470221FAE700004804002010B504461D
:102D800000F09CF8204600F0D4F801280BD1B4F8EC
:102D9000041304F20120085CA52804D12046BDE8F4
:102DA000104000F04FB810BD70B504460020B4F8D4
:102DB0004E138A0643D521F02000A4F84E03204884
:102DC0000069012801D00B2801D184F8040194F88E
:102DD0005F0384F80501062084F806017E2184F84B
:102DE000071184F8080104F209100C2102F01EFCFE
:102DF00094F8600384F82101002084F8600304F54E
:102E00009170102102F042FD04F5B170102102F022
:102E1000F5FB7F2104F5827084F85E13054600F00F
:102E200059FE94F85E13030A4A1C84F85E234B553E
:102E300094F85E134A1C84F85E234855012070BD47
:102E40004804002030B5027900214479022A01D0DB
:102E50000C2A0CD1184B012C1B6906D00B2C06D167
:102E60000B2B04D10C2A03D003E0012BFAD030BD88
:102E700002228379862BFAD1C379222BF7D100EB7A
:102E8000421400BF00EB810204EB8103157A83F842
:102E9000EC52557A83F8ED52957A83F8EE52491C3C
:102EA000D27A89B283F8EF220829EBD300EB8101B3
:102EB000097A80F8611330BD4804002070B50446DB
:102EC000FFF73EFF94F84C03012128B100250128AB
:102ED0000DD002282AD11CE0B4F85203401C80B265
:102EE000A4F852030F2801D384F84C1370BD204678
:102EF000FFF75AFF0128F9D1206894F85E2304F502
:102F00008271436B9847022084F84C03A4F8545311
:102F100070BDB4F85403421CA4F854233C2801D3D8
:102F200084F84C1394F806030128F1D184F84C532B
:102F300070BD2DE9F0410446002690F806033546A1
:102F4000012823D1002084F80603B4F80413C81E16
:102F5000FD281BD204F2022004F20322085C8A5CE2
:102F6000891E02EB002087B204F5017000F0B2FD6B
:102F7000B84206D00AE060196D1C90F80412017185
:102F8000ADB2B4F80403A842F5D801263046BDE836
:102F9000F08110B5044600F043F82046FFF7C9FF62
:102FA000012804D12046BDE8104000F001B810BD52
:102FB00010B5044600796179012801D00B282BD186
:102FC000022901D1012805D0144A12698A4223D16D
:102FD0000B2821D1A07906281ED1E0797E281BD1AB
:102FE000207A062818D104F109000C2104F018FDFC
:102FF00094F8210084F8610304F12200102104F008
:103000002DFD04F16200102104F0ECFCB4F858032B
:1030100040F02000A4F8580310BD00004804002030
:1030200070B5044690F8560318B10025012818D150
:103030000BE0B4F85C03401C80B2A4F85C030A28DF
:1030400002D3012084F8560370BD204600F00CF82E
:103050000128F9D1206894F85E2304F58271436B4E
:10306000984784F8565370BD70B504460020B4F8F4
:10307000581305468A065FD521F02000A4F85803AE
:103080003148006984F80401022856D00C2856D033
:103090006079862184F80611222184F8071104EB57
:1030A0004016E8B201F016F906EB85006D1CADB2D2
:1030B00080EDBB0A082DF4D35FF0000006EB800121
:1030C00004EB800291F8EC3282F8083191F8ED328D
:1030D00082F8093191F8EE3282F80A31401C91F8F9
:1030E000EF1280B282F80B110828E7D304EB8001BD
:1030F00094F8602381F80821002284F8602394F872
:10310000622381F80921062101EB8000C1B204F598
:10311000827084F85E13054600F0DCFC94F85E13C0
:10312000030A4A1C84F85E234B5594F85E134A1C2C
:1031300084F85E234855012070BD012000E00B207B
:1031400084F805010220A4E7480400200D480C493A
:1031500000F5417201604A61911C02689161026848
:1031600000F58271D161026800F5017111620021E0
:10317000A0F8041380F806130068816A084700006D
:10318000400F0020AC000020FEE700000C4910B505
:103190000B888C880989234419440A4B89B240F270
:1031A000E5741960024661430020C1F30B018A42B5
:1031B00004D142F2CD00C3E90120012010BD00007E
:1031C0002060002010040020012001F0DFFCFBE75C
:1031D000012001F0DBFC00F05DFCF9E710B55020A8
:1031E00080F31188BFF34F8FBFF36F8F04F036FD6C
:1031F00018B104494FF080500860002080F3118816
:1032000010BD000004ED00E030B593B030216846F9
:10321000FDF798F914210CA8FDF794F91E48002534
:10322000016841F080510160006800F08050119009
:103230001A48016841F4804101600068022400F4EA
:103240008040119001200090000401908001CDE9A0
:103250000640192008904FF4A870CDE90904042015
:103260000B906846FEF7FEF908B172B6FEE70CA9AE
:103270000F2081E831004FF4A0500F904FF48050A0
:10328000109005210CA8FEF7E1F8002801D072B6D5
:10329000FEE713B030BD000040380240007000402F
:1032A0000248016841F470010160704788ED00E058
:1032B00003480168491C01600248FEF756BC000043
:1032C00008000020541B0020F0B50268254C264D54
:1032D000264E274F274B4FF0804CA04209D0604527
:1032E00007D0A84205D0B04203D0B84201D09842DE
:1032F00004D122F0700E4A6842EA0E02A0421BD0AE
:10330000604519D0A84217D0B04215D0B84213D0AA
:10331000984211D0184DA8420ED0184DA8420BD09B
:10332000174DA84208D0174DA84205D0164DA84207
:1033300002D0164DA84203D122F44075CA682A4330
:103340004D6922F080022A4302608A68C2620A68DC
:103350008262A04201D0984201D109690163012132
:103360004161F0BD00000140000400400008004041
:10337000000C0040000401400040014000440140B6
:103380000048014000180040001C004000200040A0
:1033900010B5806B0021C185C184FEF7DFFC10BD34
:1033A00070B5846B2068406994F83D10C0F3C0107C
:1033B0000025212904D118B1E584204600F0B0F899
:1033C0002068406994F83E10C0F38010222904D18F
:1033D00018B1E585204600F07CF8206C40F0100024
:1033E00020642046FEF7BAFC70BD10B50146806B24
:1033F00009680968C9052FD40021C18501680C310D
:1034000051E8002F22F4807241E80023002BF5D10F
:103410000168143151E8002F22F0010241E8002335
:10342000002BF5D10168143151E8002F22F0400241
:1034300041E80023002BF5D1202180F83E10016BDC
:10344000012909D101680C3151E8002F22F0100246
:1034500041E80023002BF5D1016B012902D0FEF7D2
:10346000B1FF10BD818DFEF740FC10BD10B5806B23
:10347000016B012902D0FEF7B1FF10BD818D490813
:10348000FEF733FC10BD10B50146806B0968096872
:10349000C90516D40021C1840168143151E8002FF8
:1034A00022F0800241E80023002BF5D101680C31A5
:1034B00051E8002F42F0400241E80023002BF5D1F3
:1034C00010BDFEF7D3FF10BD10B5806BFEF7F0FF07
:1034D00010BD01680C3151E8002F22F4907241E8D0
:1034E0000023002BF5D10168143151E8002F22F0A0
:1034F000010241E80023002BF5D1016B012909D11C
:1035000001680C3151E8002F22F0100241E800233D
:10351000002BF5D1202180F83E1000210163704777
:1035200001680C3151E8002F22F0C00241E800236D
:10353000002BF5D1202180F83D10704708B590F898
:103540003E10222901D0022008BD82684FF480532A
:103550009A4201D1016921B1816A9A421BD04AB1D4
:103560000AE00268816A5268C2F308020A80816A2E
:10357000891C08E0026972B10268526802F07F0299
:103580000A70816A491C8162C18D491E0904090CB7
:10359000C18503D019E002685268F1E70168CA6882
:1035A00022F02002CA600168CA6822F48072CA60F0
:1035B00001684A6922F001024A61202180F83E1028
:1035C000016B012903D0FEF7FDFE002008BD00219C
:1035D000016301680C3151E8002F22F0100241E82C
:1035E0000023002BF5D101680A68D20602D50A68CB
:1035F00049680091818DFEF778FBE6E770B50446D7
:1036000000680169E26821F44051114301612169B8
:10361000A068E26908436169114308432168CA68E8
:1036200049F20C639A430243CA6020684169A26967
:1036300021F440711143416131492068884202D030
:103640003049884202D1FDF7CBFF01E0FDF7B8FF1A
:10365000E2690023192164253226B2F5004F626821
:1036600028D0A0FB0101930F9200FCF77DFE0146DC
:10367000B0FBF5F06FF01802504301EB800006EB51
:103680000010B0FBF5F000F0F002B1FBF5F002EB3A
:103690000012B1FBF5F06FF01803584301EB800006
:1036A00006EB0010B0FBF5F000F00F0021681044AD
:1036B000886070BDA0FB010192185B41FCF754FECD
:1036C0000146B0FBF5F00201B1FBF5F06FF0180315
:1036D000584301EB800006EBC000B0FBF5F000F0B2
:1036E000F80002EB4002B1FBF5F0584301EB80001B
:1036F00006EBC000B0FBF5F000F00700D6E70000D5
:10370000001001400014014038B581628285002517
:10371000134604460564222084F83E00A26B1C4830
:10372000D063A26B1B481064A26B1B48D064A06BD3
:103730000A4605652168A06B091DFDF7E7F92068B9
:1037400001684068009084F83C50206948B12068C6
:103750000C3050E8001F41F4807140E80012002A4C
:10376000F5D12068143050E8001F41F0010140E815
:103770000012002AF5D12068143050E8001F41F0F3
:10378000400140E80012002AF5D1002038BD0000B9
:10379000EB3300086D340008A13300088162828594
:1037A000C28500210164222280F83E2080F83C106E
:1037B000016921B10168CA6842F48072CA60016877
:1037C0004A6942F001024A610068C16841F0200183
:1037D000C16000207047000010B5044800F028F8D0
:1037E000BDE810400148FEF7BBBA000044170020B6
:1037F00010B5044800F044F8BDE810400148FEF759
:10380000AFBA00008817002010B5044800F060F837
:10381000BDE810400148FEF7A3BA0000CC17002015
:103820000148FEF79DBA000010180020FEE70000D6
:1038300038B5114C0168206881421CD10968C94320
:10384000C90618D40168406800902046FEF74EFA79
:10385000A06B0068416809480122C1F5807180F8B9
:103860000C22A0F80A1200F10A012046BDE83840F7
:103870001202FEF77DBD38BD441700206807002006
:1038800038B5114C0168206881421CD10968C943D0
:10389000C90618D40168406800902046FEF726FA51
:1038A000A06B0068416809480122C1F5807180F869
:1038B0007C24A0F87A1400F27A212046BDE8384032
:1038C0001202FEF755BD38BD88170020680700209A
:1038D00038B5174C01682068814227D10A68D24365
:1038E000D20618D40168406800902046FEF7FEF921
:1038F000A06B006841680F480122C1F5807180F813
:103900000623A0F8041300F501712046BDE83840F5
:103910001202FEF72DBD0A68D243520603D509688C
:10392000C943090602D401684068009038BD000010
:10393000CC170020AC0000200907090E002804DB8A
:1039400000F1E02080F80014704700F00F0000F153
:10395000E02080F8141D70472DE9FE4F00278B46AC
:103960008118B846B946B1F5804F3CD81546064691
:10397000DFF87CA022E000BF06EB080086B206F06C
:103980003F00C0F14004AC4200D32C460A2000F0B6
:10399000F5F9DAF80C20DAF814100092CDE90141BB
:1039A000BAF8041010233246DAF80000FDF7BAFA2C
:1039B000070007D040F24111AAF81810A5B1002F56
:1039C000DAD011E00BEB090022460A49FCF743FD6F
:1039D00009EB0400A0461FFA80F9A5EB08000504D6
:1039E0002D0CC9D100E001273846BDE8FE8F00004C
:1039F00000100020026B00202DE9FE4F0027144626
:103A0000064620448B46B946B846B0F5804F39D8B3
:103A10000E2000F0F3F9DFF874A026E006EB0900B1
:103A200086B206F03F00C0F14005A54200D325460E
:103A30000BEB08012A461648FCF70DFD0A2000F0A2
:103A40009DF9DAF80820DAF814100092CDE9015156
:103A5000BAF8041010233246DAF80000FDF75EFBD6
:103A6000070006D07B21AAF8181064B1002FD5D02A
:103A700009E008EB0500A9461FFA80F8A4EB09004D
:103A800084B2F2E701273846BDE8FE8F001000201F
:103A9000426B0020084810B50168491C016000F025
:103AA0006DFE00F07BFAFFF72FF903F0BFFABDE8D7
:103AB000104000F0E1BE0000A800002010B5002476
:103AC00000212046FEF708FF641CE4B2082CF7D35F
:103AD00010BD000070B50C4DFF22134605F5807631
:103AE00006E000BF10F8014B5C402B5D5340325D97
:103AF000491EF7D24FF6FF7000EA022000F47F4023
:103B0000184480B270BD000008820008F8B5B0F813
:103B100020120025082901D90020F8BD384C79B1C0
:103B2000491E6172227A374E00215AB1012A20D0F3
:103B3000022A35D0032A4AD0217201252846F8BD31
:103B40000821EEE7D0E99323934202D99F1A142F5C
:103B500004D29342F2D2D21A142AEFD3627A0A2301
:103B600002EB820206EB021200914FF40C51143268
:103B70003FE0D0E99323934202D99F1A142F04D235
:103B80009342DBD2D21A142AD8D3627A0A2302EBE8
:103B9000820206EB021200914FF41051283228E005
:103BA000D0E99323934202D99F1A142F04D293424F
:103BB000C4D2D21A142AC1D3627A0A2302EB820237
:103BC00006EB021200914FF408513C3211E0D0E9AB
:103BD0009323934202D99E1A142E04D29342ADD25B
:103BE000D21A142AAAD3009100F5087201234FF4C7
:103BF000045103F0C7FC207A401C20729EE70000AD
:103C0000A80400202068002070B500242DED028B50
:103C100025469FED1E8A2646D8B1082816D8401E94
:103C2000C0B200F075F800BF00EB85016D1CEDB26D
:103C30004E630A2DF8D3002100EB8102491C82ED6E
:103C4000218AC9B282ED2C8A0B29F5D3BDEC028BF7
:103C500070BD204600F05CF80146002001EB8002B8
:103C6000401CC0B256630A28F8D3002001EB800242
:103C7000401C82ED218AC0B282ED2C8A0B28F5D33C
:103C8000641CE4B2082CE4D3E0E70000000000006C
:103C900030B50021134C0A460B4680B108280DD8D8
:103CA000401EC0B200EB800004EB001101EB4200AB
:103CB000521C8382D2B203850A2AF7D330BD01EBAE
:103CC0008102002004EB021202EB4005401CAB8293
:103CD000C0B22B850A28F7D3491CC9B20929EED3F3
:103CE00030BD00002068002010B50020074B0446BE
:103CF000052103F1200200BF23F8104022F8101024
:103D0000401CC0B21028F7D310BD0000D0660020C0
:103D10000549082806D200EB8001C1EB801002495A
:103D200001EB800108467047B4580020014890F824
:103D300061037047AC00002010B500200B4A01461B
:103D400040F2231302EB4104B4F858409C4207D0E0
:103D500002EB4100A0F8583002EB8100007E10BD5C
:103D6000491CC9B20429EDD310BD0000480400204D
:103D700001480068704700000800002000B50146B7
:103D80004FF47A7203E01046491E00F003F8002950
:103D9000F9D100BD00EB8000C00000E0401E00280B
:103DA000FCD17047064910B5064A31F8101052F898
:103DB0002000FCF7DBFF002800D0012010BD000030
:103DC0007E840008140F00200349044A31F81010C3
:103DD00052F82000FCF7CFBF60840008D80E002006
:103DE0000449054A31F8101052F820000122FCF76E
:103DF000CABF000060840008D80E00200449054AAC
:103E000031F8101052F820000022FCF7BCBF00006F
:103E100060840008D80E00207047704770477047D4
:103E20007047000070B5007814460D46012803D095
:103E3000022803D020B10DE0074809E0074807E059
:103E4000012291020648FCF79EFF224629460548BA
:103E5000FEF7C6FA002070BD441700208817002026
:103E600000000240CC17002010B50023102A07D90B
:103E700010BD00BF30F8134021F813405B1CDBB2CB
:103E80009342F7D310BD000010B50023102A07D9C4
:103E900010BD00BF50F8234041F823405B1CDBB24B
:103EA0009342F7D310BD00002DE9F04188B0DFF850
:103EB000BC80002001466D4645F82010401CC0B271
:103EC0000828F9D3002601E0192E34D20024601D01
:103ED000C0B2FFF793FF641CE4B2082CF7D30A20AA
:103EE000FFF758FF0024601DC0B2FFF779FF641C84
:103EF000E4B2082CF7D30A20FFF74CFF5FF0000470
:103F0000671C55F82400400045F82400F8B2FFF77C
:103F100049FF55F82410084445F82400FCB2082C49
:103F2000EED30024601DC0B2FFF768FF641CE4B24A
:103F3000082CF7D302E01420FFF72CFF761CF6B212
:103F40001B2EC1D35FF0000303EB8300C0EB831291
:103F500055F8231008EB820001F058FD5B1CDBB222
:103F6000082BF1D308B0BDE8F0810000B458002060
:103F700070B50024084DFFF797FF00BF04EB8400E5
:103F8000C0EB841005EB800000F046F9641CE4B23D
:103F9000082CF3D370BD0000B458002010B54FF4C6
:103FA000FA6000F07BF8012816D100F01BF8012818
:103FB00012D10A4C607900280ED12079401CC0B281
:103FC0002071092808D300F01BFA03F0F3F9044923
:103FD00001206071A1F86A0210BD00008400002079
:103FE000F80400202DE9F0472B4D00240327A97881
:103FF0000120A0462646052904D2DFE801F003058A
:104000000F1A4200A87043E0601DC0B2FFF7E8FE3F
:10401000641CE4B2082CF7D30220F3E7601DC0B2A1
:10402000FFF7ECFE641CE4B2082CF7D3AF70AE814E
:104030002EE0A98940F28A22491C89B2A9819142C5
:1040400002D3AE81EE70DDE7DFF84C9009F10E0986
:1040500019F80400012805D1601CC0B2FFF7A2FEC8
:1040600001280CD0641CE4B2082CF1D3E878411C80
:10407000E9700A280CD90420A870EE7008E0AF702F
:10408000FBE7FFF775FFAF70AE81EE704FF00108F0
:104090004046BDE8F0870000840000202DE9F05F75
:1040A000594F01462DED028B0026F888354688428F
:1040B00078D8401CF88038785449002401F1100B5E
:1040C0004FF0010808286DD2DFE800F0040F2398B4
:1040D000981B3270701DC0B2FFF790FE761CF6B2CE
:1040E000082EF7D387F8008089E0701DC0B2FFF773
:1040F00077FE761CF6B2082EF7D3052038703C8187
:104100007DE03889401C80B238810A2877D90220A6
:1041100072E08846701DC0B2FFF770FE28F81640A6
:10412000761CF6B2082EF5D3062038707C8166E046
:104130007A89B946521C7A818A46771CF8B2FFF711
:1041400031FE20B93AF81610491C2AF81610FEB2B2
:10415000082EF2D3B9F80A0040F28A214A46884272
:104160004DD35078002156465B46474636F811C07D
:104170008046BCF1320F01EB410C9C4402D30CF899
:10418000007001E00CF80040491CC9B20829EDD3C9
:1041900008F10100C0B25070032804D3072089F849
:1041A00000002CE02AE089F8004028E0C246A04642
:1041B000154C9FED178BD9460E34002106EB4603B4
:1041C000084603EB0902135C401C1944C0B2C9B293
:1041D0000328F8D3084603F05DFE53EC182B03F0D8
:1041E000A7FF02D804F806A001E004F80680761CB8
:1041F000F6B2082EE1D30820387000E00125BDECAE
:10420000028B2846BDE8F09F840000208C580020D7
:10421000CCCCCCCCCCCC004030B504460020A1782E
:1042200087B0012940D16D4604EB8001496845F80B
:104230002010401CC0B20728F6D307212846FCF7FF
:1042400013FA002020620220216A55F82020401C29
:104250001144C0B221620528F6D30846032190FB21
:10426000F1F16162D4F8E020002000BF04EB80038C
:104270005B6BDAB1994203DA401CC0B20A28F5D36D
:1042800000EE901A04EB8000F8EEE00A90ED210AAF
:1042900020EE800AD0ED2C0A30EE800AD4ED390AE7
:1042A000C4ED3A0A84ED390A07B030BD9942E7DD22
:1042B000E2E7000001460020054A082906D201EB8A
:1042C0008100C0EB811002EB8000406A7047000063
:1042D000B458002010B504462DED028BDFED188A8E
:1042E0001848B0EE688A806803F0BDFD9FED161B8C
:1042F00053EC112B03F01EFE03F078FD00EE100AC4
:104300001348082C0BD204EB8401C1EB841100EBA1
:104310008100D0ED390A90ED371A30EEC18AB4EE43
:10432000C08AF1EE10FA01DBB0EE408A0948005D68
:1043300008B9B0EE688AB0EE480ABDEC028B10BD39
:1043400000000000480400209A9999999999F13F3A
:10435000B458002092000020F0B5244C00231A46E7
:1043600003EB8300C0EB8310002104F8203004EB42
:1043700080008270C2700262C0F8242000EB8105C8
:10438000491CC9B26A600A29F8D3194D002100BF3F
:1043900000EB810755F82160FE654618491CC9B23B
:1043A00086F828200A29F3D300219FED120ADFEDB9
:1043B000120A00BF00EB8105491C85ED210AC9B234
:1043C000C5ED2C0A0B29F5D301219FED0C0A5B1CCE
:1043D00080ED370AC0F8E02080ED390A80ED3A0A16
:1043E000DBB24170082BBBD3F0BD0000B4580020F5
:1043F00008840008124DA03AE1DA85C300000000ED
:1044000010B511495FF0000000EB8002C2EB801292
:1044100001EB8202401C92ED390AC0B282ED370AEC
:104420000828F1D3FFF760FCFFF748FB0020074A9C
:10443000014600BF02EB4003401CC0B2A3F8581075
:104440000428F7D310BD0000B45800204804002011
:1044500070B5044600200346102A0AD970BD00BF7B
:1044600034F9135031F91360B54200D001205B1CC0
:10447000DBB29342F4D370BD70B50446002003460E
:10448000102A0AD970BD00BF54F8235051F8236098
:10449000B54200D001205B1CDBB29342F4D370BD67
:1044A0001CB50D49002349680191D0E993128A4255
:1044B00002D9541A142C04D28A420AD2891A142915
:1044C00007D300210091022301AA842103F05AF8A6
:1044D000012318461CBD0000308400081CB50D499E
:1044E000002349690191D0E993128A4202D9541AF2
:1044F000142C04D28A420AD2891A142907D3002123
:104500000091022301AA842103F03CF801231846FC
:104510001CBD0000308400081CB51849002309693F
:10452000019117490A693921022A0BD003DC32B103
:10453000012A0AD106E00B2A01D00C2A05D1ADF8D8
:10454000061002E03A22ADF80620ADF80610D0E9D8
:1045500093128A4202D9541A142C04D28A420AD2E3
:10456000891A142907D300210091022301AA84216A
:1045700003F008F8012318461CBD00003084000831
:10458000480400201CB51A491A4A0023C968019141
:1045900014693121022C0BD003DC34B1012C0DD174
:1045A00006E00B2C01D00C2C08D1ADF8061005E06C
:1045B000126BDAB15FF03B02ADF80620ADF80610E1
:1045C000D0E993128A4202D9541A142C04D28A4296
:1045D0000AD2891A142907D300210091022301AAC3
:1045E000842102F0CFFF012318461CBD3722E3E7E8
:1045F00030840008480400201CB51949194A0023DA
:10460000096A019114693121022C09D003DC24B319
:10461000012C0AD104E00B2C1FD00C2C05D11CE07E
:10462000126BD2B13B22ADF80620ADF80610D0E9EE
:1046300093128A4202D9541A142C04D28A420AD202
:10464000891A142907D300210091022301AA842189
:1046500002F098FF012318461CBDADF80610E4E7F0
:1046600030840008480400201CB50D4900238969E6
:104670000191D0E993128A4202D9541A142C04D21F
:104680008A420AD2891A142907D3002100910223F1
:1046900001AA842102F076FF012318461CBD000008
:1046A000308400081CB50D490023C9690191D0E987
:1046B00093128A4202D9541A142C04D28A420AD282
:1046C000891A142907D300210091022301AA842109
:1046D00002F058FF012318461CBD0000308400087A
:1046E0001CB50E4A002312680192ADF80610D0E9FD
:1046F00093128A4202D9541A142C04D28A420AD242
:10470000891A142907D300210091022301AA8421C8
:1047100002F038FF012318461CBD00003084000859
:104720001CB50D49002389680191D0E993128A4292
:1047300002D9541A142C04D28A420AD2891A142992
:1047400007D300210091022301AA842102F01AFF5D
:10475000012318461CBD00003084000801460020DB
:10476000A1F10902022A06D201EB4100024901EB44
:10477000400010F8310C7047146000202DE9F04122
:1047800000F03CF81B4C0027012520781A4E002829
:104790004FF00A0003D0FFF7E1FF50B10AE0FFF746
:1047A000DDFF012806D12570A6F8145202F026FC80
:1047B00000E02770607800284FF0090006D0FFF76E
:1047C000CDFF002800D16770BDE8F081FFF7C6FF7C
:1047D0000128F9D16570A07810F0010100F1010005
:1047E000A07004D00029EFD0A6F85852ECE7A6F844
:1047F0005652E9E79A000020F804002070B5104DE9
:10480000002400BF04EB440615F81600FFF7CAFAAF
:1048100005EB46010871CA78824209D18A78521C98
:10482000D2B28A70322A05D332228A70487101E0EE
:1048300000228A70641CE4B2C870022CE2D370BDFE
:104840001460002030B500200A4B01465FF00105DE
:1048500000F1090200EB4004401C03F8142003EBB4
:104860004402C0B29170D17011715171557002281B
:10487000EED330BD146000202DE9F04100241B4F21
:10488000264600F037F81A48406901282BD13D1D13
:10489000385D295D814201D028550126641CE4B2AF
:1048A000042CF5D3012E1ED1002400262F5DF8071D
:1048B0004FF0000002D0FFF793FA01E0FFF79EFAF5
:1048C0007F0801210320FDF7DDFF761CF6B2082EDC
:1048D000EDD3641CE4B2042CE7D3BDE8F041012120
:1048E0000220FDF7CFBFBDE8F08100009D00002051
:1048F0004804002010B5FFF73BFA4FF47A71B0FB83
:10490000F1F201FB1200002804D1BDE810400D2097
:10491000FFF75ABA10BD10B50020FFF761FA012069
:10492000FFF75EFA0220FFF769FA0320FFF766FA45
:104930000420FFF763FA0120FFF752FA0021042058
:10494000FDF7A0FF01210220FDF79CFFBDE810400C
:104950000120FFF753BA0000FCF7B6FCFEF754FC49
:10496000FEF762F8FDF7ECFFFEF73AF9FEF792F971
:10497000FEF758F9FEF714F9FEF7A8F9FEF76EF9FD
:104980004FF48074224619491948FDF7F1FC184884
:104990000068C16841F01001C160224615491648FF
:1049A000FDF7E6FC14480068C16841F01001C160E1
:1049B000224612491248FDF7DBFC11480068C16825
:1049C00041F01001C160FFF73DFFFFF7A4FFFFF7C3
:1049D000C3FC01F06BFAFEF7B9FB00F03FFE00F0FC
:1049E000DDFEFEF703F800F0D8F8FEE772070020BE
:1049F00044170020E209002088170020B0020020A0
:104A0000CC17002001460020842900D0C81C704724
:104A10002DE9F05F5A4B002403F5807202F1B005D6
:104A200002F1F00A02F180062046102914D91CE098
:104A300032F91070FF2F0DD153F8207000EE107A6C
:104A400005EB8407B8EEC00A87ED000A2AF81400C7
:104A5000641CE4B2401CC0B28842E9D3012C04D9E2
:104A6000224651462846FBF7D1FDDFF818B1002059
:104A700047F6FF7CFF276346B946002146E000BFAA
:104A800005EB81029BED0A0AD2ED000AF4EEC00AA2
:104A9000F1EE10FA06DAB1EE401AF4EEC10AF1EEC8
:104AA00010FA31D84A1CD2B2F1EE401A10E000BF21
:104AB00005EB820898ED001AB4EEC01AF1EE10FA78
:104AC00008DAB4EEE11AF1EE10FA03D9521CD2B2B0
:104AD000A242EDD3A14217D2A24215D205EB820821
:104AE00098ED000A70EE600A00EE103AB8EEC00AC7
:104AF000F4EEC00AF1EE10FA06D2BDEEE00A9146DD
:104B00000F4610EE103A1BB2491CC9B2A142B7D3EE
:104B1000634530D0FF2F2ED0B9F1FF0F2BD00428E2
:104B20000FD23AF8192000EB4001521C26F8112050
:104B30003AF8172006EB4101521C4A80401C8B803A
:104B4000C0B29FED110A05EB8901042881ED000A2E
:104B500005EB870181ED000A8CD3BDE8F09F00BF13
:104B600000EB4002401C26F8121006EB4202C0B2D5
:104B70005180918000E000210428F1D3EDE700008E
:104B800010660020480400200000000010B500B9A5
:104B9000012002F095FE002010BD10B502F0B6FE17
:104BA000002010BD7FB50D4604464169B0F90800EC
:104BB00081B1A16971B1FFF725FFD4E905128DE834
:104BC0000700D4E900102B46226903F01CF803907B
:104BD00004B070BDFFF716FF03A9CDE90001208ADC
:104BE0002B4682B2D4E9001002F0E0FF012801D088
:104BF0000020EDE70398EBE7082809D80A2907D237
:104C0000044B00EB800003EB001000EB4100028539
:104C1000704700002068002030B508280DD80A2908
:104C20000BD200EB80050548012400EB051020F8AD
:104C3000114000EB41008282038530BD20680020D6
:104C4000F8B5B0F820120025082901D90020F8BDD8
:104C5000214C59B1491E61712179204E002339B18F
:104C600001291CD0237101252846F8BD0821F2E74F
:104C7000D0E993128A4202D9571A142F04D28A42D9
:104C8000F2D2891A1429EFD36179009301EB8101E3
:104C900006EB01120A234FF40C51143215E0D0E94F
:104CA00093128A4202D9571A142F04D28A42DBD2B5
:104CB000891A1429D8D36179009301EB810106EB9D
:104CC00001120A234FF41051283202F05BFC2079C4
:104CD000401C2071C8E70000A804002020680020C4
:104CE000082809D80A2907D2044B00EB800003EBFF
:104CF000001000EB41008287704700002068002010
:104D00002DE9F84F2A4CDDE90A899A468B46DDE900
:104D10000C36E18C9446002751B10025012917D0AB
:104D2000102925D0112931D0E5843846BDE8F88F07
:104D3000334652466146584600F00EFA012823D009
:104D4000208D401C80B22085FA28EED310201BE075
:104D500073004FF44051009502F0AEFB0128E4D1FE
:104D6000E5842585324651465846FFF78DF8DCE745
:104D70004A4641465846009600F01CF8012802D0E9
:104D8000E5842585D1E71120E084CEE7334642460D
:104D90004FF44451009502F08FFB0128C5D1E58402
:104DA000324649464046FFF75FF80127BDE700005D
:104DB000A80400202DE9FF4FA5480D462DED048BDA
:104DC00081B00021D0ED038A90ED0A8ADFF87C9251
:104DD000C06C129E9A460C4609F14008012805D184
:104DE000B2EE040A68EE808A28EE008A102E7DD882
:104DF0004FF0FF0B76E000BF3AF91430DFB2B74254
:104E000046D205990598F1EE680A51F8241050F839
:104E100027000A1A00EE102AB8EEC00AB4EEE00A23
:104E2000F1EE10FA34DB00EE102AB8EEC00AB4EE50
:104E3000E80AF1EE10FA2BD800EE101AF8EEC00ACC
:104E4000B1EE480AF4EEC00AF1EE10FA08DD00EE09
:104E5000901AF8EEE00AF4EEC80AF1EE10FA17D351
:104E600000EE900AF8EEE00AF4EEC00AF1EE10FA55
:104E700008DD00EE100AB8EEC00AB4EEC80AF1EE82
:104E800010FA05D335F9141035F91700814227D0EF
:104E9000FF2B01D02AF814B0102F05D23AF91700D1
:104EA000FF2801D02AF817B035F9140048B1C0B274
:104EB00000F00CFD00212046FDF70EFD002025F836
:104EC0001400102F0CD235F9170048B1C0B200F011
:104ED000FDFC00213846FDF7FFFC002025F81700F7
:104EE000641CE4B2B44287D3002700E0A7E0384650
:104EF000B1EE489A26E000BF35F8101001BB0599C5
:104F000051F8201000EE101AB8EEC00AB4EEC90A2B
:104F1000F1EE10FA08D300EE101AB8EEC00AB4EEA3
:104F2000C80AF1EE10FA0BDD00EE101A09EB87014A
:104F3000B8EEC00A81ED000A28F817007F1CFFB206
:104F4000401CC0B2B042D7D33A4641464846FBF770
:104F50005DFB00247F1E6AE008EB440018F8149003
:104F600090F802B0B14560D2B3455ED2059951F8D0
:104F7000291000EE101AB8EEC00AB4EEC90AF1EE1C
:104F800010FA08D300EE101AB8EEC00AB4EEC80A40
:104F9000F1EE10FA49DD059850F82B0000EE100AEA
:104FA000B8EEC00AB4EEC90AF1EE10FA08D300EE6A
:104FB000100AB8EEC00AB4EEC80AF1EE10FA34DDF9
:104FC000081A00EE100AF1EE680AB8EEC00AB4EE54
:104FD000E00AF1EE10FA28DB00EE100AB8EEC00A83
:104FE000B4EEE80AF1EE10FA1FD8FEF7A5FE009025
:104FF00025F81900009825F81B002AF819B02AF89E
:105000001B90009838B10BF10100C1B209F1010009
:10501000C0B201F05FFB48460099FDF75DFC5846C1
:105020000099FDF759FC641CE4B2641CE4B2BC4274
:1050300092DB324628460799FFF70AFA014601B08B
:105040000846BDEC048B04B0BDE8F08F306700204B
:10505000480400202DE9F0411B4E0F460546002470
:105060002046FFF737F9306D70B13168A1F5DA42AB
:105070006C3A09D1DFED150A60EE200A00EE100A45
:10508000B8EEC01A80EE810AF06CB8B1F2EE040AF4
:1050900020EE200A07EB8401BDEEC00A10EE100AD4
:1050A00045F82400001427F8240035F82400641C77
:1050B000E4B24880082CD3D3BDE8F081F6EE000AB4
:1050C00030EE200AE6E700004804002000007A44A1
:1050D0002DE9F041002390460E460746032A1ED2D2
:1050E0004FEAC805F6EE000A083DE818C4B21946B2
:1050F0004046FBF761FB30EE200A06EB84015B1CA7
:10510000DBB2BDEEC00A10EE100A47F8240000140E
:1051100026F8240037F824004880082BE5D3BDE8A2
:10512000F0812DE9F0410020069C1E4617460D46F1
:10513000102C0FD811462846FFF78CFF0222394663
:105140002846FFF7C5FF224631462846BDE8F04114
:10515000FFF792B9BDE8F0812DE9F0410646002045
:105160001C4617460D46102B19D80E49096989B1FE
:10517000012914D129463046FFF76CFF0222294647
:105180003046FFF7A5FF224639463046BDE8F041DC
:10519000FFF772B929463046FFF75CFFF3E7BDE839
:1051A000F0810000480400202DE9F041184C0F4622
:1051B0000546E6682068001D02F0BAFA38B9206892
:1051C00090F82C1001208840216981432161681CDE
:1051D00007D137B12168BDE8F0410E48091D02F042
:1051E000EBBA20683544B5424560216805D2A06B12
:1051F000BDE8F041091D02F0C7BA606B091D02F05D
:10520000C3FAA06A854200D2A562BDE8F081000021
:105210001C000020781C00202DE9F041054602F01A
:10522000D7FA2E4CA068401CA06020682C4F10B10B
:10523000606940B32DE02560A068012829D10026CF
:1052400006EB860007EB800002F090FA761C072E32
:10525000F6D323488C3002F089FA2148A03002F0BE
:1052600085FA1F48B43002F081FA1D48C83002F0B8
:105270007DFA1B48DC3002F079FA19488C30606303
:105280001430A06305E02068E96AC06A884200D84B
:105290002560606A401C6062E96A012022698840DA
:1052A0001043206101EB810007EB8000291D02F013
:1052B00083FA02F0ADFA606900280CD02068E96A30
:1052C000C06A884207D207494FF080500860BFF398
:1052D0004F8FBFF36F8FBDE8F08100001C000020EE
:1052E0009C1B002004ED00E010B5044690F851002E
:1052F00058B101280CD002280FD0502080F311881B
:10530000BFF34F8FBFF36F8FFEE7206B02F094FA6D
:105310002046BDE8104002F08FBA10BD10484FF48F
:105320007051420706D0C01D0D4920F00700411AF8
:10533000C1F570510B4A00230144C2E9000308394A
:10534000183A21F0070111604B600B600B1AC0E99D
:10535000001393604FF000405360506170470000AD
:105360008C1C002070000020144E154CA6F1C807BC
:105370004FF08058DFF84C9012E000BF02F028FA9E
:10538000F068C568281D02F0D3F9A068401EA0602F
:105390006068401E606002F03BFA2846FFF7A4FFF9
:1053A00060680028EAD138680128F9D9C9F8008076
:1053B000BFF34F8FBFF36F8FF2E70000641C002034
:1053C0001C00002004ED00E02DE9F0479A46DDE9DD
:1053D000098481466FF00303206B03EB82021044C3
:1053E000089E20F00707780707D0502080F3118827
:1053F000BFF34F8FBFF36F8FFEE7002561B1002031
:1054000023180A5C83F834200A5C12B1401C10286F
:10541000F6D384F8435001E084F83450072E00D3CB
:105420000626E662C4E91165201D02F0AAF904F11E
:10543000180002F0A6F92461C6F107006462A061B9
:10544000E56484F8505052464946384600F0C0F8AA
:105450002060B8F1000F01D0C8F80040BDE8F08727
:1054600030B5114900E011460A688242FBD34B680F
:105470005C18844203D14068184448600846436879
:105480001C18944209D1084C183C2468A24209D047
:1054900052681A4442600A6812680260814200D071
:1054A000086030BD0460F9E7700000200648416BD9
:1054B000096829B1416BC968C96849688162704748
:1054C0004FF0FF31FAE700001C0000200848406858
:1054D000401C4FF0500080F3118804D0BFF34F8F71
:1054E000BFF36F8FFEE7BFF34F8FBFF36F8FFEE702
:1054F000780000202DE9F0410546002702F03CFA33
:10550000324E306808B9FFF709FF706905424ED185
:10551000C5B3083568070ED005F00700C0F10800D4
:105520000544680707D0502080F31188BFF34F8FE0
:10553000BFF36F8FFEE72DB37068854237D82348DD
:10554000183001460C6801E020460C466168A9420B
:1055500002D221680029F7D131688C4227D0076830
:105560002168016060680837411B10290FD9601954
:10557000420708D0502080F31188BFF34F8FBFF34C
:105580006F8FFEE713E041606560FFF769FF6168B8
:105590007068401A7060B268904200D2B060706962
:1055A00001430020C4E90001F068401CF06002F0F3
:1055B000BBFB780707D0502080F31188BFF34F8FD3
:1055C000BFF36F8FFEE73846BDE8F081580000203A
:1055D00010B5031F4FF080741C601B1F21F00101E8
:1055E0001960191F044B0B6014390A60091F6FF012
:1055F000020244380A6010BDCD54000830B50022C4
:1056000010290FD8084B0BE033F8124000EB42058D
:10561000240A00F8124013F81240521C6C70D2B2E7
:105620008A42F1D330BD0000D066002030B50022A0
:105630000C290FD8084B0BE033F8124000EB420561
:10564000240A00F8124013F81240521C6C70D2B2B7
:105650008A42F1D330BD0000906700202DE9F04769
:10566000ADF5B16D40F2845529466846FAF76AFFF8
:105670004FF0000844462A4669464046FEF76CF95A
:10568000DDF88055002876D14FF4B0616846FEF70A
:1056900021FAA8427ED1EA4608F0FF00FEF738FB67
:1056A000814604F10A00002687B209F1340512E0B0
:1056B0005AF8241002C55AF82400C11700EBD15043
:1056C000314640F34F22761CF6B208F0FF00FFF798
:1056D00093FA641CA4B2BC42EAD307F10A00002486
:1056E00086B209F15C050EE05AF8271002C53AF8B7
:1056F0002700214602B2641CE4B208F0FF00FFF765
:10570000EFFA7F1CBFB2B742EED306F10B0080B2B6
:1057100009F18401534607E003EB8602761C92ED03
:10572000000AB6B2A1EC010A8642F5D300F10B01E2
:1057300089B209F1B00207E003EB8004401C94ED4C
:10574000000A80B2A2EC010A8842F5D3481C80B25C
:1057500009F1DC0208E000BF03EB8104491C94ED71
:10576000000A89B2A2EC010A8142F5D3411C8CB235
:1057700009F1E00105E00DE053F82020401C04C1D0
:1057800080B2A042F8D308F101001FFA80F8B8F106
:10579000080F81D30DF5B16DBDE8F08770B598B0F5
:1057A00060216846FAF7CEFE6022002469461001A7
:1057B000FEF7D2F8179D002862D15C216846FEF7FB
:1057C00089F9A8425CD12F4A0098694610602E489A
:1057D000019A0260029A4260039A82609DED040A77
:1057E00080ED030A059A0261069A426107220B23A3
:1057F00051F8225000EB8406641C521C92B2E4B2B1
:10580000B5619A42F4D301EB8203521C93ED000A76
:1058100092B280ED0A0A51F82230521C92B2C36251
:1058200051F82230521C92B2036351F82230521CBC
:1058300092B2436351F82230521C92B2836351F802
:105840002230521C92B2C36351F82230521C92B2E1
:10585000036451F82230521C92B2436451F8223052
:10586000521C92B2836451F82230521C92B2C3642B
:1058700051F82230521C92B2036551F82210416552
:1058800018B070BD140400204804002030B5002278
:10589000102917D80C4B13E053F82240240E00F8BF
:1058A000224053F82240250C00EB8204657033F847
:1058B00022502D0AA57013F82250521CE570D2B266
:1058C0008A42E9D330BD000010660020084A00215A
:1058D00002EB81039B69834205D102EB4101002069
:1058E000A1F858007047491CC9B20429F0D3704789
:1058F00048040020F8B51D4C1B4F0025A17AA7F1E4
:1059000040022E4629B1012917D0A672012528464A
:10591000F8BDD0E993138B4202D95F1A142F04D239
:105920008B42F4D2C91A1429F1D320234FF44051E9
:10593000009601F027FE012013E0D0E993128A427D
:1059400002D9531A142B04D28A42E0D2891A14299C
:10595000DDD310233A464FF44451009601F012FE75
:105960000220A072D3E70000D0660020A804002027
:10597000F8B5B0F820220025082A01D90020F8BD8A
:10598000204C00214AB1E271A2791F4E3AB1012A9E
:105990001CD0A17101252846F8BDE171F4E7D0E9DA
:1059A0009323934202D99F1A142F04D29342F2D226
:1059B000D21A142AEFD3E2790A2302EB820206EB11
:1059C000021200914FF40C51143215E0D0E99323E8
:1059D000934202D99F1A142F04D29342DBD2D21AD7
:1059E000142AD8D3E279009102EB820206EB02126C
:1059F0000A234FF41051283201F0C4FDA079401C55
:105A0000A071C8E7A804002020680020C278072AF7
:105A100003D30022C27001228270C278B1F1807F6C
:105A200000EB820201D3A1F100715160C178491CE1
:105A3000C170704770B50446B0F80E02002542F2FE
:105A40000111884214D1B4F812020125A0F5E061D9
:105A5000E5390DD10120A4F81802A4F81A0294F82F
:105A6000200204F50674FEF713F9207AFEF7CCF84D
:105A7000284670BDB0F80E220021B2F5045F12D1A5
:105A80000022A0F81A22B0F82032B0F91222012127
:105A9000934208D00123A0F81C32082A03DCB0F896
:105AA0001222A0F82022084670472DE9F041044652
:105AB0000026B0F81A023546012836D1B4F80E0295
:105AC000B0F5145F31D342F20A5188422DD2B4F9B5
:105AD00012120126A1F59052FE3A26D10121A4F816
