:020000040800F2
:10000000582E0020690200087702000879020008D3
:100010007B0200087D0200087F020008000000004B
:100020000000000000000000000000008102000845
:100030008302000800000000850200088702000813
:100040008902000889020008890200088902000864
:100050008902000889020008890200088902000854
:100060008902000889020008890200088902000844
:10007000610400088902000889020008890200085A
:10008000890200089D04000889020008890200080E
:100090008902000889020008890200088902000814
:1000A0008902000889020008890200088902000804
:1000B00089020008890200088902000889020008F4
:1000C00089020008890200088902000889020008E4
:1000D00089020008890200080D1B0008051C0008A1
:1000E00089020008890200088902000889020008C4
:1000F00089020008890200088902000889020008B4
:10010000000000000000000000000000890200085C
:100110008902000889020008F91A0008890200080B
:100120008902000889020008890200088902000883
:100130008902000889020008000000000000000099
:1001400089020008890200088902000800000000F6
:10015000000000000000000000000000000000009F
:100160000000000000000000890200088902000869
:1001700089020008000000000000000000000000EC
:10018000000000008902000800F002F800F05CF8AE
:100190000AA090E8000C82448344AAF10107DA45E2
:1001A00001D100F051F8AFF2090EBAE80F0013F0D8
:1001B000010F18BFFB1A43F001031847CC8200005F
:1001C000EC8200000A444FF0000C10F8013B13F0E1
:1001D000070408BF10F8014B1D1108BF10F8015BA0
:1001E000641E05D010F8016B641E01F8016BF9D193
:1001F00013F0080F1EBF10F8014BAD1C0C1B09D1EA
:100200006D1E58BF01F801CBFAD505E014F8016B5B
:1002100001F8016B6D1EF9D59142D6D370470000ED
:100220000023002400250026103A28BF78C1FBD8FF
:10023000520728BF30C148BF0B6070471FB507F099
:100240005FFF1FBD10B510BD00F05CF81146FFF751
:10025000F5FF04F0B5FB00F07AF803B4FFF7F2FF06
:1002600003BC00F081F800000B48016841F4700104
:1002700001600A480047FEE7FEE7FEE7FEE7FEE70B
:10028000FEE7FEE7FEE7FEE7FEE70000044805495B
:10029000054A064B7047000088ED00E08901000820
:1002A00058160020582E00205822002058220020E6
:1002B0004FF0000200B5134694469646203922BFFF
:1002C000A0E80C50A0E80C50B1F12001BFF4F7AF4A
:1002D000090728BFA0E80C5048BF0CC05DF804EB2C
:1002E000890028BF40F8042B08BF704748BF20F89A
:1002F000022B11F0804F18BF00F8012B7047704798
:1003000070477047754600F02BF8AE460500694609
:10031000534620F00700854618B020B5FFF7B6FF1A
:10032000BDE820404FF000064FF000074FF00008F6
:100330004FF0000B21F00701AC46ACE8C009ACE877
:10034000C009ACE8C009ACE8C0098D46704710B5DB
:100350000446AFF300802046BDE81040FFF77DBFA4
:1003600000487047F815002001491820ABBEFEE791
:100370002600020070470000F0B503460025002467
:100380000020DFED210AB0EE600A002600BF37E052
:10039000002501202DE003EB8007D7ED000A471E62
:1003A00003EB870797ED001AF4EEC10AF1EE10FA9D
:1003B0001DD2471E03EB8707D7ED000AB0EE600A97
:1003C00003EB8007D7ED000A471E03EB8707C7ED55
:1003D000000A03EB800787ED000A471E31F917601A
:1003E00031F810C021F817C021F810600125471C12
:1003F000F8B2171B8742CEDC05B9F0BD671CFCB212
:100400009442C5DB00BFF8E700000000F0B50246EB
:10041000002400230020002500BF1CE00024012050
:1004200012E052F82070461E52F82660B74209DAF0
:10043000461E52F8265052F8207042F8267042F8B4
:1004400020500124461CF0B2CE1A8642E9DC04B9E1
:10045000F0BD5E1CF3B28B42E0DB00BFF8E70000AA
:1004600010B50A4A11680A4A106801F0E1FF60B14C
:100470000749086801F0D0FF06490868064902F0FC
:1004800080FE0249086801F037FF10BD5084000863
:10049000340700200C0700200601060010B50A4AA8
:1004A00051680A4A506801F0C3FF60B107494868C3
:1004B00001F0B2FF06494868064902F062FE0249AF
:1004C000486801F019FF10BD50840008340700206F
:1004D0000C0700200601060010B5DFED0C0AB0EE97
:1004E000600A0B4A062910DA02280EDB03280CDA10
:1004F000431E03EB430402F5437303EBC40303EB16
:100500008103D3ED000AB0EE600A10BD00000000C8
:100510002800002070B505460C466426012C12D137
:10052000284602F007FF304600F064F8284602F043
:10053000F1FE304600F05EF8284602F0FBFE304641
:1005400000F058F811E0284602F0E4FE304600F0D2
:1005500051F8284602F0EEFE304600F04BF82846EF
:1005600002F0D8FE304600F045F870BDF0B5024606
:100570000C4600270025002300260021012C06D070
:10058000022C0AD0032C06D0042C08D101E001254E
:1005900007E0082505E0042503E0022501E0002529
:1005A00000BF00BF062A21DAC2F1050000EBD07CB3
:1005B000CCF347030E48C15C032B17DAC2F10500E8
:1005C00000EBD07C4FEA6C0CA0EB4C0C0CF0FF065F
:1005D0001EB901F0F001294305E001F00F01F02000
:1005E00000EA051001430248C15401273846F0BD16
:1005F0000500002000E0401E0028FCD170470000EC
:1006000010B5104CD4F80803401CC4F808030E4879
:100610000069B0B10C480069012806D0022809D051
:100620000B2803D00C280AD105E000BF204600F0BB
:100630002FF805E000BF204600F012FD00E000BFEB
:1006400000BF10BD28000020B0030020C822D0F851
:100650000813B1FBF2F302FB1311B1B9B0F83E136A
:1006600041F02001A0F83E1308490969012902D090
:100670000B2908D103E0022180F84F1304E00C217C
:1006800080F84F1300E000BF00BF7047B0030020A8
:1006900010B50446204600F05DFC204600F09FFCAB
:1006A00001280AD1B4F80403C01E04F50171085CE6
:1006B000A52802D1204600F0C3F910BD2DE9F04174
:1006C000044600270025002694F83E0300F00100B0
:1006D00088B3B4F83E0320F00100A4F83E030120E3
:1006E00084F8040194F84F1340F2051001550121DC
:1006F000401C0155401C0155401C0155062084F842
:100700004E0394F84E1304F5827001F081FB064607
:10071000310A94F84E23501C84F84E0304F582707D
:10072000815494F84E23501C84F84E0304F58270D3
:10073000865401277FE1FFE794F83E0300F00200B2
:1007400098B3B4F83E0320F00200A4F83E03012061
:1007500084F8040194F84F1340F20510015502216A
:10076000401C01550121401C01550221401C01552E
:10077000062084F84E0394F84E1304F5827001F0BD
:1007800047FB0646310A94F84E23501C84F84E036A
:1007900004F58270815494F84E23501C84F84E0363
:1007A00004F582708654012745E1FFE794F83E0383
:1007B00000F00400C0B3B4F83E0320F00400A4F835
:1007C0003E03012084F8040194F84F1340F2051011
:1007D00001550321401C01552521401C01550321D1
:1007E000401C0155122104F2091004F093FD2A2047
:1007F00084F84E0394F84E1304F5827001F008FB60
:100800000646310A94F84E23501C84F84E0304F532
:100810008270815494F84E23501C84F84E0304F5E2
:1008200082708654012706E1FFE794F83E0300F04A
:100830000800E8B3B4F83E0320F00800A4F83E0333
:10084000012084F8040194F84F1340F2051001557B
:100850000421401C01552621401C01550421401C47
:100860000155122104F2091004F054FD94F85013BC
:1008700084F82D11002084F850032B2084F84E03B7
:1008800094F84E1304F5827001F0C2FA0646310A5C
:1008900094F84E23501C84F84E0304F58270815462
:1008A00094F84E23501C84F84E0304F5827000E047
:1008B00002E086540127BEE094F83E0300F01000E9
:1008C000002852D0B4F83E0320F01000A4F83E03F4
:1008D000012084F8040194F84F1340F205100155EB
:1008E0000521401C01555621401C01550521401C85
:1008F0000155052504F582714819122104F00AFDFD
:10090000243594F8501304F582704155002084F882
:1009100050036D1C04F5827148190C2104F078FE17
:10092000183504F5827148190C2104F0D7FC1835EC
:10093000681C84F84E0394F84E1304F5827001F09D
:1009400067FA0646310A94F84E23501C84F84E0389
:1009500004F58270815494F84E23501C84F84E03A1
:1009600004F582708654012765E094F83E0300F098
:10097000200000285FD0B4F83E0320F02000A4F847
:100980003E032E480069012802D00B2808D103E05D
:10099000012084F8040104E00B2084F8040100E045
:1009A00000BF00BF94F84F1340F205100155062117
:1009B000401C01555621401C01550621401C015583
:1009C000052504F582714819122104F0A3FC243591
:1009D00094F8501304F582704155002084F85003B8
:1009E0006D1C04F5827148190C2104F011FE1835B4
:1009F00004F5827148190C2104F070FC1835681C4C
:100A000084F84E0394F84E1304F5827001F000FA56
:100A10000646310A94F84E23501C84F84E0304F520
:100A20008270815494F84E23501C84F84E0304F5D0
:100A3000827086540127F8B2BDE8F081B00300202F
:100A400070B500210022002302794379022A7DDB60
:100A5000032A7BDA012B7AD1FE4C2469012CFAD1CE
:100A60008479813C062C73D2DFE804F00344F8F665
:100A7000F5F4C479182C3CD1002138E08C00241DF9
:100A8000051D2D5D541E04EB440600F5437404EB74
:100A9000C60404F821508C00641D051D2D5D541EF4
:100AA00004EB440600F5437404EBC60404EB810434
:100AB00065708C00A41D051D2D5D541E04EB4406BD
:100AC00000F5437404EBC60404EB8104A5708C00AC
:100AD000E41D051D2D5D541E04EB440600F5437412
:100AE00004EBC60404EB8104E5704C1CA1B206299A
:100AF000C4DBD4E1C479182C7ED10021A6E0002506
:100B0000541E04EB440600F5437404EBC60444F899
:100B10002150541E04EB440500F5437404EBC50456
:100B200054F821608C00241D051D2C5D3519541EC0
:100B300004EB440600F5437404EBC60444F821506A
:100B4000541E04EB440500F5437402E0A8E1FEE105
:100B5000A4E104EBC50454F821402502541E04EB23
:100B6000440600F5437404EBC60444F82150541EB7
:100B700004EB440500F5437404EBC50454F821600C
:100B80008C00641D051D2C5D3519541E04EB4406B4
:100B900000F5437404EBC60444F82150541E04EBE2
:100BA000440500F5437404EBC50454F821402502C4
:100BB000541E04EB440600F5437404EBC60444F8E9
:100BC0002150541E04EB440500F5437404EBC504A6
:100BD00054F821608C00A41D051D2C5D3519541E90
:100BE00004EB440600F5437404EBC60444F82150BA
:100BF000541E04EB440500E02BE000F5437404EBC5
:100C0000C50454F821402502541E04EB440600F5A7
:100C1000437404EBC60444F82150541E04EB44050D
:100C200000F5437404EBC50454F821608C00E41D06
:100C3000051D2C5D3519541E04EB440600F5437464
:100C400004EBC60444F821504C1CA1B20629FFF65F
:100C500056AF24E1D5E08BE041E0FFE7C479182CE2
:100C60003CD1002138E08C00241D051D2D5D541E53
:100C700004EB440600F5437404EBC60404F8215069
:100C80008C00641D051D2D5D541E04EB440600F50B
:100C9000437404EBC60404EB810465708C00A41D4E
:100CA000051D2D5D541E04EB440600F5437404EB52
:100CB000C60404EB8104A5708C00E41D051D2D5DA8
:100CC000541E04EB440600F5437404EBC60404EB25
:100CD0008104E5704C1CA1B20629C4DBDFE0C479B5
:100CE000192C44D1002138E08C00241D051D2D5DF8
:100CF000541E04EB440600F5437404EBC60404F8E8
:100D000021508C00641D051D2D5D541E04EB44060E
:100D100000F5437404EBC60404EB810465708C0099
:100D2000A41D051D2D5D541E04EB440600F54374FF
:100D300004EBC60404EB8104A5708C00E41D051DC2
:100D40002D5D541E04EB440600F5437404EBC60409
:100D500004EB8104E5704C1CA1B20629C4DB8C00B5
:100D6000241D051D2C5D012C01D180F8514396E016
:100D7000C479192C44D1002138E08C00241D051DB4
:100D80002D5D541E04EB440600F5437404EBC604C9
:100D900004F821508C00641D051D2D5D541E04EBCC
:100DA000440600F5437404EBC60404EB810465704B
:100DB0008C00A41D051D2D5D541E04EB440600F59A
:100DC000437404EBC60404EB8104A5708C00E41D9D
:100DD000051D2D5D541E04EB440600F5437404EB21
:100DE000C60404EB8104E5704C1CA1B20629C4DBE7
:100DF0008C00241D051D2C5D012C01D180F8514370
:100E00004DE0C479192C48D100213CE08C00241D10
:100E1000051D2D5D541E04EB440600F5437404EBE0
:100E2000C60404F821508C00641D051D2D5D541E60
:100E300004EB440600F5437404EBC60404EB8104A0
:100E400065708C00A41D051D2D5D541E04EB440629
:100E500002E00000B003002000F5437404EBC60478
:100E600004EB8104A5708C00E41D051D2D5D541E4E
:100E700004EB440600F5437404EBC60404EB810460
:100E8000E5704C1CA1B20629C0DB8C00241D051D99
:100E90002C5D012C01D180F8514300E000BF56E0E9
:100EA0000C2A54D10B2B52D1294C24690B2C4ED136
:100EB00002228479862C48D1C479192C44D100218E
:100EC00038E08C00241D051D2D5D541E04EB4406E6
:100ED00000F5437404EBC60404F821508C00641D33
:100EE000051D2D5D541E04EB440600F5437404EB10
:100EF000C60404EB810465708C00A41D051D2D5DE6
:100F0000541E04EB440600F5437404EBC60404EBE2
:100F10008104A5708C00E41D051D2D5D541E04EB9D
:100F2000440600F5437404EBC60404EB8104E57049
:100F30004C1CA1B20629C4DB8C00241D051D2C5DB0
:100F4000012C01D180F8514300E000BF00BF70BD0B
:100F5000B003002010B504462046FFF777FB94F855
:100F60003C0320B101280FD0022832D11FE0B4F891
:100F70004203401CA4F84203B4F842030F2802DBEA
:100F8000012084F83C0328E02046FFF797FB012866
:100F90000CD194F84E23206804F58271C36A9847F7
:100FA000022084F83C030020A4F8440315E0B4F8C0
:100FB0004413481CA4F844033C2902DB012084F8B4
:100FC0003C0394F80603012802D1002084F83C0376
:100FD00003E0002084F83C0300BF00BF10BD2DE9F2
:100FE000F041044600270025002694F80603012856
:100FF00033D1002084F80603B4F8040302282CDD62
:10100000B4F80403FF2828DCB4F80403801E04F5B8
:101010000171085C4FF47F4101EA0026B4F8040333
:10102000401E04F50171085C304486B2B4F8040334
:10103000811E04F5017000F0EBFEB0420DD100BF3F
:1010400006E004F50170415D201D4155681C85B224
:10105000B4F80403A842F4DC0127F8B2BDE8F0813B
:1010600010B50446204600F0F9F82046FFF7B7FF18
:10107000012802D1204600F001F810BD2DE9F04111
:10108000044600270026002527796679012F7DD1A7
:10109000022E7CDB032E7ADA6F480069B04276D1EB
:1010A000A079072874D2DFE800F09D04111E3048B3
:1010B0007400E079012808D1207A012805D1B4F81C
:1010C000480340F00100A4F848038CE0E0790128CF
:1010D00008D1207A022805D1B4F8480340F0020074
:1010E000A4F848037FE0E07925280DD1207A032871
:1010F0000AD1122104F1090006F0CAFDB4F8480330
:1011000040F00400A4F848036DE0E079262813D1EC
:10111000207A042810D1122104F1090006F0B8FD4C
:1011200094F82D00012801D184F85103B4F8480344
:1011300040F00800A4F8480355E0E079562824D18F
:10114000207A052821D10525211D4819122106F0F4
:101150009FFD2435201D405D012801D184F85103F5
:10116000681C85B2211D48190C2106F0C1FD05F14E
:10117000180085B2211D48190C2106F059FDB4F85C
:10118000480340F01000A4F848032CE02CE061E094
:1011900028E0E079562824D1207A062821D1052597
:1011A000211D4819122106F073FD2435201D405DD4
:1011B000012801D184F85103681C85B2211D48190A
:1011C0000C2106F095FD05F1180085B2211D481986
:1011D0000C2106F02DFDB4F8480340F02000A4F8DF
:1011E000480300E000BF35E00B2F33D10C2E31D186
:1011F00019480069B0422DD1A079062828D1E0799C
:10120000562824D1207A062821D10525211D4819E8
:10121000122106F03DFD2435201D405D012801D13D
:1012200084F85103681C85B2211D48190C2106F071
:101230005FFD05F1180085B2211D48190C2106F04B
:10124000F7FCB4F8480340F02000A4F8480300E09D
:1012500000BF00BFBDE8F081B003002010B5044618
:1012600094F8460310B101281DD10CE0B4F84C03EA
:10127000401CA4F84C03B4F84C030F2802DB0120F7
:1012800084F8460313E0204600F014F8012809D141
:1012900094F84E23206804F58271C36A98470020B1
:1012A00084F8460303E0002084F8460300BF00BF33
:1012B00010BD00002DE9F04104464FF00008002564
:1012C00000260027667994F8480300F00100002802
:1012D0007DD0B4F8480320F00100A4F84803F74893
:1012E000007C84F80401012140F2051001558121A0
:1012F000401C01551821401C015500BF0FE0E8B209
:1013000002F0D2FE701E00EB400104F5437000EBCA
:10131000C10000EB850080ED000A681C85B2062D37
:10132000EDDB00253CE0701E00EB400104F543704E
:1013300000EBC10010F82520A800001D04F5827103
:101340000A54701E00EB400104F5437000EBC1002D
:1013500000EB85004278A800401D04F582710A5414
:10136000701E00EB400104F5437000EBC10000EB80
:1013700085008278A800801D04F582710A54701ED1
:1013800000EB400104F5437000EBC10000EB850069
:10139000C278A800C01D04F582710A54681C85B289
:1013A000062DC0DBA800001D84F84E0394F84E13F0
:1013B00004F5827000F02CFD0746390A94F84E239C
:1013C000501C84F84E0304F58270815400E00AE05A
:1013D00094F84E23501C84F84E0304F58270875411
:1013E0004FF0010823E394F8480300F002000028BE
:1013F0007DD0B4F8480320F00200A4F84803AF48B9
:10140000007C84F80401012140F20510015582217D
:10141000401C01551821401C015500250FE0E8B281
:1014200002F042FE701E00EB400104F5437000EB39
:10143000C10000EB850080ED000A681C85B2062D16
:10144000EDDB002559E0701E00EB400104F5437010
:1014500000EBC10000EB850090ED000ABDEEC00A74
:1014600010EE100A020EA800001D04F582710A5445
:10147000701E00EB400104F5437000EBC10000EB6F
:10148000850090ED000ABDEEC00A10EE100AC0F310
:101490000742A800401D04F582710A54701E00EB3B
:1014A000400104F5437000EBC10000EB850090EDB6
:1014B000000ABDEEC00A10EE100AC0F30722A80011
:1014C000801D04F582710A54701E00EB400104F582
:1014D000437000EBC10000EB850090ED000ABDEE0B
:1014E000C00A10EE100AC2B2A800C01D00E025E03C
:1014F00004F582710A54681C85B2062DA3DBA8008E
:10150000001D84F84E0394F84E1304F5827000F029
:101510007FFC0746390A94F84E23501C84F84E038A
:1015200004F58270815494F84E23501C84F84E03C5
:1015300004F5827087544FF0010878E294F848036C
:1015400000F0040000287DD0B4F8480320F0040027
:10155000A4F848035948007C84F80401012140F2B2
:10156000051001558321401C01551821401C0155CF
:1015700000250FE0E8B202F097FD701E00EB40017D
:1015800004F5437000EBC10000EB850080ED000A1C
:10159000681C85B2062DEDDB00253CE0701E00EBDB
:1015A000400104F5437000EBC10010F82520A800AD
:1015B000001D04F582710A54701E00EB400104F511
:1015C000437000EBC10000EB85004278A800401D8D
:1015D00004F582710A54701E00EB400104F543705B
:1015E00000EBC10000EB85008278A800801D04F5A7
:1015F00082710A54701E00EB400104F5437000EB49
:10160000C10000EB8500C278A800C01D04F58271FE
:101610000A54681C85B2062DC0DBA800001D84F8A2
:101620004E0394F84E1304F5827000F0F1FB074668
:10163000390A94F84E23501C84F84E0304F5827046
:10164000815400E00AE094F84E23501C84F84E03C5
:1016500004F5827087544FF00108E8E194F84803DC
:1016600000F0080000287DD0B4F8480320F00800FE
:10167000A4F848031148007C84F80401012140F2D9
:10168000051001558421401C01551921401C0155AC
:1016900000250FE0E8B202F007FD701E00EB4001EC
:1016A00004F5437000EBC10000EB850080ED000AFB
:1016B000681C85B2062DEDDB00253EE0B00300205E
:1016C000701E00EB400104F5437000EBC10010F800
:1016D0002520A800001D04F582710A54701E00EB3D
:1016E000400104F5437000EBC10000EB8500427837
:1016F000A800401D04F582710A54701E00EB4001E1
:1017000004F5437000EBC10000EB85008278A8006F
:10171000801D04F582710A54701E00EB400104F52F
:10172000437000EBC10000EB8500C278A800C01D2B
:1017300004F582710A54681C85B2062DC0DB94F84A
:101740005023A800001D04F582710A54002084F87B
:101750005003A800401D84F84E0394F84E1304F57E
:10176000827000E016E000F053FB0746390A94F857
:101770004E23501C84F84E0304F58270815494F873
:101780004E23501C84F84E0304F5827087544FF0AA
:1017900001084CE194F8480300F0100000287CD0C8
:1017A000B4F8480320F01000A4F84803A148007CD6
:1017B00084F80401012140F2051001558521401CE7
:1017C00001551921401C015500250FE0E8B202F037
:1017D0006BFC701E00EB400104F5437000EBC10090
:1017E00000EB850080ED000A681C85B2062DEDDB5C
:1017F00000253CE0701E00EB400104F5437000EB57
:10180000C10010F82520A800001D04F582710A54BB
:10181000701E00EB400104F5437000EBC10000EBCB
:1018200085004278A800401D04F582710A54701E9C
:1018300000EB400104F5437000EBC10000EB8500B4
:101840008278A800801D04F582710A54701E00EB96
:10185000400104F5437000EBC10000EB8500C27845
:10186000A800C01D04F582710A54681C85B2062DBB
:10187000C0DB94F85023A800001D04F582710A54BF
:10188000002084F8500394F85223A800401D0A5405
:10189000A800801D84F84E0300E01AE094F84E136F
:1018A00004F5827000F0B4FA0746390A94F84E2322
:1018B000501C84F84E0304F58270815494F84E2332
:1018C000501C84F84E0304F5827087544FF00108D1
:1018D000ADE094F8480300F020000028F8D0B4F8F8
:1018E000480320F02000A4F848035248007C84F804
:1018F000040150480069022802D00C280CD105E0F0
:10190000012140F205100155022606E00B2140F2AC
:1019100005100155022600E000BF00BF86214FF4EC
:10192000837001551921401C015500250FE0E8B2D4
:1019300002F0BAFB701E00EB400104F5437000EBAF
:10194000C10000EB850080ED000A681C85B2062D01
:10195000EDDB00253CE0701E00EB400104F5437018
:1019600000EBC10010F82520A800001D04F58271CD
:101970000A54701E00EB400104F5437000EBC100F7
:1019800000EB85004278A800401D04F582710A54DE
:10199000701E00EB400104F5437000EBC10000EB4A
:1019A00085008278A800801D04F582710A54701E9B
:1019B00000EB400104F5437000EBC10000EB850033
:1019C000C278A800C01D04F582710A54681C85B253
:1019D000062DC0DB94F85023A800001D04F5827189
:1019E0000A54002084F8500394F85223A800401DA4
:1019F0000A54A800801D84F84E0394F84E1304F591
:101A0000827000F005FA0746390A94F84E23501CFC
:101A100084F84E0304F58270815494F84E23501CD0
:101A200084F84E0304F5827087544FF00108404655
:101A3000BDE8F081B003002010B5104810490860DF
:101A400001F541700968C860801C0D49096808618A
:101A5000A0F202200A490968486100F5807008492F
:101A60000968886100200649A1F8040381F806038B
:101A70000A4610681268116A884710BD4C0700209A
:101A80002800002010B5014600200D4B1B880C4C8F
:101A9000A48823440A4C248923449AB2094B1A602F
:101AA00040F2E5735343C3F30B02914206D1064B58
:101AB000196042F2CD03054C2360012010BD0000E7
:101AC0008C0D00207C030020800300208403002074
:101AD00070B1084A52F8212012680260054A52F893
:101AE000212052684260034A52F8212092688260A5
:101AF000704700008803002010B50121024801F062
:101B0000D3F900F053F910BD001000401CB538485F
:101B10004068C069019036484068006800900198AC
:101B2000C0F3C02060B30098C0F3806040B3304978
:101B30004868304901F046FA2F49486800F06CFCCB
:101B40002D49486800F0A6FC2C49B1F85410081A39
:101B500081B22A48406C018001212848806C0170C4
:101B60002648383000F046F9244BB3F85420196D5C
:101B7000214B586800F0A6FB1F49486800F051FC53
:101B80000098C0F38010C8B10198C0F38010A8B1CC
:101B9000174948681A4901F015FA0021174880F8DA
:101BA0003F1090F83900042804D0144890F8390008
:101BB000052803D11148383001F050FF019800F09A
:101BC000010078B90198C0F3400058B90198C0F3FA
:101BD000800038B90198C0F3C00018B90198C0F36B
:101BE000002018B10548383001F0B2FD1CBD0000DE
:101BF0000C0700201A010B00440700204C070020AE
:101C0000060106001CB556480068C069019001989D
:101C1000C0F3C02010B352490868524901F0D2F90C
:101C20005149086800F0F8FB4F49086800F032FCA1
:101C30004E49898B081A4D49C968088001204B49D3
:101C400009690870494B9A8B9969474B186800F0ED
:101C500039FB4549086800F0E4FB80E00198C0F3D7
:101C60004010B0B13E490868414901F0ABF93C4928
:101C70000868416A00910099C9B23C48C06802886E
:101C80003A48C068801C394BD86018468069815436
:101C900065E00198C0F3C01020B90198C0F380102E
:101CA000002845D00198C0F3801098B12C490868ED
:101CB000304901F087F900202C49C8710846407866
:101CC000042803D008464078052848D1274801F069
:101CD000C5FE44E00198C0F3C01000283FD0204961
:101CE0000868254901F06EF9204840891F49098993
:101CF00088420FDB1A4908681F4901F028FA184981
:101D000008681C4901F05EF915490868194901F095
:101D100038FA24E0124A1068144A53895289521C36
:101D2000124C628122465269D15C816200BF16E08A
:101D3000019800F0010078B90198C0F3400058B94B
:101D40000198C0F3800038B90198C0F3C00018B9F9
:101D50000198C0F3002010B1044801F0F9FC1CBD4B
:101D60000C0700201A010B00440700204C0700203C
:101D700005010500060106000701070010B5094826
:101D8000007801280CD10848006840F6E4418842F8
:101D900006D300200349087002F088FA05F0CCFC55
:101DA00010BD0000040000200000002010B5002439
:101DB00000BF4AF6AA200D49088000BF0C48006801
:101DC000401C0B490860FFF7D9FF02F0BFFC01F08F
:101DD000FDFF012802D101F06DFF0446FEF710FC63
:101DE00005F0AEFA02F084FD10BD000000300040A6
:101DF00000000020704710B5002400BF05E000215E
:101E00002046FEF7B3FB601CC4B2062CF7DB10BD06
:101E1000F0B502460D46FF21FF24002009E01678A8
:101E200086EA04030A4EF65C86EA0104094EF15C78
:101E3000521C2E1EA5F10105F1D108464FF6FF7682
:101E400006EA002000F47F400619B0B2F0BD0000A1
:101E50003C8100083C82000870B5002400258348BE
:101E6000B0F82002062801DD002070BD7F48B0F8E0
:101E7000200218B906207E4908700AE07B48B0F8B5
:101E80002002062805DC794890F82002401E784997
:101E900008707848007830B101283CD0022874D00E
:101EA000032871D1A9E07148D0F850026F49D1F8E8
:101EB0004C12884208D96D48D0F850026B49D1F8CD
:101EC0004C12401A192810D26848D0F850026749BD
:101ED000D1F84C1288421DD26448D0F84C026349B4
:101EE000D1F85012401A192814D36148007800EB39
:101EF0008000614901EB001000F1140400230A2264
:101F000021464FF40C5005F0E5FC5A480078401C7F
:101F100058490870A6E05548D0F850025349D1F806
:101F20004C12884208D95148D0F850024F49D1F894
:101F30004C12401A192810D24C48D0F850024B4984
:101F4000D1F84C1288421DD24848D0F84C0247497B
:101F5000D1F85012401A192814D34548007800EBE4
:101F60008000454901EB001000F1280400230A22FB
:101F700021464FF4105005F0ADFC3E480078401C5F
:101F80003C4908706EE000E067E03848D0F8500245
:101F90003649D1F84C12884208D93448D0F850025A
:101FA0003249D1F84C12401A192810D22F48D0F8D3
:101FB00050022E49D1F84C1288421DD22B48D0F83D
:101FC0004C022A49D1F85012401A192814D3284833
:101FD000007800EB8000284901EB001000F13C0480
:101FE00000230A2221464FF4085005F073FC2148D3
:101FF0000078401C1F49087034E01C48D0F850029B
:102000001A49D1F84C12884208D91848D0F8500221
:102010001649D1F84C12401A192810D21348D0F89A
:1020200050021249D1F84C12884215D20F48D0F80C
:102030004C020E49D1F85012401A19280CD30F4CFB
:102040000023012221464FF4045005F043FC0948C7
:102050000078401C0749087004E00020054908701A
:10206000012500BF00BF2846FFE60000080400204D
:102070007906002078060020401200202806002063
:102080002DE9F04106460027002400255EBB00BF75
:1020900026E0384601F0DEF80546002406E000217F
:1020A00005F1340040F82410601CC4B20A2CF6DBA1
:1020B000002411E09FED210A05F1840000EB84006B
:1020C00080ED000A9FED1D0A05F1B00000EB8400D1
:1020D00080ED000A601CC4B20B2CEBDB781CC7B28D
:1020E000062FD6DB28E0062E26DC701EC7B2384647
:1020F00001F0B0F80546002406E0002105F13400A7
:1021000040F82410601CC4B20A2CF6DB002411E055
:102110009FED0A0A05F1840000EB840080ED000ABF
:102120009FED060A05F1B00000EB840080ED000A87
:10213000601CC4B20B2CEBDBBDE8F081000000009A
:1021400030B5024600210020E2B900BF17E00020B0
:1021500011E0002401EB8103184D05EB0313143348
:1021600023F8104001EB810305EB0313283323F818
:102170001040431CD8B20A28EBDB4B1CD9B207290C
:10218000E5DB19E0062A17DC531ED9B2002011E066
:10219000002401EB8103094D05EB0313143323F8ED
:1021A000104001EB810305EB0313283323F81040A3
:1021B000431CD8B20A28EBDB30BD000040120020DF
:1021C000002000BF06E00022811D044B23F81120EF
:1021D000411CC8B20628F6DB704700001012002030
:1021E000024989680143014A91607047002004E078
:1021F0004FF0E020006920F004004FF0E02108617A
:102200000A4880680A49B0FBF1F0C0F3CF000949E1
:1022100008800846008800EB4001C1EBC0104FF673
:10222000FF7101EAC000044908807047D4150020FE
:1022300040420F009C0600209E06002001460F4AE7
:1022400012884A434FF0E0235A6100229A611A46ED
:10225000126922F00102521C1A6100BF4FF0E02205
:10226000106900F001021AB100F48032002AF5D0A2
:1022700000224FF0E0231A619A6170479E06002009
:1022800001460F4A12884A434FF0E0235A61002268
:102290009A611A46126922F00102521C1A6100BFAB
:1022A0004FF0E022106900F001021AB100F4803210
:1022B000002AF5D000224FF0E0231A619A6170479E
:1022C0009C060020436862F30F034360C1607047BF
:1022D0000021002200F080520AB1012100E000211B
:1022E00011B1034B186001E0024B586070470000C9
:1022F0000404024000000240002200F000420AB143
:10230000024900E0024948607047000000040240B2
:1023100000000240016821F001010160002101601C
:1023200041686FF30F01416000218160C16038494D
:10233000884204D10F21364A083A516067E0344997
:102340001431884204D1F021314A083A51605EE0EC
:102350002F492831884205D14FF470612C4A083A40
:10236000516054E02A493C31884205D14FF4704114
:10237000274A083A51604AE025495031884205D140
:102380004FF47021224A083A516040E020496431FC
:10239000884205D14FF470011D4A083A516036E079
:1023A0001B497831884205D14FF07061184A083ACC
:1023B00051602CE01749884203D10F21021F1160A0
:1023C00025E014491431884204D1F021114A121F2A
:1023D00011601CE00F492831884205D14FF470612B
:1023E0000C4A121F116012E00A493C31884205D1A3
:1023F0004FF47041074A121F116008E0054950313F
:10240000884204D14FF47021024A121F11607047B4
:102410000800024008040240016821F00101016047
:102420007047016821F00101491C016070470000FC
:10243000F0B503460024A44600250026002701F03D
:10244000004401F0E0404FEA107C0CB10F4A00E07C
:102450000F4A146804EA010008B1012600E00026D2
:10246000ACF101008000C1401D6805F00E0501EAD5
:10247000050008B1012700E00027012F03D1012E3C
:1024800001D10120F0BD0020FCE700000004024063
:102490000000024008B5014648680090009880B2EC
:1024A00008BD2DE9F04704460D461646DDE9099AB8
:1024B000DDF820800B9F2046FFF72CFF206820F4DA
:1024C00080402060206868F34510206020686AF32F
:1024D00004102060206820F0800080302060206898
:1024E00020F040002060206867F38B202060206887
:1024F00067F309202060206869F30D302060606870
:1025000063F30F006060E560A660BDE8F0870268D5
:102510000A430260704708B5036823F001030360B3
:1025200006E003680093009B03F0010303B900E099
:10253000F7E700BFC160436862F30F0343600368BD
:1025400023F001035B1C036008BD08B5036823F09A
:102550000103036006E003680093009B03F001039E
:1025600003B900E0F7E700BFC160436862F30F03FF
:102570004360036823F001035B1C036008BD000097
:1025800030B50446042500F061F80546042D16D147
:102590000C48006920F00200801C0A4908610846C6
:1025A0004461006920F040004030086100F04EF8BE
:1025B00005460448006920F00200024908612846E7
:1025C00030BD0000002002400420094AD16801F01B
:1025D00001020AB101200AE001F010020AB1022052
:1025E00005E001F004020AB1032000E00420704776
:1025F000002002400348006920F08000803001493B
:10260000086170470020024030B5002306E00388CF
:10261000801C048843EA044410C1801C141EA2F1EB
:102620000105AAB2F3D130BD0549086900F0800167
:1026300021B10449024A51600349516070470000CA
:102640000020024023016745AB89EFCD10B54FF064
:10265000FF330424FFF7B8FF044603E0FFF7B4FF9D
:1026600004465B1E012C01D1002BF7D103B90524D0
:10267000204610BD2DE9F04104460D4616460427BC
:102680004FF00008FFF7E2FF0746042F2CD118484F
:10269000006920F00100401C1549086100BF28882E
:1026A0002080FFF7D3FF0746042F09D104F1020869
:1026B0002868000CA8F80000FFF7C8FF074606E0EE
:1026C0000B48006920F001000949086105E0701E0F
:1026D00086B2241D2D1D002EE1D100BF04480069E3
:1026E00020F00100024908613846BDE8F081000091
:1026F00000200240F0B5002300244D07ED0E02FA41
:1027000005F308290BDA4E07F70E0F26BE40056ABF
:10271000B5430562056A45EA030404620AE04E0710
:10272000F70E0F26BE40456AB5434562456A45EA45
:1027300003044462F0BD2DE9F0430C46079E0021DE
:102740000025002700BF60E04FF0010C0CFA01F5F6
:1027500004EA0507AF4257D14FEA41094FF0030899
:1027600008FA09F8D0F800C02CEA080CC0F800C03C
:102770004FEA41094FF0030808FA09F8D0F804C0FD
:102780002CEA080CC0F804C04FEA41094FF00308D6
:1027900008FA09F8D0F80CC02CEA080CC0F80CC0F4
:1027A0004FEA41094FF0030808FA09F8D0F808C0C9
:1027B0002CEA080CC0F808C04FEA41094FF00208A3
:1027C00008FA09F8D0F800C04CEA080CC0F800C0BC
:1027D00003FA01F8D0F804C04CEA080CC0F804C0B1
:1027E0004FEA410802FA08F8D0F80CC04CEA080C8D
:1027F000C0F80CC04FEA410806FA08F8D0F808C043
:102800004CEA080CC0F808C0491C10299CD3BDE84C
:10281000F083F0B50B4600210024002500BF25E021
:10282000012606FA01F403EA0405A5421DD14FEA88
:10283000410C032707FA0CF70668BE4306604FEA0F
:10284000410C032707FA0CF7C668BE43C6604FEA7F
:10285000410C002707FA0CF706683E4306604F005C
:1028600002FA07F7C6683E43C660491C1029D7D351
:10287000F0BD2DE9F0430C46079E002100250027FE
:1028800000BF60E04FF0010C0CFA01F504EA050707
:10289000AF4257D14FEA41094FF0030808FA09F84F
:1028A000D0F800C02CEA080CC0F800C04FEA41097B
:1028B0004FF0030808FA09F8D0F804C02CEA080C15
:1028C000C0F804C04FEA41094FF0030808FA09F8BC
:1028D000D0F80CC02CEA080CC0F80CC04FEA410933
:1028E0004FF0030808FA09F8D0F808C02CEA080CE1
:1028F000C0F808C04FEA41094FF0010808FA09F88A
:10290000D0F800C04CEA080CC0F800C003FA01F887
:10291000D0F804C04CEA080CC0F804C04FEA4108E3
:1029200002FA08F8D0F80CC04CEA080CC0F80CC049
:102930004FEA410806FA08F8D0F808C04CEA080C3B
:10294000C0F808C0491C10299CD3BDE8F083028B55
:102950000A4302837047000045F25551064A118030
:102960001146496821F00701C91C51601146886071
:102970004CF6CC41118070470030004000F01F023F
:10298000012191404211920002F1E022C2F80011AF
:102990007047000070B50346002000250F240B4E41
:1029A000366806F4E066C6F5E066C6F30720C0F1B7
:1029B0000406F5B2044101FA05F6F0B202EA040693
:1029C00030430607300E024EF05470BD0CED00E0AF
:1029D00000E400E0024949690143014A516170473E
:1029E000001002400249C9690143014AD1617047A0
:1029F00000100240024909698143014A1161704790
:102A000000100240024909690143014A11617047FF
:102A100000100240024989690143014A91617047EF
:102A2000001002400249C9688143014AD1607047E1
:102A3000001002400249C9680143014AD160704751
:102A400000100240F0B505460021002200230024BA
:102A50000020384E367906F00C0121B1042906D049
:102A6000082922D108E0344E344F7E6021E0334EF5
:102A70003668324F7E601CE02E4E7468C4F300440A
:102A80007068C0F383400E2801D2801C00E0102043
:102A90002CB12A4E3668760806FB00F302E0264E7B
:102AA00046437308254E736003E0234E234F7E6038
:102AB00000BF00BF1F4E3679C6F30311204E725C73
:102AC0001E4E7668D6401D4FBE601A4EB688C6F3BD
:102AD00002211C4E725C3E46B668D640FE60154E22
:102AE000B688C6F3C221174E725C3E46B668D64021
:102AF0003E613E46B668FF68BE4204D10F4EF6689E
:102B00000E4F7E6104E00D4EF66876000B4F7E613D
:102B10000A4EB668094F3F69BE4204D1074E366976
:102B2000064FBE6104E0054E36697600034FBE6174
:102B3000F0BD00000010024000127A00D415002001
:102B4000BC070020CC0700202DE9F04F82460F463D
:102B500090469946DDF824B0002400250026A848B8
:102B6000006840F47000A6490860A648006840F07C
:102B70000100A449086008464068A3490840A149EB
:102B8000486008460068A14908409E490860084618
:102B9000006820F4802008600846406820F4FE00A9
:102BA00048600846C06A20F00F00C8620846006B03
:102BB000974908409349086300208860002F73D12B
:102BC0001220944908608F48006820F00100401CE2
:102BD0008C49086000BF00BF00BF6D1C89480468B5
:102BE00004F002041CB98C4800688542F5D385487E
:102BF000046804F0020414B90120BDE8F08F814894
:102C0000406820F0F00070307E4948600846406817
:102C100069F30A204860084640686BF3CD2048609D
:102C20000846406820F48030486040464FEAE8712A
:102C300008EB9171C1F38F06102E02DAB01E86B236
:102C400000E00F266F48406866F395406D49486084
:102C50000846006820F0807000F180700860002451
:102C6000002500BF6D1C6748046804F000741CB99F
:102C7000694800688542F5D96248046804F0007428
:102C80000CB90220B9E75F48406820F00300801CBF
:102C90005C494860002400BF5A48446804F00804B6
:102CA000082CF9D19FE0FFE75648C06A20F00F00DA
:102CB0005449C8620846006820F47F000860002478
:102CC0000025BAF1010F06D10846006820F48020E3
:102CD00000F5802008604B48006820F4803000F543
:102CE00080304849086000BF6D1C4648046804F401
:102CF00000341CB9484800688542F5D347487843FA
:102D0000474908603F48046804F400340CB90120C6
:102D100073E74048006820F0100010303D4908601B
:102D20000846006820F00700801C086035484068AD
:102D300020F0F0007030334948600846406869F37D
:102D40000A204860084640686BF3CD20486008467A
:102D5000406820F4003000F50030486008464068C4
:102D600020F4803000F5803048600026384607EBBC
:102D7000D071491098FBF1F18EB2102E02DAB01E1C
:102D800086B200E00F261F48406866F395401D4953
:102D900048600846006820F0807000F1807008608C
:102DA0000024002500BF6D1C1648046804F0007460
:102DB0001CB9194800688542F5D31248046804F02C
:102DC00000740CB9022018E70E48406820F0030098
:102DD000801C0C494860002400BF0A48446804F085
:102DE0000804082CF9D1064980390A9808600D4872
:102DF000091D08600A48FFF725FE0020FDE60000D7
:102E000088ED00E0001002400CC07FF8FFFFF6FEE6
:102E1000CCFC00FF00200240D407002040420F00FD
:102E2000D41500200005FA0530B51C4611B900255F
:102E3000058517E0164DA8420BD0164DA84208D0C4
:102E4000154DA84205D0154DA84202D0144DA842F8
:102E500002D1144DAB6901E0124D6B69B3FBF1F582
:102E60006D1E0585B0F1804F01D1C26201E095B2BF
:102E7000C562056825F440750560056864F30415AE
:102E8000056000250561056825F00105056030BD78
:102E9000002C01400034014000400140004401404A
:102EA00000480140D4150020CA4392B20261704725
:102EB00010B504463448844206D14015FFF7BAFDE8
:102EC0006015FFF7AFFD5EE0B4F1804F06D1012041
:102ED000FFF798FD0120FFF78DFD54E02B48844259
:102EE00006D10220FFF78EFD0220FFF783FD4AE0A6
:102EF0002748844206D10420FFF784FD0420FFF711
:102F000079FD40E02348844206D11020FFF77AFD86
:102F10001020FFF76FFD36E01F48844206D12020C5
:102F2000FFF770FD2020FFF765FD2CE01B48844271
:102F300006D14014FFF77EFD6014FFF773FD22E019
:102F40001748844208D14FF48030FFF773FD4FF4E7
:102F50008030FFF767FD16E01248844208D14FF435
:102F60000030FFF767FD4FF40030FFF75BFD0AE02C
:102F70000D48844207D14FF48020FFF75BFD4FF4EA
:102F80008020FFF74FFD10BD002C014000040040E1
:102F900000080040001000400014004000340140D0
:102FA000004001400044014000480140016821F018
:102FB0000101491C01607047C2680A43C260704742
:102FC0000162704710B5002200230A0C01249440CE
:102FD000A3B2036210BD000010B504461D48844230
:102FE00008D14FF48040FFF725FD4FF48040FFF7F4
:102FF00019FD2EE01848844208D14FF40030FFF745
:1030000001FD4FF40030FFF7F5FC22E01348844245
:1030100008D14FF48020FFF7F5FC4FF48020FFF734
:10302000E9FC16E00E48844208D14FF40020FFF777
:10303000E9FC4FF40020FFF7DDFC0AE00948844278
:1030400007D14FF48010FFF7DDFC4FF48010FFF73D
:10305000D1FC10BD00380140004400400048004051
:10306000004C004000500040816821F04001403198
:1030700081607047816821F08001803181607047F4
:103080000246D069084008B1012070470020FCE7E3
:103090002DE9F04104460F4615461E46DDF818801E
:1030A000206820F0010020600020A060606866F3C6
:1030B0000D306060206868F34A202060206820F0AE
:1030C0000400001D2060206820F008000830206007
:1030D000606820F4000000F500006060606900F0A6
:1030E0007F402330606175B1012D15D0022D1ED1B6
:1030F000206820F480502060206820F0805000F18B
:103100008050206014E0206820F480502060206807
:1031100020F0805020600BE0206820F4805000F503
:1031200080502060206820F08050206000E000BFC8
:1031300000BF3946204600F04FF84FF0FF302062C4
:10314000206820F00100401C2060BDE8F08130B50F
:10315000002300240022C1F30723CCB2012505FA85
:1031600004F2022B03D145689543456008E0032B28
:1031700003D185689543856002E005689543056045
:1031800030BD30B5002300240022C1F30723CCB2A8
:10319000012505FA04F2022B03D145681543456069
:1031A00008E0032B03D185681543856002E00568BC
:1031B0001543056030BD10B50B46002108E000BF87
:1031C000047FC4F3C014002CFAD05C5C8462491CF8
:1031D0009142F4D310BD000070B5002200230024FA
:1031E000056825F001050560184DA84202D1184D6B
:1031F0002A6901E0164DEA680588C5F3C03545B176
:103200005500B5FBF1F35500B5FBF1F601FB165483
:1032100005E0B2FBF1F3B2FBF1F501FB1524B4EBD1
:10322000510F00D35B1C0588C5F3C03535B1C3F31E
:1032300042044FF6F0751D4045EA04039DB2C56097
:10324000056825F001056D1C056070BD0038014062
:10325000D415002001460548062906DA01EB810253
:10326000C2EB8112034603EB82007047D8070020AF
:10327000014890F8510370472800002000200021E9
:1032800000BF0FE0094A32F8112040F223139A429E
:1032900006D0064A22F81130343A12F8210003E031
:1032A0004A1CD1B20429EDDB00BF7047FC030020AB
:1032B0001CB504460320034648220821CDE900043A
:1032C0000020FFF741FC1CBD10B5FEF791FF10BDBB
:1032D00010B504462046FEF7B1FF10BD10B50446F8
:1032E0002046FEF7CDFF10BD0146084B53F82120C4
:1032F000074B33F81100136903400BB1012300E0C1
:1033000000230BB9002070470120FCE7D406002001
:10331000F0830008054B53F82010054B33F81020BC
:103320000B8B13430B8300BF70470000A0060020E7
:103330009C830008054B53F82010054B33F81020F0
:103340004B8B13434B8300BF70470000A006002047
:103350009C83000810B504460F48FFF7A9FD102014
:10336000FFF740FB1020FEF73BFF621E00230B49D6
:103370000948FFF759FD072200213620FFF70AFB15
:103380003620FFF7FBFA01210348FFF715FE02483C
:10339000FFF70CFE10BD00000010004040420F007F
:1033A00070B504460D46164621780F4A52F82100A2
:1033B0000E49FFF707FE21780B4A52F821000C490D
:1033C000FFF700FE2178084A52F821004FF44071BF
:1033D000FFF7F8FD2178074A52F8210032462946C6
:1033E000FFF7B3F870BD00000C0700201A010B00B6
:1033F000060208004407002038B504466078082813
:103400007DD2DFE800F0042345649B9CF1EF217836
:10341000C34A52F82100FFF7DDFA0120009022781C
:10342000C04B33F81210C04B53F822000023012286
:10343000FFF781F92378BD4DEA5CBD4D35F81310D7
:10344000B94D55F82300FFF755F966E12178B44AE4
:1034500052F82100FFF7BEFA012000902278B14B0C
:1034600033F81210B04B53F8220000230122FFF76B
:1034700062F92378AD4DEA5CAD4D35F81310AA4DD5
:1034800055F82300FFF736F9204600F0E7FA44E14B
:103490002178A84A52F82100FFF79CFA01200090F9
:1034A0002278A54B33F81210A44B53F822000023C6
:1034B0000122FFF740F923789C4DEA5CA04D35F8D6
:1034C00013109E4D55F82300FFF714F925E12178DC
:1034D000984A52F82100FFF77DFA2178994A52F86C
:1034E0002100FFF777FA012000902278964B33F8FD
:1034F0001210964B53F822000023012200E00BE14A
:10350000FFF7B7F90120009022788B4B33F81210A7
:10351000854B53F8220000230122FFF70CF9237892
:10352000824DEA5C864D35F81310844D55F8230022
:10353000FFF7E0F8204600F0A5FAEEE000BF2178A2
:103540007C4A52F82100FFF745FA2178744A52F874
:103550002100FFF73FFA21787A4A52F82100FFF75D
:1035600039FA012000902278774B33F81210774B0C
:1035700053F8220000230122FFF77BF9012000907D
:1035800022786D4B33F812106C4B53F82200002355
:103590000122FFF7D0F8012000902278614B33F828
:1035A0001210614B53F8220000230122FFF7C3F8E9
:1035B00023785E4DEA5C624D35F813105F4D55F887
:1035C0002300FFF797F82378584DEA5C584D35F8FB
:1035D0001310554D55F82300FFF78CF8204600F0E6
:1035E0003DFA9AE03DE0FFE72178524A52F8210087
:1035F000FFF7F0F921784A4A52F82100FFF7EAF97B
:103600000120009022784C4B33F812104B4B53F8AA
:10361000220000230122FFF78EF80120009022787B
:10362000404B33F81210404B53F822000023012284
:10363000FFF781F823783D4DEA5C414D35F81310D2
:103640003E4D55F82300FFF755F82378374DEA5CD7
:10365000374D35F81310344D55F82300FFF74AF86D
:103660005BE02178334A52F82100FFF7B3F9217863
:103670002B4A52F82100FFF7ADF92178314A52F870
:103680002100FFF7A7F90120009022782E4B33F894
:1036900012102E4B53F8220000230122FFF7E9F805
:1036A000012000902278244B33F81210234B53F85A
:1036B000220000230122FFF73EF80120009022782B
:1036C000184B33F81210184B53F822000023012234
:1036D000FFF731F82378154DEA5C194D35F81310D2
:1036E000164D55F82300FFF705F823780F4DEA5CD7
:1036F0000F4D35F813100C4D55F82300FEF7FAFF67
:1037000000BF2278104B33F81210104B53F82200F0
:10371000FFF71DF900BF00E000BF00BF38BD00008B
:1037200028840008308400081C0700201684000844
:10373000348400081884000820840008140700203E
:1037400024840008388400084084000824070020EE
:103750007FB504462046FFF74FFE2078884951F890
:1037600020008849884206D12178874A52F82100F2
:10377000FFF750F905E02178834A52F82100FFF75E
:1037800031F921787E4A52F82100FFF725FC607953
:1037900000902379E278A5787C4E56F8251025789C
:1037A000774E56F82500FFF773FC6078002855D057
:1037B000A07902283AD12178754A52F82100FFF702
:1037C00009F9002001210222CDE90002CDE9021011
:1037D0002378354655F8233003F1280223786D4DC0
:1037E00055F8230000236169FEF75BFE217832461D
:1037F00052F82100FFF73EFC2178674A52F8210079
:10380000FEF77AFD2178654A505C01220021FFF71E
:10381000C1F82178614A505CFFF7B0F821782A4658
:1038200052F821000221FEF772FE17E0A07901286C
:1038300014D121785A4A505C00221146FFF7AAF8A9
:1038400021784F4A52F821005649FFF7BBFB2178F7
:103850004B4A52F821005349FFF793FC6078022845
:1038600051D0A07902284FD121784F4A52F8210037
:10387000FFF7B0F800200222CDE900020290039089
:1038800023783F4D55F8233003F124022378474D28
:1038900055F823000023A169FEF703FE2178384A7A
:1038A00052F82100FFF7E0FBA28B2046A169FFF749
:1038B00077FD2178324A52F821003D49FFF782FB1B
:1038C0002178374A505C01220021FFF763F8217804
:1038D000334A505CFFF752F82178294A52F8210008
:1038E0003349FFF74EFC2178254A52F821004FF466
:1038F0004071FFF767FB2178214A52F821004FF40D
:103900004071FFF73EFC3AE0A079012837D12178D9
:10391000234A505C01220021FFF73CF82178204A1D
:10392000505CFFF72BF82178154A52F82100214905
:10393000FFF748FB2178124A52F821001C49FFF793
:1039400041FB21780E4A52F821001A49FFF719FC71
:1039500021780B4A52F821001549FFF712FC217813
:10396000074A52F821004FF44071FFF72BFB2178F2
:10397000034A52F821004FF44071FFF702FC7FBD6B
:103980000C070020003801400C8400086084000807
:103990004484000834070020508400084C84000848
:1039A0001484000807010700588400084407002019
:1039B0001A010B000501050010B50446A079012885
:1039C00007D12178084A52F821000849FFF7BFFBC8
:1039D00009E0A079022806D12178034A52F8210093
:1039E0000349FFF7B4FB10BD0C07002005010500DB
:1039F0001A010B0010B50446A079012807D12178DF
:103A0000084A52F821000849FFF7BBFB09E0A079FA
:103A1000022806D12178034A52F821000349FFF712
:103A2000B0FB10BD0C070020050105001A010B00BA
:103A300070B504460D460A2D0ADAA570A278054B2A
:103A400053F822102278044B53F82200FFF7C4FBEE
:103A500070BD0000608400080C07002010B50378DA
:103A6000054C54F82310054C34F813204B8B1343AA
:103A70004B8300BF10BD00002407002040840008D5
:103A80007047000010B504462278044B33F812103A
:103A9000034B53F82200FEF75AFF10BD4084000884
:103AA000240700202DE9F04104460D461646E07932
:103AB000012809D12178394A52F82100FEF7EAFCA1
:103AC00010B10120BDE8F0816078042802D0607850
:103AD000052802D12046FFF7D5FFA07930BB012091
:103AE000E07121782E4A52F8210032462946FFF72C
:103AF00062FB6078042802D06078052813D100BFEB
:103B00002178274A52F821004021FFF7B9FA00280E
:103B1000F6D12046FFF7A2FF2178214A52F8210072
:103B20004021FFF74DFA0020E07134E0A079012830
:103B300017D10020608126816069A84200D06561AC
:103B40002178174A52F821001649FFF73BFA2178ED
:103B5000134A52F821001349FFF713FB0120E071CB
:103B600019E02178104A52F82100FEF7B1FB45B95F
:103B700022892378094F57F823006169FEF7CBFCAF
:103B800007E02178054A52F8210032462946FEF71F
:103B9000C2FC0120E071002094E7000034070020FF
:103BA0000C0700200701070050840008F0B587B01B
:103BB000344E00250024002700BF05E0002001A9A5
:103BC00041F82400601CC4B2062CF7DB002544E059
:103BD000192D3DDA002405E0611DC8B2FFF7AAFBEC
:103BE000601CC4B2062CF7DB0A20FFF777FB002429
:103BF00005E0611DC8B2FFF78DFB601CC4B2062C46
:103C0000F7DB0A20FFF76AFB002414E001A850F854
:103C10002400400001A941F82400211DC8B2FFF78B
:103C200063FB074601A850F82400384401A941F875
:103C30002400601CC4B2062CE8DB002405E0611DF2
:103C4000C8B2FFF777FB601CC4B2062CF7DB02E0BA
:103C50001420FFF743FB681CC5B21B2DB8DB002402
:103C60000CE001AA52F8241004EB8402C2EB841287
:103C700006EB820001F030FE601CC4B2062CF0DBC3
:103C800007B0F0BDD807002070B50024084DFFF73D
:103C90008DFF00BF09E004EB8401C1EB841105EB4B
:103CA000810000F083F9601CC4B2062CF3DB70BD08
:103CB000D807002070B50024002500263F48007872
:103CC000052873D2DFE800F0030715266500012000
:103CD0003A4908706EE0002405E0611DC8B2FFF7A4
:103CE00019FB601CC4B2062CF7DB022033490870B4
:103CF00060E0002405E0611DC8B2FFF71BFB601CFB
:103D0000C4B2062CF7DB03202C49087000202C4994
:103D100008804FE02A480088401C2949088008464E
:103D2000008840F28A21884208DB0020244908806C
:103D30002449087001202149087029E000240DE081
:103D40002148005D012807D1211DC8B2FFF7CCFA38
:103D5000012801D1012503E0601CC4B2062CEFDB71
:103D600000BF012D06D10320144908700020154919
:103D700008700DE0134801780078401C114A10705B
:103D80000A2905DD04200D4908700020114608703D
:103D900010E0FFF779FF0320084908700020084968
:103DA000088008490870012604E0FFE70120034964
:103DB000087000BF00BF304670BD00001F0000202B
:103DC0002000002022000020100000202DE9F041FA
:103DD0002DED028B0026002400250027694800886D
:103DE000B0F5FA6F7CDC67480088401C65490880A4
:103DF00065480078082874D2DFE800F0041230BC6F
:103E0000BC234591002405E0611DC8B2FFF792FA7A
:103E1000601CC4B2062CF7DB01205B490870AAE0E5
:103E2000002405E0611DC8B2FFF774FA601CC4B23B
:103E3000062CF7DB05205449087000205349088000
:103E400099E052480088401C504908800846008884
:103E50000A2802DD02204C4908708CE0002409E0A9
:103E6000611DC8B2FFF766FA0020494921F8140025
:103E7000601CC4B2062CF3DB062043490870002006
:103E80004449088077E043480088401C4149088045
:103E900000240DE0211DC8B2FFF726FA30B93C48D6
:103EA00030F81400401C3A4921F81400601CC4B2D8
:103EB000062CEFDB3748008840F28A2188422DDB50
:103EC000002419E0324830F8140032280ADB0120BF
:103ED00004EB4401304A1144304A1278885409E016
:103EE0004AE047E0002004EB44012B4A11442B4AEE
:103EF00012788854601CC4B2062CE3DB2748007893
:103F0000401C2649087008460078032803DB072078
:103F10001D49087002E000201B4908702BE00024B6
:103F200022E00026002508E004EB44001A4908447A
:103F3000405D3044C6B2681CC5B2032DF4DB304688
:103F400003F05AFF41EC180B9FED150B53EC102BAF
:103F500004F0A0F803D801201349085502E000201E
:103F600011490855601CC4B2062CDADB082006494A
:103F7000087000E000BF00E001273846BDEC028B6E
:103F8000BDE8F08118000020160000201A00002073
:103F9000600D00201C0000206C0D00201E00002081
:103FA000CCCCCCCCCCCC00401000002030B52DEDDA
:103FB000028B87B0044600259FED320AB0EE408A9E
:103FC000A07801285AD100BF06E0201D50F8250036
:103FD0004DF82500681CC5B2072DF6DB07216846A1
:103FE000FCF714FA00202062022506E05DF8251097
:103FF000206A08442062681CC5B2052DF6DB032147
:10400000206A90FBF1F06062002514E0D4F8E00033
:1040100038B904F1340050F82500616A814208DCA7
:104020000BE004F1340050F82500616A814200DBA6
:1040300003E0681CC5B20A2DE8DB00BF04F1840070
:1040400000EB850090ED000AB0EE408A94ED090A7D
:10405000B8EEC00A20EE080AB0EE408A04F1B000C3
:1040600000EB850090ED000A30EE080AB0EE408AC1
:1040700094ED390A84ED3A0A84ED398A07B0BDEC33
:10408000028B30BD0000000001460020054A0629D1
:1040900006DA01EB8103C3EB811302EB8303586A59
:1040A00070470000D807002070B52DED068B044640
:1040B0009FED1E0AB0EE408A1D49886803F085FE18
:1040C00041EC1A0B9FED1B0B53EC102B03F0E4FE9D
:1040D00041EC190B03F03CFE08EE900A174D062C3C
:1040E00011DA04EB8400C0EB841005EB800090ED46
:1040F000390A04EB8400C0EB841005EB8000D0ED9E
:10410000370A30EE608AB4EEE88AF1EE10FA01DB8D
:10411000B0EE688A0A48005D18B99FED040AB0EE57
:10412000408AB0EE480ABDEC068B70BD000000006E
:10413000B00300209A9999999999F13FD8070020E6
:104140001000002030B5544900200023002200BF99
:104150009EE000EB8004C4EB801401F824000024EE
:1041600000EB8005C5EB801501EB8505AC7000EB1D
:104170008005C5EB801501EB8505EC7000EB800533
:10418000C5EB801501EB85052C6200EB8005C5EBC6
:10419000801501EB85056C6200230BE0002500EB28
:1041A0008004C4EB801401EB8404241D44F82350E4
:1041B0005C1CE3B20A2BF1DB002216E0374C54F80A
:1041C000225000EB8004C4EB801401EB84045C34C7
:1041D00044F82250002500EB8004C4EB801401EB6E
:1041E00084042834A554541CE2B20A2AE6DB0022D7
:1041F0001BE09FED2B0A00EB8004C4EB801401EB65
:104200008404843404EB820484ED000A9FED250AC3
:1042100000EB8004C4EB801401EB8404B03404EBA5
:10422000820484ED000A541CE2B20B2AE1DB9FED0C
:104230001E0A00EB8004C4EB801401EB840484EDBF
:10424000370A002400EB8005C5EB801501EB8505DE
:10425000C5F8E0409FED140A00EB8004C4EB801425
:1042600001EB840484ED390A9FED0F0A00EB800412
:10427000C4EB801401EB840484ED3A0A012400EBC2
:104280008005C5EB801501EB85056C70441CE0B220
:104290000628FFF65EAF30BDD80700201481000865
:1042A000124DA03AE1DA85C30000000070B5144E4B
:1042B0000024002500BF11E004EB8400C0EB841053
:1042C00006EB800090ED390A04EB8400C0EB84100B
:1042D00006EB800080ED370A601CC4B2062CEBDBD5
:1042E000FDF76EFFFDF787FD002505E0002105487D
:1042F00020F81510681CC5B2042DF7DB70BD000056
:10430000D8070020FC03002038B5002416480068B8
:1043100000901648D0F850021449D1F84C12884247
:1043200008D91248D0F850021049D1F84C12401A5E
:10433000192810D20D48D0F850020C49D1F84C126F
:1043400088420FD20948D0F84C020849D1F85012DF
:10435000401A192806D3002302226946842003F05C
:10436000B9FA0124204638BD3C8300080804002027
:1043700038B500241A48006800901A4800690128DE
:1043800002D13720ADF802001748D0F85002164984
:10439000D1F84C12884208D91348D0F8500212497B
:1043A000D1F84C12401A192810D20F48D0F85002F8
:1043B0000D49D1F84C1288420FD20B48D0F84C026C
:1043C0000949D1F85012401A192806D300230222B5
:1043D0006946842003F07EFA0124204638BD00009F
:1043E0004C830008B00300200804002038B50024E6
:1043F00024480068009024480069022810D003DC9B
:1044000038B1012810D10AE00B2803D00C280BD1B9
:1044100001E000BF00BF3920ADF8020005E000BF99
:104420003A20ADF8020000E000BF00BF1748D0F806
:1044300050021649D1F84C12884208D91348D0F8D6
:1044400050021249D1F84C12401A192810D20F48C4
:10445000D0F850020D49D1F84C1288420FD20B48C7
:10446000D0F84C020949D1F85012401A192806D345
:10447000002302226946842003F02CFA01242046FE
:1044800038BD000048830008B00300200804002065
:1044900038B50024274800680090274800690228A2
:1044A00010D003DC38B1012817D10AE00B2803D063
:1044B0000C2812D101E000BF00BF3120ADF802008E
:1044C0000CE000BF1C48006B18B93720ADF80200A3
:1044D00002E03B20ADF8020000E000BF00BF17483B
:1044E000D0F850021549D1F84C12884208D9134827
:1044F000D0F850021149D1F84C12401A192810D2A4
:104500000E48D0F850020D49D1F84C1288420FD213
:104510000A48D0F84C020949D1F85012401A19281B
:1045200006D3002302226946842003F0D3F9012434
:10453000204638BD44830008B00300200804002052
:1045400038B50024274800680090274800690228F1
:1045500010D003DC38B1012817D10AE00B2803D0B2
:104560000C2812D101E000BF00BF3120ADF80200DD
:104570000CE000BF1C48006B18B93720ADF80200F2
:1045800002E03B20ADF8020000E000BF00BF17488A
:10459000D0F850021549D1F84C12884208D9134876
:1045A000D0F850021149D1F84C12401A192810D2F3
:1045B0000E48D0F850020D49D1F84C1288420FD263
:1045C0000A48D0F84C020949D1F85012401A19286B
:1045D00006D3002302226946842003F07BF90124DC
:1045E000204638BD58830008B0030020080400208E
:1045F00038B500241648006800901648D0F85002DC
:104600001449D1F84C12884208D91248D0F8500207
:104610001049D1F84C12401A192810D20D48D0F880
:1046200050020C49D1F84C1288420FD20948D0F8F8
:104630004C020849D1F85012401A192806D3002319
:1046400002226946842003F045F90124204638BD42
:10465000508300080804002038B50024164800687C
:1046600000901648D0F850021449D1F84C128842F4
:1046700008D91248D0F850021049D1F84C12401A0B
:10468000192810D20D48D0F850020C49D1F84C121C
:1046900088420FD20948D0F84C020849D1F850128C
:1046A000401A192806D3002302226946842003F009
:1046B00011F90124204638BD548300080804002065
:1046C00038B500241648006800901648D0F850020B
:1046D0001449D1F84C12884208D91248D0F8500237
:1046E0001049D1F84C12401A192810D20D48D0F8B0
:1046F00050020C49D1F84C1288420FD20948D0F828
:104700004C020849D1F85012401A192806D3002348
:1047100002226946842003F0DDF80124204638BDDA
:104720004083000808040020014600200C2909DB12
:104730000E2907DAA1F10C0202EB4202024B03EB55
:1047400042025079704700007E0D002010B500F045
:104750004DF82248007860B90D20FFF7E5FF0128E9
:104760000ED11E4908701E49A1F8140202F0CEFDB8
:1047700006E00D20FFF7D8FF10B900201749087098
:104780001848007808BB0C20FFF7CEFF012823D182
:1047900014490870144908780978491C124A1170A4
:1047A00000EBD0714910A0EB410111B101290AD1F0
:1047B00004E001200A49A1F8560205E00120084959
:1047C000A1F8580200E000BF06E00C20FFF7ACFFA4
:1047D00010B900200349087010BD0000230000201C
:1047E00008040020240000202500002070B50024CB
:1047F000284D00BF4BE004EB440115F81100FEF713
:1048000073FD04EB440105EB4101087104EB440026
:1048100005EB4000C07804EB440105EB4101097948
:10482000884222D104EB440005EB40008078401C14
:1048300004EB440105EB4101887004EB440005EBF7
:1048400040008078322816DB322004EB440105EB6F
:104850004101887004EB440005EB4000007904EB53
:10486000440105EB4101487105E0002004EB4401DF
:1048700005EB4101887004EB440005EB4000007932
:1048800004EB440105EB4101C870601CC4B2022C6A
:10489000B1DB70BD7E0D00200020144900BF22E076
:1048A00000F10C0200EB400301F81320002200EBA2
:1048B000400301EB43039A7000EB400301EB430319
:1048C000DA7000EB400301EB43031A7100EB400385
:1048D00001EB43035A71012200EB400301EB430358
:1048E0005A70421CD0B20228DADB70477E0D0020DD
:1048F0002DE9F0411F4D00240026A04600271E4848
:104900004069012833D100BF0BE01C48005D295DE0
:10491000884204D0285D194908554FF00108601CF1
:10492000C4B2032CF1DBB8F1010F20D1002418E050
:104930001248075D002610E007F0010018B10020C2
:10494000FEF7E8FC02E00020FEF7F4FC7F100121F6
:104950000320FBF7DFFD701CC6B2082EECDB601CE9
:10496000C4B2032CE4DB01210220FBF7D3FDBDE838
:10497000F081000005000020B00300200D000020A1
:1049800010B50020FEF7C6FC0120FEF7C3FC022094
:10499000FEF7D0FC0320FEF7CDFC0420FEF7CAFC96
:1049A0000120FEF7B7FC00210420FBF7B3FD012135
:1049B0000220FBF7AFFD0120FEF7BCFC10BD00009C
:1049C00002F0A6FEFFF768FFFFF7DAFFFFF7BAFB7A
:1049D00000F0D0FFFDF730F800F0B8FC00F076FDF5
:1049E00001210448FDF774F803480068FDF74AF810
:1049F00000BFFEE78C0D0020800300202DE9F34F5F
:104A000085B08048049080480390804DDFF800A274
:104A10004FF0000BFF20029001900026DFF8F49188
:104A2000002700244FF0000806980C281ADC00BF6D
:104A300015E0039830F91400FF280ED1049830F9DE
:104A4000140000EE100AB8EEC00A05EB870080EDF6
:104A5000000A2AF81740781CC7B2601CC4B2069836
:104A60008442E6DB012F04DD3A4651462846FBF737
:104A700083FC0026AAE047F6FF7BFF20029001900E
:104A800000246BE005EB840090ED000A6248D0ED55
:104A90000A0AB4EEE00AF1EE10FA0DDA05EB840032
:104AA00090ED000A5C48D0ED0A0AF1EE600AB4EE1F
:104AB000E00AF1EE10FA4FD8601C00F0FF081EE08B
:104AC00005EB880090ED000A5348D0ED0A0AB4EED9
:104AD000E00AF1EE10FA0DDA05EB880090ED000A1D
:104AE0004D48D0ED0A0AF1EE600AB4EEE00AF1EEAC
:104AF00010FA00D805E008F1010000F0FF08B84501
:104B0000DEDB00BFBC4227DAB84525DA05EB8800BA
:104B100090ED000A05EB8400D0ED000A70EE600A0B
:104B200000EE10BAB8EEC00AF4EEC00AF1EE10FAC8
:104B300012D205EB880090ED000A05EB8400D0ED61
:104B4000000A30EE600ABDEEC00A10EE100A0FFA3D
:104B500080FBCDF804800294601CC4B2BC4291DB9F
:104B600047F6FF70834530D00298FF282DD001987A
:104B7000FF282AD0062E19DA01983AF81000401CB6
:104B800001B206EB460029F8101002983AF810001E
:104B9000401C01B206EB4600401C29F8101006EB41
:104BA0004600801C29F810B0701CC6B29FED1B0A8D
:104BB000019805EB800080ED000A9FED180A02982D
:104BC00005EB800080ED000A00E002E0062EFFF613
:104BD00052AF00BF10E0002106EB460029F810108C
:104BE00006EB4600401C29F8101006EB4600801C1E
:104BF00029F81010701CC6B2062EECDB07B0BDE819
:104C0000F08F000082140020E21400208C15002098
:104C1000BC15002044150020B00300200000000057
:104C200010B5062800DD10BD0A2907DA00EB800365
:104C3000034C04EB0313283323F8112000BFF2E7E1
:104C40004012002070B5062800DD70BD0A2916DA72
:104C5000012400EB80050B4E06EB051525F81140ED
:104C600000EB8004354605EB0414143424F81120BD
:104C700000EB800405EB0414283424F8113000BF45
:104C8000E3E700004012002070B5002400254C48E6
:104C9000B0F82002062801DD002070BD4848B0F8B9
:104CA000200218B90620474908700AE04448B0F8C5
:104CB0002002062805DC424890F82002401E4149A7
:104CC00008704148007810B1012871D137E03C48A4
:104CD000D0F850023A49D1F84C12884208D93848E5
:104CE000D0F850023649D1F84C12401A192810D287
:104CF0003348D0F850023249D1F84C1288421DD2C4
:104D00002F48D0F84C022E49D1F85012401A1928D9
:104D100014D32C48007800EB80002C4901EB0010E4
:104D200000F1140400230A2221464FF40C5002F033
:104D3000D1FD25480078401C234908703DE02048FB
:104D4000D0F850021E49D1F84C12884208D91C48AC
:104D5000D0F850021A49D1F84C12401A192810D232
:104D60001748D0F850021649D1F84C1288421DD28B
:104D70001348D0F84C021249D1F85012401A1928A1
:104D800014D31048007800EB8000104901EB0010AC
:104D900000F1280400230A2221464FF4105002F0AB
:104DA00099FD09480078401C0749087005E0FFE7B5
:104DB000002005490870012500BF00BF28466CE7A8
:104DC0000804002075060020740600204012002010
:104DD00010B5062800DD10BD0A2907DA00EB8003B4
:104DE000034C04EB03133C3323F8112000BFF2E71C
:104DF000401200202DE9FF4F87B0054688469946AE
:104E0000DDF850A00020069005908346002400267F
:104E10000027C6480490C6480390002002900190E5
:104E2000BAF10C0F6FDC00BFAAE03C4639F9140060
:104E3000504569DA39F91400A04265D019F81460B8
:104E400035F9140035F91610401A00EE100AB8EEC4
:104E5000C00AB848D0ED030AF1EE600AB4EEE00AE9
:104E6000F1EE10FA54DB35F9140035F91610401A3A
:104E700000EE100AB8EEC00AAE48D0ED030AB4EE58
:104E8000E00AF1EE10FA43D835F9140000EE100AEA
:104E9000B8EEC00AA748D0ED0A0AF1EE600AB4EEF7
:104EA000E00AF1EE10FA0DDD35F9140000EE100AFB
:104EB000B8EEC00A9F48D0ED0A0AB4EEE00AF1EE5F
:104EC00010FA1DD335F9160000EE100AB8EEC00A2C
:104ED0009848D0ED0A0AF1EE600AB4EEE00AF1EE6D
:104EE00010FA12DD35F9160000EE100AB8EEC00A0D
:104EF0009048D0ED0A0AB4EEE00AF1EE10FA04D2BE
:104F00000120059006E00DE122E00020059001E07F
:104F1000012005900598012830D1FF2029F81400C0
:104F200029F8160018F8140000F08EFB18F8160087
:104F300000F08AFB002028F8140028F81600002151
:104F40002046FBF713FB00213046FBF70FFB15E073
:104F500039F91400FF2811D0FF2029F8140018F89F
:104F6000140000F071FB002028F8140000212046F6
:104F7000FBF7FCFA00213046FBF7F8FA781CC7B2C1
:104F80005745FFF652AF4FF0000B002716E038F8F8
:104F9000170088B935F9170000EE100AB8EEC00AFC
:104FA000049800EB8B0080ED000A039820F81B703A
:104FB0000BF1010000F0FF0B781CC7B25745E6DB90
:104FC0005A46DDE90310FBF7D7F9002002908FE085
:104FD000DDE9021010F81140DDE90201401C11F872
:104FE000106054457DDA56457EDA35F9140000EE3E
:104FF000100AB8EEC00A4F48D0ED0A0AF1EE600A76
:10500000B4EEE00AF1EE10FA0DD335F9140000EE1B
:10501000100AB8EEC00A4748D0ED0A0AB4EEE00A1A
:10502000F1EE10FA60DD35F9160000EE100AB8EE68
:10503000C00A4048D0ED0A0AF1EE600AB4EEE00A78
:10504000F1EE10FA0DD335F9160000EE100AB8EEA5
:10505000C00A3848D0ED0A0AB4EEE00AF1EE10FAC0
:1050600042DD35F9140035F91610401A00EE100A29
:10507000B8EEC00A2F48D0ED030AF1EE600AB4EE94
:10508000E00AF1EE10FA2FDB35F9140035F91610AD
:10509000401A00EE100AB8EEC00A2648D0ED030A06
:1050A000B4EEE00AF1EE10FA1ED8FEF7E7F8019030
:1050B000019828F81400019828F8160029F81460BF
:1050C00029F81640019828B1721CD1B2621CD0B2E6
:1050D00001F018FA20460199FBF748FA3046019989
:1050E00000E001E0FBF742FA0298401CC0B20290D7
:1050F000ABF10100029988423FF76AAF00270FE049
:1051000038F91710099830F91700814206D038F89D
:105110001710099820F8171001200690781CC7B2C4
:105120005745EDDB06980BB0BDE8F08FFC1400206E
:105130002C150020B00300202DE9F04706460F464D
:1051400090464FF0000900250024B8F10C0F6CDCEC
:105150003748006908BB00BF1CE025462046FEF723
:10516000A3FFF6EE000A30EE200ABDEEC00A10EEF4
:10517000100A00B226F8150036F9150037F9151097
:10518000884205D036F8150027F815004FF00109C0
:10519000601CC4B2062CE0DB47E02548006901280A
:1051A00043D100241CE025462046FEF77DFFF6EEA5
:1051B000000A30EE200ABDEEC00A10EE100A00B25E
:1051C00026F8150036F9150037F91510884205D074
:1051D00036F8150027F815004FF00109601CC4B21D
:1051E000062CE0DB00241EE0A01DC5B221460220F3
:1051F000FBF772F9F6EE000A30EE200ABDEEC00AA7
:1052000010EE100A00B226F8150036F9150037F92D
:105210001510884205D036F8150027F815004FF014
:105220000109601CC4B2062CDEDB4846BDE8F087ED
:10523000B00300202DE9F04706460F4690464FF098
:10524000000900250024B8F10C0F43DC00BF1CE06E
:1052500025462046FEF728FFF6EE000A30EE200A2B
:10526000BDEEC00A10EE100A00B226F8150036F99D
:10527000150037F91510884205D036F8150027F8C3
:1052800015004FF00109601CC4B2062CE0DB0024BD
:105290001EE0A01DC5B221460220FBF71DF9F6EE67
:1052A000000A30EE200ABDEEC00A10EE100A00B26D
:1052B00026F8150036F9150037F91510884205D083
:1052C00036F8150027F815004FF00109601CC4B22C
:1052D000062CDEDB4846BDE8F087000010B502462C
:1052E0000020122912DC00BF0EE0094B33F8103009
:1052F000C3F3072402F81040054B13F81040430095
:105300005B1CD454431CD8B28842EEDB10BD0000B5
:10531000B214002010B502460020122912DC00BF92
:105320000EE0094B33F81030C3F3072402F81040A5
:10533000054B13F8104043005B1CD454431CD8B2F7
:105340008842EEDB10BD0000441500202DE9F04F2F
:10535000ADF22C4D002640F2244102A8FAF7A8FF36
:105360000027B04600200190814600240025834696
:1053700040F2091202A95448FDF746F9DDF8281455
:1053800001914FF4846102A8FCF742FD0199884223
:1053900073D100BF00BF00BF8DE009F0FF00FDF733
:1053A00059FF06464FF0000B2C4604F10A0085B267
:1053B00006F1340717E002A850F8240001C702AB39
:1053C00053F824A04FEAEA730AEBD3535B121AB2E4
:1053D00059460BF1010C0CF0FF0B09F0FF00FFF731
:1053E0001FFC601C84B2AC42E5DB4FF0000B2C4686
:1053F00004F10A0085B206F15C0712E002A850F839
:10540000240001C702AB33F824301AB259460BF11D
:10541000010C0CF0FF0B09F0FF00FFF7D9FC601C3A
:1054200084B2AC42EADB2C4604F10B0085B206F1F3
:10543000840808E002A800EB840090ED000AA8ECC4
:10544000010A601C84B2AC42F4DB2C4604F10B0070
:1054500085B206F1B00808E002A800EB840090EDE8
:10546000000AA8EC010A601C84B2AC42F4DB2C46B2
:10547000601C85B206F1DC0809E020E002A800EB20
:10548000840090ED000AA8EC010A601C84B2AC42D2
:10549000F4DB2C46601C85B206F1E00705E002A8AB
:1054A00050F8240001C7601C84B2AC42F7DB09F15C
:1054B00001001FFA80F9B9F1060FFFF66EAF0DF289
:1054C0002C4DBDE8F08F000000F00308F0B595B05A
:1054D00054216846FAF7ECFE002500240026002738
:1054E000152269464748FDF78FF8149D50216846FC
:1054F000FCF78EFCA8427DD100BF2146641C5DF8FC
:105500002100414908602146641C5DF821003F49A3
:1055100008602146641C5DF821003C494860214632
:10552000641C5DF82100394988602146641C684686
:1055300000EB810090ED000A344880ED030A21461B
:10554000641C5DF82100314908612146641C5DF846
:1055500021002E494861261D00BF0AE05DF8242085
:105560003846791CCFB22949183141F82020601CF7
:1055700084B2B442F2DB2046611C8CB2694601EB76
:10558000800090ED000A214880ED0A0A2046611C47
:105590008CB25DF820001D49C8622046611C8CB2A7
:1055A0005DF82000194908632046611C8CB25DF843
:1055B0002000164948632046611C8CB25DF820002B
:1055C000124988632046611C8CB25DF820000F49A7
:1055D000C8632046611C8CB25DF820000B4908644A
:1055E0002046611C8CB25DF82000084948642046C2
:1055F000611C00E004E08CB25DF82000034988647F
:1056000015B0F0BD00E0030880030020B0030020C7
:1056100010B502460020122912DC00BF0EE0094B33
:1056200033F81030C3F3072402F81040054B13F889
:10563000104043005B1CD454431CD8B28842EEDBBC
:1056400010BD0000821400200146002000BF0CE0C5
:10565000084A52F820208A4205D10023054A3432F4
:1056600022F8103003E0421CD0B20428F0DB00BF67
:1056700070470000C8030020FEB5424D00240026FC
:1056800000BF00BF13E02046FEF70EFDF6EE000A55
:1056900030EE200ABDEEC00A10EE100A00B22DF85E
:1056A00014003DF8140025F81400601CC4B2062C48
:1056B000E9DB3548007810B101285BD12BE0334895
:1056C000D0F850023149D1F84C12884208D92F48FD
:1056D000D0F850022D49D1F84C12401A192810D296
:1056E0002A48D0F850022949D1F84C12884211D2E8
:1056F0002648D0F84C022549D1F85012401A1928F2
:1057000008D3002306222946D00202F0E3F8012044
:105710001D49087033E01D48D0F850021B49D1F8EC
:105720004C12884208D91948D0F850021749D1F8CC
:105730004C12401A192810D21448D0F850021349BC
:10574000D1F84C12884214D21048D0F84C020F49BC
:10575000D1F85012401A19280BD30A4D0C350023EA
:10576000062229464FF4445002F0B4F802200649BC
:10577000087004E0002004490870012600BF00BF43
:105780003046FEBD101200207A06002008040020DA
:1057900070B5002400254C48B0F82002062801DD31
:1057A000002070BD4848B0F8200218B900204749D1
:1057B000087009E04448B0F82002062804DC42489A
:1057C00090F82002414908704148007810B1012842
:1057D00071D137E03C48D0F850023B49D1F84C1227
:1057E000884208D93848D0F850023749D1F84C12CD
:1057F000401A192810D23448D0F850023249D1F852
:105800004C1288421DD23048D0F84C022E49D1F8B3
:105810005012401A192814D32C48007800EB80004D
:105820002C4901EB001000F1140400230A22214648
:105830004FF40C5002F04EF825480078401C2449E3
:1058400008703DE02048D0F850021F49D1F84C12B2
:10585000884208D91C48D0F850021B49D1F84C1294
:10586000401A192810D21848D0F850021649D1F819
:105870004C1288421DD21448D0F84C021249D1F87B
:105880005012401A192814D31048007800EB8000F9
:10589000104901EB001000F1280400230A222146E0
:1058A0004FF4105002F016F809480078401C0849DF
:1058B000087005E0FFE7002005490870012500BFDA
:1058C00000BF28466DE7000008040020770600208E
:1058D000760600204012002010B5C278072A03DBAC
:1058E0000022C27001228270B1F1807F09D36FF073
:1058F0007E42521A521C5342C478021D42F8243090
:1059000003E0C378021D42F82310C278521CC27013
:1059100010BD000010B5154C1548006910B900F015
:10592000CBFF22E012480069022802D101F006F9FB
:105930001BE00F480069012806D10C212046FFF723
:105940005DF801F0FBF810E0094800690C2802D16D
:1059500001F0F4F809E0064800690B2805D10C2194
:105960002046FFF74BF801F0E9F810BD28000020B1
:10597000B003002010B500240020264948702648B6
:10598000486000200872487201F20A204968C86025
:10599000801C204949680861A0F202201D4949681D
:1059A00048611C494968886100201A49A1F80A0227
:1059B00081F80C024FF6FF70A1F80E020020A1F84A
:1059C0001002A1F81202A1F81E025820A1F820022C
:1059D0000020A1F82202A1F81A0200BF07E00F4838
:1059E00050F824100E4840F82410601CC4B20A2C51
:1059F000F5DB002405E0FF200A4921F81400601CB3
:105A0000C4B20C2CF7DB034A50685268116A88470D
:105A100010BD000008040020840700201481000845
:105A20002C060020E214002038B504460025334837
:105A3000006800903248006C002815DD3048006C8A
:105A4000642811DCBDF80200C0B2ADF80200BDF858
:105A500002002B4991F840104FF47F4202EA0121E5
:105A6000084300B2ADF802000F2C11D1BDF80200BE
:105A7000C0B2ADF80200BDF80200214991F844100F
:105A80004FF47F4202EA0121084300B2ADF8020060
:105A90000F2094FBF0F100FB1140012101EB0020ED
:105AA00000B2ADF800001748D0F850021549D1F8FF
:105AB0004C12884208D91348D0F850021149D1F845
:105AC0004C12401A192810D20E48D0F850020D4935
:105AD000D1F84C1288420FD20A48D0F84C0209493A
